:020000040800F2
:10000000988200205D0200085B36000881330008FA
:10001000593600086D0500088946000800000000F8
:100020000000000000000000000000009D0100082A
:100030004506000800000000F901000865420008BC
:1000400077020008770200087702000877020008AC
:10005000770200087702000877020008770200089C
:10006000770200087702000877020008770200088C
:10007000770200087702000877020008770200087C
:10008000770200087702000877020008770200086C
:100090007702000877020008770200086907000865
:1000A000770200083543000877020008770200084D
:1000B000770200087702000877020008770200083C
:1000C000770200087702000877020008770200082C
:1000D0007702000865460008714600087D46000862
:1000E000770200087702000877020008770200080C
:1000F00077020008770200087702000877020008FC
:10010000770200089136000877020008770200089D
:1001100077020008770200084143000877020008D0
:100120007702000877020008710500087D050008C5
:10013000770200085D0600087702000877020008D1
:1001400077020008770200087702000877020008AB
:100150007702000889050008950500087702000865
:10016000770200087702000877020008770200088B
:1001700077020008770200087702000800000000FC
:100180007702000877020008DFF80CD000F052F97F
:1001900000480047555D0008988200202C4B1968E4
:1001A0000868B0E8F04F80F30988BFF36F8F4FF015
:1001B000000080F3118870470000000008480068C4
:1001C000006880F308884FF0000080F3148862B65E
:1001D00061B6BFF34F8FBFF36F8F00DF00BF00BF6B
:1001E00008ED00E0DFF80C00016841F470010160E7
:1001F000704700BF88ED00E0EFF30980BFF36F8F19
:10020000134B1A681EF0100F08BF20ED108A20E96A
:10021000F04F106009B44FF0500080F31188BFF325
:100220004F8FBFF36F8F09F069FB4FF0000080F331
:10023000118809BC19680868B0E8F04F1EF0100F6B
:1002400008BFB0EC108A80F30988BFF36F8F704746
:10025000F8000020EFF30580704700000648804753
:1002600006480047FEE7FEE7FEE7FEE7FEE7FEE79B
:10027000FEE7FEE7FEE7FEE71943000889010008F4
:100280002DE9F05F0546002092469B4688460646CB
:10029000814640241BE0284641464746224600F05E
:1002A000B3F853465A46C01A914110D31146184626
:1002B000224600F09AF82D1A67EB01084F462246B5
:1002C0000120002100F091F817EB00094E41201E9B
:1002D000A4F10104DFDC484631462A464346BDE826
:1002E000F09F10B5431A934209D28318881803E08F
:1002F00010F8011D03F8011D521EF9D210BD40EA8D
:1003000001039B0703D009E008C9121F08C0042A93
:10031000FAD203E011F8013B00F8013B521EF9D27A
:1003200010BDD2B201E000F8012B491EFBD270478C
:100330000022F6E710B513460A4604461946FFF7B1
:10034000F0FF204610BDCAB2401E10F8011F8A42BD
:1003500002D00029F9D100207047421C10F8011B7F
:100360000029FBD1801A704730B5044600200346AF
:1003700000E05B1C934203D2E05CCD5C401BF8D0F4
:1003800030BD034611F8012B00F8012B002AF9D1EA
:10039000184670472DE9F0410E460546002400E05E
:1003A000641C285D00F040F80746305D00F03CF822
:1003B000381A02D1295D0029F2D1BDE8F08130B5AB
:1003C0000B46014600202022012409E021FA02F513
:1003D0009D4205D303FA02F5491B04FA02F52844AD
:1003E000151EA2F10102F1DC30BD202A04DB203A07
:1003F00000FA02F1002070479140C2F1200320FA78
:1004000003F3194390407047202A04DB203A21FA75
:1004100002F00021704721FA02F3D040C2F120021D
:100420009140084319467047A0F14101192900D8AD
:1004300020307047064C074D06E0E06840F00103AD
:1004400094E8070098471034AC42F6D3FFF7A0FEBB
:1004500060B5000880B5000870B58C1810F8015B15
:1004600015F0070301D110F8013B2A1106D110F84D
:10047000012B03E010F8016B01F8016B5B1EF9D151
:100480002B0705D40023521E0DD401F8013BFAE7D7
:1004900010F8013BCB1A921C03E013F8015B01F842
:1004A000015B521EF9D5A142D8D3002070BD704720
:1004B0000146014802F030B9F43D002010B504486F
:1004C00002F03CF9042801D0012010BD002010BD2D
:1004D000F43D002010B500F015F8012801D00120EE
:1004E00010BD074802F048FA040006D14FF400613D
:1004F000034801F0C7FF00B10124204610BD0000F1
:10050000F43D002008B501208DF800009DF80000A2
:1005100008BD0000134610B50A46014600240348F2
:1005200002F022FB00B10124204610BDF43D002062
:10053000024800220121406805F0DEBCD400002002
:10054000134610B50A4601460024034802F0ACFBEE
:1005500000B10124204610BDF43D002002480022D5
:100560000221406805F0C8BCD4000020FEE700006E
:10057000014800F0DBBE000038400020014800F0D8
:10058000D5BE0000783E0020014800F0CFBE00003C
:10059000D83E0020014800F0C9BE0000984000206D
:1005A00001681823CAB2103AB2FBF3F2054B6FF39D
:1005B0000901032A9B5CC36500D9091D81650846B2
:1005C0007047000068B3000810B5014600208B6931
:1005D0008A6A4FF0C07453B1B3F5005F15D072B1A1
:1005E000012A0CD0022A0AD0032A09D104E01AB148
:1005F000012A06D0022A03D1C96AC90100D5012007
:1006000010BDC96AA142FAD010BD002AF7D0012A54
:10061000F2D0022AF3D0032AF3D010BD30B504681B
:10062000256825F480252560046863608368402B75
:10063000036803D099600068C26030BD9A600068AA
:10064000C16030BD7047016882B001F58051896991
:1006500041F48011009102B007F0D0BC014801F0D4
:1006600071B80000B80A00202DE9F041044621B11C
:100670004FF40060E060C000A060E0690026002840
:100680004ED0354620684027006831490840D4E9FB
:1006900002121143294341F400710143204607F03F
:1006A000C0FC2068476020684568012000F0B0FF6A
:1006B00020684560206886602068C6602068806980
:1006C0004FF64171084040F08001204607F0B6FC2B
:1006D0002068C6612068C569012000F099FF206884
:1006E000C561206800F5805080691A4908401A49A0
:1006F0000143204607F082FC2068184900F580502D
:100700000160206800F580500568012000F080FF3E
:10071000206800F580500560A069012803D009E039
:100720004FF48065AEE7206800F58050C1690C4A3F
:100730001143C16160690B4A818841F00041116435
:100740000178D0F8010041EA00205064BDE8F08152
:100750000F8120FF233FDEF8040020028020C10229
:1007600040000100008002404FF4007001F020BA08
:1007700070470022AFF3008030B50E4B05460120D4
:100780005C7A002C14D1587A1C54587A03EB800000
:1007900045605D7A03F108002A54587A421C5A7267
:1007A000303008703A2048702F208870CC700020BC
:1007B00030BD0000887E002048210148FFF7B8BD09
:1007C0006001002010B50C2007F0D8FC04000BD00D
:1007D000002020606060A06009F06CF9206018B90A
:1007E000204608F025FB0024204610BD2DE9F34FDC
:1007F00085B08946FFF7E6FF5FEA000A7AD009EB89
:10080000490041F2581101EB8004204607F0B6FC84
:10081000060071D04FF0000B21463046CDF80CB0E9
:10082000FFF786FD41F25011002441F80690C6F80A
:1008300000A05CE0059800EB04156F68002F55DD03
:1008400006220121022000F0ECFC5FEA00084DD0F6
:1008500000F0B8F80290380240EA2720ADF8060010
:10086000082201A9404600F036FA4046A96800F087
:1008700074FA0427002203AB11464046009700F0AB
:10088000E6FB03AB012200214046009700F0DFFBAE
:1008900005225146404600F05FF804EB440106EBA8
:1008A000810707F58057C7F86081287887F85801D5
:1008B000E8680090FFF751FD401C804607F05EFCA1
:1008C000050003D042460099FFF70BFD2846C7F804
:1008D0005C51FFF742FD594601E0401E29540028B3
:1008E00004DD2A1812F8012C2F2AF6D0641C4C457E
:1008F000A0DB06E004E0FFE7504600F006F800E069
:10090000002607B03046BDE8F08F10B504460068F9
:1009100008F05DF92046BDE8104008F089BA48B1FA
:1009200081B1036B02F00F02934303631A0711D0E6
:10093000C1627047502080F31188BFF34F8FBFF31F
:100940006F8FFEE7502080F31188BFF34F8FBFF306
:100950006F8FFEE70021EBE768B1A1B1036B02F0F6
:100960000F02134303631A0715D0C16200204860C9
:10097000084605F005BE502080F31188BFF34F8F65
:10098000BFF36F8FFEE7502080F31188BFF34F8FC6
:10099000BFF36F8FFEE7704710B510B1074C646965
:1009A0000460074809B144680C600AB181681160AD
:1009B000002B01D0C068186010BD0000340000207A
:1009C000A801002001484069704700003400002061
:1009D0002DE9FC47074648480E46DDF828A0416946
:1009E00098461546002439B1502080F31188BFF392
:1009F0004F8FBFF36F8FFEE7416839B1502080F30E
:100A00001188BFF34F8FBFF36F8FFEE78146C06839
:100A100038B1502080F31188BFF34F8FBFF36F8F31
:100A2000FEE700220821412009F06CFCC9F804000F
:100A300080B132A108F0AEFA09F090F9012811D086
:100A40004D46D9F8040008F0B7FA00206860204647
:100A5000BDE8FC87502080F31188BFF34F8FBFF3B0
:100A60006F8FFEE73878D7F8011040EA0124254857
:100A700004603178D6F8012041EA022747602978DE
:100A8000D5F8012004EA070541EA0226866098F8B5
:100A90000020D8F8011042EA0121C16065EA07018F
:100AA0000161014614221430FFF71BFC1648446113
:100AB00056B13E40B54207D0502080F31188BFF3B5
:100AC0004F8FBFF36F8FFEE7DAF800200260BAF8AD
:100AD0000410818008F06CF904460128B7D106495A
:100AE00005200C31CDE90001C201002307A109480E
:100AF0000AF084F90446AAE7040000204E65744514
:100B0000766E7400A80100203400002049502D7436
:100B100061736B00A968000810B50021054809F051
:100B200091FF0549012801D0012000E000208860E4
:100B300010BD000050B20008040000207CB505463E
:100B400000212A2007F092FB040018D0656107F00D
:100B500033FF09F0F5F828B12046BDE87C400121BB
:100B600009F0D8B902208DF80000C11E6846019432
:100B700009F068FF002802D1204608F04FFA7CBD3A
:100B8000FEB50546006800F0A7F9F8B10024082773
:100B900005F5805616E004EB440005EB800000F5F7
:100BA0008050D0F8600160B16A4601A9009700F05A
:100BB00025F8020005D0501C03D02146284606F037
:100BC00099F9641CD6F85001A042E4DC41F25410BB
:100BD00005440FE0216920468847002808DAA0690B
:100BE0002860616920468847204608F021F901E025
:100BF00004F118052C68002CECD1FEBD2DE9F0475E
:100C000091460E464FF0000886B005464746012241
:100C1000062107F0E2F94FF0FF3A38B195F84000AD
:100C2000000705D495F85300012801D0544645E04B
:100C300008F05CFE95F84000000701D46C6D00E000
:100C40002C464CB100206865206C810703D520F04C
:100C50000200206400E000240AF080FAA4B13EB152
:100C6000A06B00BA7060A08F010241EA1020708072
:100C7000B9F1000F02D00821C9F8001095F8400022
:100C8000000701D4012700E03FB107208DF80400E0
:100C9000514601A8029509F0D5FE7CB9B8F1000FC4
:100CA00007D1E869039048B14FF0010804A808F0A3
:100CB000CFFD03A904A80AF067F818B106B02046D2
:100CC000BDE8F087039800900023012204216868A2
:100CD00008F044FFACE7FEB504004FF000056FF0EC
:100CE000150623D0621C21D0A269FAB909228DF819
:100CF0000420029421B14888010241EA102000E05A
:100D00000020A0844FF0FF37394601A809F09AFE71
:100D100048B10097002301221021606808F01EFFEF
:100D2000A06918B103E06FF08B0500E03546284656
:100D3000FEBD1CB50A218DF80010019040B1401C89
:100D400006D00021684609F07DFE18B101201CBDC7
:100D500000201CBD4FF0FF301CBD70B50E46044690
:100D600000250122062107F038F96FF05E0120B15D
:100D700094F8530018B1082801D00D4622E04FF630
:100D8000FF70864200DB0646A4F8506094F84000ED
:100D9000000713D5606F08B108F0F5FAA06F08B12D
:100DA00008F0F1FA462104F18200FFF7C1FAC021F0
:100DB00004F1D800FFF7BCFA082020640121204686
:100DC00008F0E7FA284670BD884200D90846704707
:100DD0002DE9FF47914688461F460446002601221A
:100DE000062107F0FAF810B96FF0150517E0606FEB
:100DF000C8B107F07EFD050016D0002D0FDDF80705
:100E00003DD0646F2568204607F073FD61191431E9
:100E1000C8F8001021694D1BA84200D8054604B04F
:100E20002846BDE8F087002594F8530028B108282B
:100E300003D0092801D04EB112E0206C000302D586
:100E40006FF00B05EBE76FF07F05E8E7E0690190D5
:100E50000028D2D0F806D0D4012602A808F0F8FC69
:100E600001A902A809F090FF0028C6D101980090BE
:100E7000002301226121606808F070FEB7E7C7F324
:100E8000800000904B4642460021606F07F0ECFC6A
:100E9000054694F840000006C1D5606F07F0E0FCFD
:100EA000A16E8142BBD8206C20F0800040F480709D
:100EB00020640120A4F84800062009F0EDFDAEE70B
:100EC00090F82710062902D06FF015007047406F88
:100ED0000028FBD007F00DBD7FB5040017D001A896
:100EE000039108F0B5FC01260398009000231A46F0
:100EF0000F21206808F032FE2046666005F040FBB6
:100F00000021206808F0B6FD05000ED107E0502052
:100F100080F31188BFF34F8FBFF36F8FFEE703A9F4
:100F200001A809F031FF0028DED004B0284670BDCA
:100F30002DE9FF5F89469246164601259B460446E9
:100F40004FF000082A46062107F047F888B1216CC7
:100F50006FF00B0708031AD494F8530060B1082807
:100F60000AD0092808D0480409D446B1A06F40B17E
:100F70000EE06FF015050BE06FF07F0508E000252F
:100F800006E00021204606F0B9FAA06F00B93D4600
:100F9000281E56DD554645E0002E27DDAE4200DD19
:100FA0002E4694F84000C00609D5AE4207D101276D
:100FB00008F09CFC206C40F04000206400E000271A
:100FC00033464A460021A06F07F0EDFB06460FB1FD
:100FD0000AF0C4F80120A4F8480008F0B1FE10B9E6
:100FE000062009F059FDAD1B22D0B144B8F1000F25
:100FF00005D001A902A809F0C7FEC8B90AE0206A15
:101000000190A8B15FEACB6012D44FF0010802A8AA
:1010100008F01EFC01980090002301222221606844
:1010200008F09CFDA06F07F06DFC0646002DB3DCB8
:10103000BAEB050005D194F85300052804D96FF0E8
:101040007F0004B0BDE8F09F6FF01B00F9E7F8B532
:1010500004006FF015050ED00127132A7DD2DFE8BA
:1010600002F0121522DC3D3DDCDCDCDCDC8A995927
:10107000A8CBDC2C2E00502080F31188BFF34F8FBB
:10108000BFF36F8FFEE71868E0610AE0186820621E
:1010900094F82710112904D141F28831884200D9EF
:1010A00021620025BBE014F8260F1BB140F00200BE
:1010B0002070F6E700F0FD00FAE7A362F1E794F88C
:1010C0002700062862D1D3E9000188425ED2E26E91
:1010D00091425BD860665868A066E2E794F8270002
:1010E000062853D1042A02D0052A02D004E0A06FBA
:1010F00000E0606F002849D11968042A01D0E16638
:10110000CFE7B4F84C000144491EB1FBF0F1414374
:101110002167C6E794F82700062837D1A06FA8BB3F
:10112000606F98BB04271E463A4600212046009770
:10113000FFF78DFF50BB06F1080305220021204672
:101140000097FFF784FF08BBF068C4F8D000706810
:10115000C4F8D40094F8D80000E05EE0C007A0D046
:1011600054F8D00F34F8841C4843E060606889B2BA
:101170004843206195E794F8270006284FD1186866
:101180000028206C03D040F0080010E047E020F079
:1011900008000CE094F82700062840D118680028C1
:1011A000206C02D040F0100001E020F0100020641C
:1011B00077E794F82700062831D118680028D4F87A
:1011C000D80002D040F0020001E020F00200C4F894
:1011D000D80094F8D800800792D494F853000528DA
:1011E0008ED3204600F074F8002889D0A4F8487007
:1011F000062009F051FC54E794F8270006280ED188
:1012000018680028206C02D040F4802001E020F40F
:10121000802040F480702064E8E76FF06C05284679
:10122000F8BDF8B515466B4605F06AF84FF0FF3685
:1012300080B1009806F0A2FF04000DD008F03AFC3F
:1012400007000BD020460099FFF772F86760112D58
:1012500008D00BE03046F8BD344637E0204607F0B2
:10126000E7FDF9E704F1380007F0FCFC04F10800A1
:1012700007F003FD646141F28830E06120620220E2
:1012800084F8260084F82750062D1FD14FF4916072
:1012900042F69731B1FBF0F1A4F84A00A4F84C00F3
:1012A00042F2107541434300B5FBF3F0C4E91B5112
:1012B0000122012800D81046C4F8D000B1FBF3F099
:1012C0000122012800D81046C4F8D4002046F8BDF9
:1012D00090F82710062902D06FF015007047806F34
:1012E0000028FBD007F005BB90F82710062902D094
:1012F0006FF015007047816F11B1084607F002BB0F
:10130000006F704790F83510022903D080214165A5
:1013100001207047052180F835100068016821F030
:101320000101016000207047406D70472DE9F843CE
:1013300004464FF00009CDF8009063484FF4165171
:10134000A56D0068B0FBF1F72E6894F85C200821C9
:1013500001FA02F030420FD02068026852070BD524
:10136000026822F00402026094F85C008140A960E7
:10137000606D40F00100606594F85C104FF001086A
:1013800008FA01F0304208D021684969090604D5FD
:10139000A860606D40F00200606594F85C10042065
:1013A0008840304208D021680968890704D5A860C0
:1013B000606D40F00400606594F85C101020884077
:1013C000304218D021680968090714D5A860206840
:1013D0000168490304D50068000308D5A16C07E043
:1013E0000168C90503D4016821F008010160216C7E
:1013F00009B12046884794F85C102020884030428C
:1014000031D021680968C9062DD5A86094F8350047
:1014100005282068016806D0490347D50068000305
:101420001DD4616C1CE021F0160101602068416947
:1014300021F080014161206C08B9A06C20B12068C6
:10144000016821F00801016094F85C103F20884099
:10145000A86084F8349084F83580216D1FE0E16B3A
:1014600009B120468847606D00282BD0606DC00709
:1014700014D0052084F835002068016821F00101AE
:1014800001600098401C0090B84203D820680068B2
:10149000C007F6D184F8349084F83580E16C0029D7
:1014A00010D001B02046BDE8F04308470168C905E7
:1014B000D5D4016821F01001016084F8349084F8DB
:1014C0003580CCE7BDE8F883F40000202DE9F04139
:1014D000044600F05FFC05465CB1002684F83460E9
:1014E000022084F835002068016821F001010160C4
:1014F0000DE00120BDE8F08100F04CFC401B052808
:1015000005D920206065032084F83500F2E72068C3
:101510000068C007F0D121680A6820480240D4E979
:1015200001031843D4E903352B4318436369184377
:10153000A3691843E3691843236A18431043626A96
:10154000042A03D1D4E90B231A431043086020680E
:101550004069656A20F0070128460D4301270428E9
:101560000CD1A06A0543E06A40B12046FFF72CF891
:1015700020B14020606584F83570BAE72068456185
:101580002046FFF70DF894F85C203F2191408160E0
:10159000666584F835700020ACE700003F8010F0ED
:1015A0002DE9F0410446866D90F8340000250128AD
:1015B0000DD0012084F8340094F835700020012FFC
:1015C00007D084F8340002252846BDE8F0810220C7
:1015D000FBE7022784F8357060652046FFF71EF8A8
:1015E00094F85C103F208840B0602068016841F0AA
:1015F00016010160206C20B12068016841F00801EB
:1016000001602068016841F001010160DCE7000031
:1016100070B5044600F0BEFB0546601C02D00448CD
:101620000078044400F0B6FB401BA042FAD370BD22
:10163000E80000202DE9F041054690F845000C46F1
:10164000012869D0012685F84560022085F844000C
:101650002868002C006862D038490840D4E900129C
:101660001143D4E902231A431143AA6811432269A2
:10167000114362691143EA681143A2691143E269A7
:101680001143226A1143626A1143A26A1143014362
:10169000284606F0C6FCD4E90B010843D4E90D1234
:1016A00011430843E16B0843216C0843616C084314
:1016B000A16C084329684860286847680120FFF743
:1016C000A7FF286847602968E06C88602968206D5A
:1016D000C860286880694FF641710840D4E9161245
:1016E0001143B4F85430226E42EA03421143626E51
:1016F0001143A26E11430143284606F09FFCD4E932
:101700001B0108432968C8612868C4690120FFF7E4
:101710007FFF2868C4610BE00220BDE8F081D5E9B5
:10172000021220F4904011430143284606F079FC50
:1017300005F8446F00206870EFE700000F8120FF7C
:101740007047000070B50168054601F580514C698D
:10175000094804404C6114F0C00F02D0284600F044
:1017600045F9E00702D0284600F0D0F9200402D560
:101770002846FFF7E5FF70BDFBE70138F8B5050027
:101780004FF0000603D095F8440010B104E00120AA
:10179000F8BD284600F064F82748016841F480410C
:1017A0000160006800F4804000902448016821F442
:1017B0000001016001682A6A11430160286800F590
:1017C0008050016841F0810101602A6802F5805073
:1017D0000168C907FCD1106920F01C0400F052FC1C
:1017E0001749184A0144914202D244F0080416E015
:1017F0001549164A0144914202D244F00C040EE00D
:101800001349144A0144914209D313490844134926
:10181000884202D244F0040401E044F01004286835
:10182000046107F061FA31462846FEF71DFF0120EA
:1018300085F844000020F8BD4438024004380140D7
:1018400000D3CEFEC0E1E40040F1E9FD40787D0127
:1018500000796CFC005A6202001F0AFA80F0FA025A
:10186000F0B587B0044614216846FEF761FD3149A2
:10187000206888425BD130480024016841F0007143
:101880000160016801F000710591016841F080611B
:101890000160016801F080610591016841F000611B
:1018A0000160016801F000610591016841F00401E7
:1018B0000160016801F004010591016841F0010136
:1018C0000160016801F001010591016841F0020128
:1018D00001600068022500F0020005903E20CDE97D
:1018E000000502AA03260B2782E8D00069461348A8
:1018F00000F06AF98F20CDE9000502AA694682E866
:10190000D0000F4800F060F943F60350CDE9000520
:1019100002AA694682E8D0000A4800F055F9002280
:1019200005213D2000F0C2FA3D2000F0B1FA07B0D9
:10193000F0BD000000800240303802400008024044
:1019400000000240000402402DE9F041044690F8F6
:1019500044009046822837D094F84500012835D0BD
:10196000012684F84560822084F8440020680269DA
:101970004FF6FF7502F01C03228A05EAC2221A43C1
:101980004FF4F86303EA8111114321F0020141F0A1
:101990000101016100F0FEF9054637042068006985
:1019A000C00715D000F0F6F9401BB842F6D3032566
:1019B00004F8446F002060701DB1294607A004F0B0
:1019C0009AF92846BDE8F0810225F6E70220F9E7FA
:1019D000206841690025C8F80010E9E75265616494
:1019E0005048593A2025640A0000000008B500203C
:1019F00000900B48C16841F00101C16040680028B7
:101A00000DD0694607F0FEFD0098002807D0054973
:101A10004FF080500860BFF34F8FBFF36F8F08BD4A
:101A20005400002004ED00E038B5044690F845006D
:101A3000012830D0012584F84550022084F8440064
:101A400021682046096841F0080106F0EAFA216899
:101A50002046096841F00401009106F0E2FA2046B0
:101A6000FEF7F1FD2168204601F58051896941F4B6
:101A70000051009106F0C2FA2168204601F580511C
:101A8000896941F00201009106F0B8FA04F8445F58
:101A90000020607038BD022038BD38B5044690F88B
:101AA0004500012830D0012584F84550022084F8F3
:101AB00044002168204601F58051896921F40051D4
:101AC000009106F09BFA2168204601F58051896952
:101AD00021F00201009106F091FA21682046096880
:101AE00021F00401009106F09CFA2046FEF7ABFDC0
:101AF00021682046096821F0080106F092FA04F8EE
:101B0000445F0020607038BD022038BD704700007F
:101B10002DE9F041044690F84400422838D094F86A
:101B20004500012836D0012684F84560422084F81B
:101B30004400206803694FF6FF7703F01C05238AF1
:101B400092B207EAC3232B434FF4F86505EA8111EB
:101B5000194341F0030142612068016100F01AF964
:101B60000546370420680069C00715D000F012F957
:101B7000401BB842F6D3032504F8446F0020607080
:101B80001DB1294605A004F0B6F82846BDE8F0814D
:101B90000225F6E70220F9E70025EDE757726974A0
:101BA000655048593A2025640A000000704700003B
:101BB000044910B50A68024202D00860FFF7F6FF38
:101BC00010BD0000143C01402DE9F84FDFF880B152
:101BD00000224FF003094FF00F0A0BF1040E01250C
:101BE0000B6895402B40AB4272D14C68012C05D05C
:101BF000022C03D0112C01D0122C10D18668540075
:101C000009FA04F7BE43CF68A740374387604668A8
:101C10000C79AE43C4F30014944034434460C46868
:101C2000570009FA07F58E68AC43BE402643C660EC
:101C30004C68022C01D0122C12D1D40800EB840C79
:101C4000DCF820605407E40E0AFA04F826EA0806D5
:101C5000D1F8108008FA04F848EA0608CCF8208089
:101C60000468AC430D7905F00305BD4025430560CC
:101C70004C68E40065D5374C256845F480452560FF
:101C8000246822F0030504F480440094324C2E1999
:101C9000D6F808789407250F0AFA05F4A7432F4CC5
:101CA000A04201D1002424E02D4CA04201D1012406
:101CB0001FE02C4CA04201D102241AE02A4CA04281
:101CC00001D1032415E0294CA04202D1042410E0E4
:101CD00037E0274CA04201D105240AE0254CA04260
:101CE00001D1062405E0244CA04201D1072400E0E4
:101CF0000824AC403C43C6F80848DBF800405D4689
:101D00004E689C43F60300D51C432C60DEF800406F
:101D100075464E689C43B60300D51C432C600C4DA1
:101D200008352C684E689C43F60200D51C432C6095
:101D3000074D0C352C684E689C43B60200D51C43F9
:101D40002C60521C102AFFF44AAFBDE8F88F000047
:101D5000003C014044380240003001400000024095
:101D60000004024000080240000C02400010024043
:101D70000014024000180240001C0240426931EA8F
:101D8000020200D10904816170470AB18161704784
:101D90000904FBE70148806870470000E800002064
:101DA000024881680278114481607047E800002091
:101DB0000B4810B5016841F400710160016841F4FD
:101DC00080610160016841F480710160032000F0CE
:101DD0008DF8002000F006F800F03EF8002010BD5D
:101DE000003C024010B5014688B00022192000F0E6
:101DF0005DF8192000F04CF813480024016841F008
:101E000001010160006805A900F001000690684624
:101E100000F018F900F04CF90C494000B0FBF1F16A
:101E20000C480B4A491E026040F2E732C0E9032425
:101E3000C0E9011401F01CF810B1012008B010BD78
:101E4000044801F04FF8F9E74438024040420F00DF
:101E500000000140F84000200C4882B0016841F4C5
:101E600080410160006800F4804000900748001F36
:101E7000016841F0805101600068002200F080504C
:101E800000900F21901E02B000F010B844380240BC
:101E9000002809DB00F01F02012191404009800069
:101EA00000F1E020C0F8001170470000F0B40E4BC4
:101EB0001B68C3F30223C3F10704042C00D90424D4
:101EC0001D1D072D01D2002300E0DB1E012606FAAE
:101ED00004F56D1E0D409D409E40761E164045EA5D
:101EE0000601F0BC02F0FABB0CED00E0064A00F07F
:101EF000070110684FF6FF03184040EA012003492C
:101F000008431060704700000CED00E00000FA0587
:101F10002DE9F0470D46040065D0DFF81491D9F89B
:101F20000000EFB200F00F00A84207D289F800705D
:101F3000D9F8000000F00F00A84254D120683D4EAF
:101F4000810712D5400703D5306840F4E050306077
:101F50002078000703D5306840F460403060306876
:101F6000A16820F0F000084330602078C0072DD031
:101F7000304960680839012812D0022813D003289C
:101F800011D00968890700292DDA316821F0030191
:101F900001433160FFF7FEFE804641F2883A0EE0D1
:101FA00009688903EFE709688901ECE7FFF7F2FEAA
:101FB000A0EB0801514502D90320BDE8F087306845
:101FC000616800F00C00B0EB810FEFD1D9F8001080
:101FD000484601F00F01A94207D90770006800F0D8
:101FE0000F00A84201D00120E7E72078400705D57F
:101FF0003068E16820F4E050084330602078000742
:1020000006D53068216920F4604040EAC1003060A4
:1020100000F05EF83168084AC1F30311515CC84012
:102020000649086006480068FFF7DCFE0020C4E7A8
:10203000003C02400838024070B30008F400002061
:10204000EC0000200F2202600C4A136803F0030327
:102050004360136803F0F0038360136803F4E053F4
:10206000C36012684FF4E05303EAD20202610448ED
:10207000006800F00F000860704700000838024058
:10208000003C02400148006870470000F400002056
:102090000448054900680968044AC1F38221515C7B
:1020A000C8407047F40000200838024080B30008A0
:1020B0000448054900680968044AC1F34231515C8B
:1020C000C8407047F40000200838024080B3000880
:1020D000154810B5006810F00C01144813D0144BCB
:1020E00004290FD008290ED10F4C241F216801F0BC
:1020F0003F022168490207D52068C0F38810A0FB81
:10210000030106E0184610BD2168C1F38811A1FB48
:1021100000010023FEF7B4F82168C1F30141491C16
:102120004900B0FBF1F010BD083802400024F40073
:1021300040787D012DE9F84F040075D02078DFF854
:1021400028A3C007AAF1040548D00AF104000168D9
:10215000C1F38101012908D00068C0F38100022881
:102160000AD1DAF80000400206D52868800335D588
:1021700060680028E1D031E06068B0F5803F10D0A1
:10218000B0F5A02F286810D020F48030286028688F
:1021900020F4802028606068A0B1FFF7FBFD0646B0
:1021A0000CE0286840F48030F4E740F48020286098
:1021B000F7E7FFF7EFFD801B642871D828688003DC
:1021C000F7D50BE0FFF7E6FD064604E0FFF7E2FD7A
:1021D000801B6428F1D828688003F7D42078DFF8C2
:1021E0008C9280074FF0000B3DD59F48001D016881
:1021F00011F00C0F08D00068C0F3810002280AD14A
:10220000DAF80000400206D42868800715D5E06897
:10221000012809D111E0E068B8B10121C9F8001026
:10222000FFF7B8FD064605E01AE1FFF7B3FD801B96
:102230000228C2D828688007F7D52868216920F0CD
:10224000F80040EAC10028600DE0C9F800B0FFF7CF
:10225000A1FD064604E0FFF79DFD801B02281FD864
:1022600028688007F7D42078000722D57E4F804861
:102270006169703771B101210160FFF78BFD06467E
:1022800004E0FFF787FD801B022809D83868800723
:10229000F7D50EE0C0F800B0FFF77CFD064605E07C
:1022A00082E0FFF777FD801B02287DD83868800721
:1022B000F7D42078400765D56B484FF000083C30D4
:1022C0000068C0000BD468483C30016841F0805180
:1022D000016000684FF0010800F080500090654FE9
:1022E0003868C0050FD4386840F480703860FFF754
:1022F00051FD064604E0FFF74DFD801B022853D830
:102300003868C005F7D5584FA0686C3701280FD042
:102310000528386810D020F001003860386820F0B7
:1023200004003860A068B0B1FFF734FD06460EE047
:10233000386840F00100F4E740F004003860F7E747
:10234000FFF728FD811B41F28830814263D838684D
:102350008007F5D50DE0FFF71DFD064606E0FFF707
:1023600019FD811B41F28830814254D838688007BA
:10237000F5D4B8F1000F05D03B483C30016821F09E
:1023800080510160A069B8B33749091D0968C1F3DC
:102390008101022946D00228584606D0C9F86000BB
:1023A000FFF7F8FC044639E035E04F46C9F8600015
:1023B000FFF7F0FC064604E0FFF7ECFC801B022868
:1023C00029D828688001F7D4D4E907010843A16A15
:1023D000294A490802EB0141626A41EA8211084335
:1023E00094F82C1040EA0161CAF800100120386608
:1023F000FFF7D0FC044605E034E0FFF7CBFC001B00
:10240000022808D828688001F7D52BE0FFF7C2FC26
:10241000001B022802D90320BDE8F88F286880013C
:10242000F4D41FE00128F7D0DAF80000E26900F4E4
:102430008001914214D1226A00F03F0191420FD1F4
:1024400047F6C071626A0140914209D1A26A00F464
:102450004031914204D1E16A00F07060884201D0BD
:102460000120D9E70020D7E70438024000004742A6
:10247000800E4742007000400000FFFF10B5FEF7DD
:1024800016F810BD2DE9FE43044603200D4684F8DE
:102490003400606C03285CD0B5F5805F59D04FF4F0
:1024A000006600274FF08068B5421ED10097019763
:1024B0000021206801F0E8F8800113D46946204625
:1024C00001F0C6FC06000DD10198400333D5B4F8E5
:1024D00050000104206801F013F9060002D1022126
:1024E000206822E0A06B304327E01DB1A06B40F0D4
:1024F000006022E0009701970021206801F0C4F8F5
:102500008001EFD46946204601F0A2FC0600E9D123
:102510000198C0030FD5B4F850000104206801F001
:10252000EFF80600DED10021206801F033F9060043
:10253000D8D13E46D6E74646D4E7A063A06B012635
:1025400058B121680C48886384F834600120BDE8E4
:10255000FE83A06B40F08050EFE7211DD4E9050712
:102560000EC9CDE900500297206801F097F884F871
:1025700034600020EBE70000FF05400070470000DA
:10258000F0B5426E920F0A70426EC2F383624A70D7
:10259000426EC2F301628A70426E120CCA70B0F8C9
:1025A0006420120A0A7190F864204A71826E120D3A
:1025B000CA80826EC2F303420A72B0F86820C2F386
:1025C000C0324A72B0F86820C2F380328A72B0F822
:1025D0006820C2F34032CA72B0F86820C2F30032F9
:1025E0000A7300264E73436C4FF40075012463B1E7
:1025F000012B3AD0026847499163816B41F08051C9
:10260000816380F834400120F0BDB0F86820C36ECB
:102610009205120D42EA93720A61C26EC2F3C2625F
:102620000A75C26EC2F302624A75C26EC2F34252AA
:102630008A75C26EC2F38242CA75C26EC2F3C232DA
:102640000A760B695B1C43650A7E02F00702921C46
:10265000934043650A7A02F00F0704FA07F2826595
:10266000520A5343C0E917350EE090F86820C36E54
:102670009206920A42EA13420A610A69521C9302C4
:102680004365C0E91653056630F86C2FC2F38032FB
:1026900001F8192F0288C2F3C6124A70027802F0BC
:1026A0007F028A704268D20FCA704268C2F34172D8
:1026B0000A714268C2F382624A714268C2F383526D
:1026C0008A714268C2F34052CA710E724268C2F304
:1026D00000424A728288C2F3C0328A728288C2F390
:1026E0008032CA728288C2F340320A738288C2F38F
:1026F00000324A738288C2F381228A738288C2F3CD
:102700000122CA730079C0F3460008744C7400209B
:10271000F0BD0000FF054000426C0A60826C4A6018
:10272000C26C8A60026DCA60426D0A61826D4A6144
:10273000C26D8A61006EC8610020704738B50025FF
:1027400004460095B0F850000104206801F028F913
:1027500028B90021206800F097FF0090284610B1AA
:10276000A16B0143A1630098C0F3432038BD000072
:10277000F8B5056B04460068416B09041BD52907B1
:1027800019D5D4E90A56002E14D00027206800F08D
:102790009FFF05F8010B010A05F8011B010C05F864
:1027A000021B000E361F7F1C05F8010C082FEDD30D
:1027B000C4E90A56F8BD416B4FF00007C9054FF058
:1027C000010644D5310281632068C16B4CF23A3274
:1027D0009143C1632068C16A21F00101C1622807E9
:1027E0001DD515F0220F09D0206801F009F928B194
:1027F000A16B0143A1632046FFF7C0FE216840F2B0
:102800003A50886384F834602763A80703D02046D1
:1028100000F042FAF8BD204600F042FAF8BD280662
:10282000FCD5A80609D5206801F0EAF828B1A16B0B
:102830000143A1632046FFF7A1FEA807EED120685F
:10284000C16A21F00801C16284F83460E3E7416B9A
:10285000490423D5290721D5D4E90856002EDDD017
:10286000002715F8010B009015F8011B361F40EAF0
:102870000120009015F8021B40EA0140009015F875
:10288000011C40EA016000906946206800F033FFB7
:102890007F1C082FE5D3C4E90856F8BD416B40F210
:1028A0003A221142F9D0416B890703D5A16B41F05F
:1028B0000201A163416B090703D5A16B41F0080137
:1028C000A163416B890603D5A16B41F02001A1638F
:1028D000416BC90603D5A16B41F01001A163416BA7
:1028E000890503D5A16B41F00801A16340F23A715B
:1028F00081632068C16B40F23A329143C163206822
:1029000001F07EF8A16B0843A063280706D584F880
:10291000346027632046FFF731FEF8BD2806FCD55A
:1029200015F0300F0CD0E16B11480865E06BFEF735
:10293000E9FC0028F1D0E06BBDE8F84001F066BA90
:10294000A8070CD0216C0B480865206CFEF7DAFC58
:102950000028E2D0206CBDE8F84001F02EBAA76351
:1029600084F8346027632046FFF788FDF8BD000037
:102970000D3E0008BB3D000870B504000ED094F871
:102980003400002518B92577204600F03BF80320D5
:1029900084F83400204600F00BF808B1012070BD27
:1029A000A5632563012084F83400002070BD000079
:1029B000FEB50025044676200095CDE90150294654
:1029C0000B460A46206800F069FE08B10120FEBDF2
:1029D0000B4E46F8A05F206800F072FE01253560BE
:1029E000204601F017FB20B9204601F09CFA002890
:1029F000EDD084F83450A16B0143A163E6E70000F9
:102A0000008025422DE9F04F87B005461421684625
:102A1000FDF78EFC4E49286888427DD14D480068FC
:102A20004C4940F400600860086800F400600590BC
:102A3000484814380068474940F0040014390860D9
:102A4000086800F004000590086840F0080008607D
:102A50000868012400F0080005904FF470600090B1
:102A60000220CDE90104032003900C203A4F04908A
:102A700069463846FFF7A8F826030220CDE9006032
:102A800000200290032003900C20049069463846F1
:102A9000FFF79AF8042702200097CDE901040320EC
:102AA00003900C20049069462C48FFF78DF82D4CBC
:102AB0002B484FF00068C4E9000800204FF4806AFA
:102AC000A060C4E9030AC4E9080704F114014FF443
:102AD00080494FF0200B81E8400AF60214310320B0
:102AE000B71081E8C1002046FEF7F0FC08B1FDF701
:102AF0003FFE2C641A48A5631A4C483060344FF4EA
:102B00008051C4E900084020A0600020C4E9030A05
:102B1000C4E907B0042000E017E0606204F1280275
:102B2000032082E8C100C4E905192046FEF7CEFC67
:102B300008B1FDF71DFEEC63002205213120A563DD
:102B4000FFF7B4F93120FFF7A3F907B0BDE8F08F24
:102B5000002C01404438024000080240000C0240B2
:102B600058640240783E00202DE9F04786B01F46A9
:102B70001546044639B194F83400012807D00220E4
:102B800006B0BDE8F087A06B40F0006008E00020D0
:102B9000A063E36DEA199A4204D9A06B40F000707B
:102BA000A0636FE0032284F8342082460346206845
:102BB000C3622068C26B40F22A363243C263226C81
:102BC00031484FEA4729D063226C3048D064206CEA
:102BD0000A4603652068266C00F180014FEA9903DC
:102BE0003046FEF7DDFCDFF8A880012660B12068E2
:102BF000C16B21F49571C1632168C1F83880A06B65
:102C000040F08040A06311E022480660606C01281B
:102C100000D06D024FF40071206800F0A3FD40B1B8
:102C20002268C2F83880A16B0143A16384F8346044
:102C300028E04FF0FF30CDE90009902002900220FB
:102C40000596CDE9030A6946206800F007FD012FCB
:102C500006D9822020632946206800F015FE05E091
:102C6000812020632946206800F026FE002887D0B6
:102C70002268C2F83880A16B0143A16384F83460F4
:102C8000C4F830A001207BE7793D0008153D00081D
:102C9000FF0540008C85254210B5FDF749FC10BDAD
:102CA00010B5FDF75BFC10BD2DE9FF4F87B0044662
:102CB00008981E46154638B194F83400012807D00C
:102CC00002200BB0BDE8F08FA06B40F0006008E080
:102CD0000027A763E16DA819884204D9A06B40F0D2
:102CE0000070A06361E0032084F834002068C762AC
:102CF0002068C16B40F21A2A41EA0A01C163E16B04
:102D00003248C863E16B3248C864E06B0765606CA9
:102D1000012800D06D024FF40071206800F022FD00
:102D2000DFF8B0904FF0010840B12268C2F8389047
:102D3000A16B0143A16384F8348036E04FF0900B1F
:102D4000012E06D9A02020632946206800F072FEDB
:102D500005E0C4F830B02946206800F083FE40B199
:102D60002268C2F83890A16B0143A16384F83480D3
:102D70001AE019484546C0F8008022687602B30878
:102D8000E06B80320899FEF70BFC80B12068C16BC4
:102D900021EA0A01C1632168C1F83890A06B40F0B4
:102DA0008040A06384F834502763012089E74FF006
:102DB000FF30CDE90006CDE902B7CDE904756946DB
:102DC000206800F04BFC00207BE70000FF3D00087E
:102DD000153D0008FF0540008C852542704770476F
:102DE00070B590F83C20012A32D0012580F83C5083
:102DF000022280F83D2002685368946823F0700630
:102E00000B6833435360134B02689A4214D0B2F1FB
:102E1000804F11D0104B9A420ED0104B9A420BD0DB
:102E20000F4B9A4208D00F4B9A4205D00E4B9A4254
:102E300002D00E4B9A4204D1496824F08003194312
:102E4000916080F83D50002180F83C10084670BD2C
:102E5000022070BD00000140000400400008004056
:102E6000000C0040000401400040014000180040F8
:102E700010B5040003D094F83D0010B107E0012024
:102E800010BD002084F83C00204600F00DF8022020
:102E900084F83D00211D206801F058FA012084F8D3
:102EA0003D00002010BD000008B500680B498842B5
:102EB00012D10B48016841F0100101600068002246
:102EC00000F01000009005213620FEF7EFFFBDE86E
:102ED00008403620FEF7DCBF08BD000000100040AF
:102EE000403802400168CA6842F00102CA600068C6
:102EF000816801F00701062903D0016841F0010152
:102F0000016000207047704770B504460068016991
:102F10004FF00005C943890715D4C168C943890723
:102F200011D4E91E016101202077206880698007A3
:102F3000204602D0FFF7E7FF04E000F098F82046B3
:102F400000F096F8257720680169C943490717D42E
:102F5000C168C943490713D46FF00401016102201D
:102F600020772068806910F4407F204602D0FFF768
:102F7000CAFF04E000F07BF8204600F079F82577DE
:102F800020680169C943090716D4C168C943090704
:102F900012D46FF008010161042020772068C06915
:102FA0008007204602D0FFF7AEFF04E000F05FF894
:102FB000204600F05DF8257720680169C943C906FD
:102FC00017D4C168C943C90613D46FF01001016159
:102FD000082020772068C06910F4407F204602D086
:102FE000FFF791FF04E000F042F8204600F040F8BF
:102FF000257720680169C943C90708D1C168C94359
:10300000C90704D1891E0161204600F033F8206809
:103010000169C943090609D4C168C943090605D431
:103020006FF0800101612046FFF7D8FE206801693A
:10303000C943490609D4C168C943490605D46FF09C
:1030400040010161204600F01FF820680169C94372
:1030500089060BD4C168C943890607D46FF02001E3
:1030600001612046BDE87040FFF7B9BE70BD7047F2
:103070007047000000680349884201D1FEF790BE06
:1030800070470000000001407047704770B502684B
:1030900004461068D168536910F00F0F53D003F045
:1030A000010501F490762E435FD0C20705D0CA0512
:1030B00003D5E26B42F00102E263420705D5DA076D
:1030C00003D0E26B42F00202E263820705D5DA0721
:1030D00003D0E26B42F00402E263020707D501F07D
:1030E00020022A4303D0E26B42F00802E263E26B63
:1030F000002A34D0800604D5880602D5204601F087
:103100009FF920684069E16BC0F3801001F008016D
:103110000143204624D001F085F920684169490621
:103120001AD5416921F040014161606BA0B11B4992
:103130000165606BFEF7E6F8002810D0606B016D4A
:10314000BDE87040084783060FD58B060DD5204695
:10315000BDE8704001F074B92046FFF796FF70BDDE
:10316000FFF793FF0020E06370BD030606D50B0652
:1031700004D52046BDE8704001F042BA4006F3D5C0
:103180004806F1D5D168204621F04001D1602021C8
:1031900084F8391000F0F3F870BD00001544000801
:1031A00070B5040004D094F83900002510B106E091
:1031B000012070BD84F83850204600F023F8242008
:1031C00084F839002068C16821F40051C1602046AC
:1031D00001F082F92068016921F4904101612068C1
:1031E000416921F02A0141612068C16841F4005120
:1031F000C160E563202084F8390084F83A0000209B
:1032000070BD00002DE9F04186B0044614216846E7
:10321000FDF78EF851482168514A022303260727FB
:10322000002581424FD14E481430016841F0100111
:103230000160006800F010000590106840F0010087
:1032400010601068694600F00100059070028DE87A
:10325000E9004448FEF7B8FC444E43484FF000678D
:103260003060C6E901754FF48068C6E9035875619E
:10327000B561F561356230467562FEF727F908B130
:10328000FDF776FA6663B463384E374860367830B7
:10329000E6E802074020A6E82101344846F8145920
:1032A0006030B561F56135627562FEF70FF908B1FE
:1032B000FDF75EFA2663002205212520B463FEF7A0
:1032C000F5FD252022E0264CDFF8A4C01034294863
:1032D000614520D1216841F400312160216801F469
:1032E00000310591116841F008011160116801F089
:1032F0000801059160218DE8EA006946FEF764FC4B
:10330000002205212620FEF7D1FD2620FEF7C0FD74
:1033100006B0BDE8F081DFF860C06145F8D12168F2
:1033200041F480212160216801F480210591116818
:1033300041F008011160116801F0080105914FF496
:1033400040718DE8EA006946FEF73EFC0022052147
:103350002720FEF7ABFD2720D8E700000010014032
:1033600030380240000002404064024038400020F3
:1033700000440040000C0240004800407047704785
:10338000FEE70000154808B5016841F480010160BE
:103390000068002200F48000009005213A20FEF72A
:1033A00085FD3A20FEF774FD002205213B20FEF743
:1033B0007DFD3B20FEF76CFD002205214520FEF738
:1033C00075FD4520FEF764FD002205214620FEF72D
:1033D0006DFDBDE808404620FEF75ABD303802407A
:1033E00010B504490448FDF7C4F90249491E0870A4
:1033F00010BD0000DD00002008B3000800B587B054
:103400001C2206496846FCF76CFF0021684602F062
:10341000FBFD0349086007B000BD00002CB30008A5
:10342000E40000202DE9F04387B014216846FCF742
:103430007FFF3F480024016841F0040101600168FA
:1034400001F004010591016841F08001016001680B
:1034500001F080010591016841F0010101600168FE
:1034600001F001010591016841F00201016001686C
:1034700001F002010591016841F01001016001684D
:1034800001F010010591016841F008010160006838
:10349000284F00F008004FF4E0450590002229462F
:1034A0003846FEF772FCDFF89080BE1400223146E9
:1034B0004046FEF76AFCDFF884900022112148465E
:1034C000FEF763FC00950125CDE9015469463846B5
:1034D0000394FEF779FBE8038DE83100694638462E
:1034E000FEF772FB0096CDE901546946404603940D
:1034F000FEF76AFB11200090CDE901546946484669
:103500000394FEF761FB680200900D48CDE90104C9
:1035100069460C48FEF758FB002205211720FEF7EC
:10352000C5FC1720FEF7B4FC07B0BDE8F08300002F
:10353000303802400010024000000240000C0240FF
:1035400000001110000402400648054901600021F6
:1035500041608160C1600161416103218161704707
:10356000002C0140F43D00201CB500240F480094BD
:103570000D490194016040F24731C0E9011409216D
:103580008461C160FFF774FC08B1FDF7F1F82020F9
:10359000CDE9000469460548FFF722FC002801D068
:1035A000FDF7E6F81CBD000000100040383F002089
:1035B0000C4810B50A4901604FF4E1314160002127
:1035C00081600C22C160C0E904128161C161FFF712
:1035D000E7FD002803D0BDE81040FDF7C9B810BDD5
:1035E00000100140783F00200C4810B50A490160E6
:1035F0004FF4E1314160002181600C22C160C0E9DB
:1036000004128161C161FFF7CBFD002803D0BDE842
:103610001040FDF7ADB810BD00440040B83F002099
:103620000C4810B50A4901604FF4E13141600021B6
:1036300081600C22C160C0E904128161C161FFF7A1
:10364000AFFD002803D0BDE81040FDF791B810BDD4
:1036500000480040F83F0020FEE770470A684262D9
:103660004A688262D1E902231A43D1E904310B434B
:10367000C16A1A4321F0F7011143C162002070476B
:10368000006800F00300704708444069704700007C
:103690000148FFF76DB80000F43D002070B50DF152
:1036A000100C11439CE870002343194329434268DE
:1036B000314347F6FF639A430A434260002070BDDE
:1036C00010B5032101600220FDF7A2FF002010BD0C
:1036D000D0F8800070470A688260D1E901231A435C
:1036E000D1E903310B43C1681A436FF30B01114356
:1036F000C160002070470968C0F880100020704742
:1037000010B586B004460091372101914021002078
:10371000CDE902100801049069462046FFF7DBFF5F
:1037200041F288323721204600F0B4F906B010BDCE
:1037300010B50B4A86B0044611432920CDE900108C
:103740004020029000200390500D049069462046CE
:10375000FFF7C1FF204600F055FA06B010BD00008B
:103760000000108010B586B0044600911021019130
:1037700040210020CDE9021008010490694620464E
:10378000FFF7A9FF41F288321021204600F082F9AC
:1037900006B010BD10B586B0044600910621019117
:1037A00040210020CDE9021008010490694620461E
:1037B000FFF791FF41F288320621204600F06AF9B6
:1037C00006B010BD30B585B00025044600950195C2
:1037D0004FF480600295CDE9035069462046FFF71B
:1037E0007AFF0B484FF4FA510068B0FBF1F141F257
:1037F00088304143491E02D24FF0004504E0606B1F
:103800000006F7D5C520A06305B0284630BD0000EE
:10381000F400002070B585B004464FF4D5700090D8
:1038200008204026CDE901060025C001CDE903505E
:1038300069462046FFF74FFF12484FF4FA510068DF
:10384000B0FBF1F141F288304143491E02D24FF002
:10385000004514E0606B10F0450FF6D00005F4D47D
:10386000606B400701D5042503E0606BC00702D000
:103870000125A56303E0606B400600D5A66305B093
:10388000284670BDF400002010B586B004460091B3
:103890001221019140210020CDE90210080104907D
:1038A00069462046FFF717FF41F288321221204671
:1038B00000F0F0F806B010BD10B586B004460091D7
:1038C0001121019140210020CDE90210080104904E
:1038D00069462046FFF7FFFE41F28832112120465B
:1038E00000F0D8F806B010BD10B586B00446072128
:1038F00040200092CDE90110002003904FF4806039
:10390000049069462046FFF7E6FE41F2883207211F
:10391000204600F0BFF806B010BD10B586B00021FB
:1039200002220446C020CDE90201CDE90012500276
:10393000049069462046FFF7CEFE204600F03AF993
:1039400006B010BD10B586B0044600910921019162
:10395000C0210020CDE902104FF480600490694638
:103960002046FFF7B8FE204600F024F906B010BD4F
:1039700010B586B00021044640203322CDE9020173
:10398000CDE900120001049069462046FFF7A3FE2E
:1039900041F288323321204600F07CF806B010BD99
:1039A00010B586B0044600910D2101914021002000
:1039B000CDE902100801049069462046FFF78BFE0E
:1039C00041F288320D21204600F064F806B010BDA7
:1039D00030B585B0054600230320CDE900304020F6
:1039E000CDE9020300010C46049069462846FFF722
:1039F00072FE22460321284600F026F905B030BDAC
:103A000010B586B00021044640200C22CDE9020109
:103A1000CDE900120001049069462046FFF75BFEE5
:103A2000034A0C21204600F035F806B010BD000016
:103A300000E1F50510B586B0044600911921019109
:103A400040210020CDE9021008010490694620467B
:103A5000FFF741FE41F288321921204600F01AF8A2
:103A600006B010BD10B586B0044600911821019132
:103A700040210020CDE9021008010490694620464B
:103A8000FFF729FE41F288321821204600F002F8A3
:103A900006B010BD454B10B51B684FF4FA54B3FB8C
:103AA000F4F353435B1E02D24FF0004010BD426B53
:103AB00012F0450FF6D01205F4D4426B520703D52D
:103AC00004218163084610BD426BD20702D0012158
:103AD000816305E0C52282630269D2B28A4201D0C5
:103AE000012010BD0021FFF7CFFD3149084201D16F
:103AF000002010BD002802DA4FF0007010BD410018
:103B000001D5402010BD810001D5802010BDC1002D
:103B100002D54FF4807010BD010102D54FF4007042
:103B200010BD410102D54FF4806010BDC10102D526
:103B30004FF4006010BD010202D54FF4805010BD5B
:103B4000410202D54FF4005010BD810202D54FF45E
:103B5000804010BDC10202D54FF4004010BD4103AA
:103B600002D54FF4003010BD810302D54FF4802000
:103B700010BDC10302D54FF4002010BD010402D5D1
:103B80004FF4801010BD410402D54FF4001010BD59
:103B9000810402D54FF4800010BD000702D54FF418
:103BA000000010BD4FF4803010BD0000F400002074
:103BB00008E0FFFD12494FF4FA520968B1FBF2F236
:103BC00041F288314A43521E02D24FF00040704702
:103BD000416B11F0450FF6D00905F4D4416B49074C
:103BE00003D50421816308467047416BC90703D0A0
:103BF0000121816308467047C52181630020704719
:103C0000F40000200F494FF4FA520968B1FBF2F2B8
:103C100041F288314A43521E02D24FF000407047B1
:103C2000416B11F0450FF6D00905F4D4416B4907FB
:103C300003D50421816308467047C52181630020B4
:103C400070470000F400002030B5204B4FF4FA54C8
:103C50001B68B3FBF4F441F288335C43641E02D268
:103C60004FF0004030BD436B13F0450FF6D01B05FD
:103C7000F4D4436B5B0703D504218163084630BD50
:103C8000436BDB0702D00121816303E00369DBB2F0
:103C90008B4201D0012030BDC52181630021FFF797
:103CA000F3FC10F4604F04D0410406D54FF40050EB
:103CB00030BD000C1080002030BD000402D54FF450
:103CC000805030BD4FF4803030BD0000F400002043
:103CD00010B5064C01202070FCF7F0FB18B92078D5
:103CE00020F001002070207810BD0000D4000020DA
:103CF00070B5054602F097F8044603E0FCF7DEFBDA
:103D0000002806D002F08FF8001BA842F6D34FF02F
:103D1000FF3070BD10B5846BFDF706FB022828D07C
:103D2000206C416DE06B406D012901D001281DD14F
:103D30002168104888632068C16B21F49D71C163BC
:103D4000A06B40F08040A0632046FEF7F7FC0628F9
:103D500001D0052805D12068FFF752FEA16B08436A
:103D6000A063012084F83400002020632046FEF781
:103D700005FC10BDFF05400010B5846B206B822848
:103D800009D12068FFF73CFE28B1A16B0143A16374
:103D90002046FEF7F3FB2068C16A21F00801C162EA
:103DA000216840F23A508863012084F834000020F2
:103DB00020632046FEF770FF10BD10B5846B40F203
:103DC0003A50216888632046FEF7B8FC012184F848
:103DD000341000212163062801D0052805D1206870
:103DE000FFF70EFEA16B0843A063A06B00282046DE
:103DF00002D0FEF7C3FB10BDFEF740FB10BD806B89
:103E00000068C16B41F48071C163704710B5846B69
:103E100040F23A50216888632046FEF78FFC01216A
:103E200084F8341000212163062801D0052805D12B
:103E30002068FFF7E5FDA16B0843A063A06B002895
:103E4000204602D0FEF79AFB10BDFEF717FB10BD0F
:103E50002DE9F04F89B00E460446FDF79BFF002583
:103E6000074606950795A84608212068FFF77AFCC3
:103E7000002835D1B4F8500001042068FFF740FC59
:103E800000282DD1401E4FF00809CDE9000930204F
:103E90004FF0020ACDE9020A0120CDE9048069460B
:103EA0002068FFF7DBFB2068FFF762FD002817D1D1
:103EB0000DF1180840F22A4B2068416B11EA0B0FF4
:103EC00011D1416B890204D5FFF702FC48F82500A7
:103ED0006D1CFDF75FFFC01B401CEDD14FF0004093
:103EE00009B0BDE8F08F416B090703D5C0F83890E1
:103EF0000820F5E7416B890703D5C0F838A00220F8
:103F0000EEE7416B890603D5202181630846E7E788
:103F100040F23A518163079800BA3060069800BABF
:103F200070600020DCE710B590B004460120ADF8C9
:103F300038002068FFF7A4FB002854D0606C0328E9
:103F400042D02068FFF7E9FC00284AD10021206810
:103F5000FFF79AFB606704212068FFF795FBA067D5
:103F600008212068FFF790FBE0670C212068FFF72D
:103F70008BFBC4F88000606C032825D00EA9206854
:103F8000FFF726FD00282CD1606C03281CD0BDF85B
:103F90003800206501042068FFF7D4FC002820D1F8
:103FA00000212068FFF770FB606604212068FFF79E
:103FB0006BFBA06608212068FFF766FBE0660C211A
:103FC0002068FFF761FB206704212068FFF75CFB96
:103FD000000DE06403A92046FEF7D2FA30B14FF09D
:103FE000805010B010BD4FF08060FAE7B4F8500078
:103FF000002302042068FFF777FC0028F1D104F1C8
:10400000100007C88DE8070094E80F00FFF746FB93
:104010000020E6E72DE9F84F0026044600963746D3
:1040200035460068FFF7CEFB002827D12068FFF750
:10403000F1FB4FF0805B4FF001094FF6FF7848B17C
:10404000A6642068FFF7BEFB002817D1A06C0128EA
:1040500002D01FE0C4F8489000212068FFF750FB11
:1040600058B917E000212068FFF74AFB002805D166
:1040700051462068FFF75CFB10B15846BDE8F88F49
:1040800000212068FFF700FB0746C50F0098401C81
:10409000009001E0DFF824A00099414501D2002DF5
:1040A000E0D0414502D34FF08070E7E7780002D5B9
:1040B000C4F8449000E066640020DFE7000010C10F
:1040C0007FB5124C05460120207001F09EFEC8B15C
:1040D000FCF700FA18B92846FFF7FAFD207020789F
:1040E00001280FD0606868B909480FC88DE80F0033
:1040F0000021684601F0A3FE606018B9207840F006
:1041000001002070207804B070BD0000D4000020B1
:104110001CB3000810B5124888B014460078C007D8
:1041200002D0032008B010BDC1B1012905D0022979
:1041300008D003290CD00420F4E76846FCF7B8F94E
:1041400006980AE06846FCF7B3F90798208005E076
:104150006846FCF7ADF90798400A20600020E1E7C7
:10416000D40000202DE9FE4347F230561C46174686
:10417000884601253046FFF7BBFD00281DDB22469F
:1041800039464046FCF7C6F9B8B90E483246416890
:10419000684601F067FEDDE9000110280DD1012914
:1041A0000BD101F040FE044602E0FCF787F938B17C
:1041B00001F039FE001BB042F7D32846BDE8FE836C
:1041C0000025FAE7D4000020FFF782BD2DE9FE4369
:1041D00047F230561C461746884601253046FFF701
:1041E00087FD00281DDB224639464046FCF7A8F92A
:1041F000B8B90E4832464168684601F033FEDDE941
:10420000001010290DD102280BD101F00CFE04463C
:1042100002E0FCF753F938B101F005FE001BB04293
:10422000F7D32846BDE8FE830025FAE7D400002036
:1042300041F2883402210948FCF7D8FA2146FCF7FC
:104240009FFC074D4FF400544FF4967621462846C4
:10425000FDF794FD304601F0D1FDF7E748B30008C3
:104260000010024010B5502080F31188BFF34F8F2B
:10427000BFF36F8F06F03EFE18B104494FF0805037
:104280000860002080F3118810BD000004ED00E0FC
:1042900030B593B030216846FCF74AF814210CA8D9
:1042A000FCF746F81A480025016841F0805101608A
:1042B000006800F0805011901648016841F4804178
:1042C00001600068022400F48040119001200090F9
:1042D000000401908001CDE90640192008904FF4B8
:1042E000A870CDE9090407200B906846FDF722FF6E
:1042F0000CA90F2081E831004FF4A0500F90E0028C
:10430000109005210CA8FDF703FE13B030BD00008E
:1043100040380240007000400548016841F47001D7
:10432000016003494FF00060803908607047000069
:1043300088ED00E00148FEF7E7BD0000F8400020EE
:104340000148FEF7E1BD0000383F0020F0B50268EB
:10435000254D264E264FDFF89CC0274B4FF0804E50
:10436000A84209D0704507D0B04205D0B84203D06A
:10437000604501D0984203D122F070044A6822437C
:10438000A8421BD0704519D0B04217D0B84215D002
:10439000604513D0984211D0184CA0420ED0184C52
:1043A000A0420BD0174CA04208D0174CA04205D019
:1043B000164CA04202D0164CA04203D122F4407405
:1043C000CA6822434C6922F08002224302608A6854
:1043D000C2620A688262A84201D0984201D109698A
:1043E000016301214161F0BD000001400004004073
:1043F00000080040000C0040000401400040014063
:10440000004401400048014000180040001C0040EA
:104410000020004010B5806B0021C185C184FEF7EB
:1044200034FE10BD0168CA6822F49072CA60016847
:104430004A6922F001024A61202180F83A1070474F
:1044400010B590F83A10222901D0022010BD8168E1
:10445000B1F5805F11D00169002901681FD049685A
:1044600001F07F03816A4A1C82620B70C18D491E74
:104470000904090CC18518D02BE00269816A002A61
:104480000268526805D0D2B20A80816A491C8162F2
:10449000ECE7C2F308020A80816A891CF7E74A68E0
:1044A000816A4B1C83620A70E0E70168CA6822F0E7
:1044B0002002CA600168CA6822F48072CA6001687A
:1044C0004A6922F001024A61202180F83A10FEF781
:1044D00055FF002010BD00002DE9F04104460068A2
:1044E0000169E26821F4405111430161A16820692A
:1044F000E26901436069104301432068C26849F2E0
:104500000C639A430A43C26020684169A26921F49E
:10451000407111434161E069192764253226B0F5E5
:10452000004F354A354920684FF0000806D08842D0
:1045300001D0904236D1FDF7BBFD35E0884201D075
:10454000904202D1FDF7B4FD01E0FDF7A1FD6168E5
:104550004A18A0FB070148EB0803FBF791FE014650
:10456000B0FBF5F00201B1FBF5F06FF01803584312
:1045700001EB800006EBC000B0FBF5F000F0F800A6
:1045800002EB4002B1FBF5F0584301EB800006EB73
:10459000C000B0FBF5F000F007002168104488600F
:1045A000BDE8F081FDF774FD01466068830F82006D
:1045B000A1FB0701FBF764FE0146B0FBF5F06FF0CD
:1045C0001802504301EB800006EB0010B0FBF5F041
:1045D00000F0F002B1FBF5F002EB0012B1FBF5F0D8
:1045E0006FF01803584301EB800006EB0010B0FB9E
:1045F000F5F000F00F00D0E700140140001001407A
:1046000090F83910212901D0022070478168B1F556
:10461000805F016A0BD04A1C02620268097851600F
:10462000C18C491E0904090CC1840ED017E0098809
:104630000268C1F30801516001690029016A02D0D2
:10464000491C0162ECE7891CFBE70168CA6822F09B
:104650008002CA600068C16841F04001C16000206A
:10466000704700000148FEF711BD0000783F0020B0
:104670000148FEF70BBD0000B83F00200148FEF7DF
:1046800005BD0000F83F0020FEE700000FB41CB598
:104690000A46521ECDE9000207A9054B6A46069854
:1046A00000F03CF8009A002111701CBC5DF814FB6E
:1046B0005F4A00080FB4084B10B504A902AA03987A
:1046C00000F02CF8044602A9002000F0D3F920469F
:1046D00010BC5DF814FB0000754A00080907090EBC
:1046E000002804DB00F1E02080F80014704700F09F
:1046F0000F0000F1E02080F8141D704702E008C8A8
:10470000121F08C1002AFAD170477047002001E04B
:1047100001C1121F002AFBD1704700002DE9FF4F95
:104720008BB088460546002606E025280BD0DDE93B
:104730000D1290476D1C761C28780028F5D10FB01B
:104740003046BDE8F08F0024A146A2460122AE49C2
:1047500000E0044315F8013F203B02FA03F0084251
:10476000F7D128782A2810D06FF02F022878A0F1EE
:104770003001092915D809EB890102EB410144F008
:10478000020400EB01096D1CF0E758F8041B5FEA16
:10479000010903D544F40054C9F1000944F00204AE
:1047A0006D1C28782E2817D115F8010F44F0040449
:1047B0002A280ED06FF02F022878A0F130010929A5
:1047C0000AD80AEB8A0102EB410100EB010A6D1CD9
:1047D000F2E758F804AB6D1C28786C280FD006DC83
:1047E0004C2817D068280DD06A2814D104E074280A
:1047F00010D07A280FD10DE044F400140AE044F4FC
:10480000801401E044F440146978814202D104F537
:1048100080146D1C6D1C2878692865D006DC002882
:104820008DD0632827D0642806D15DE06E2808D09B
:1048300073282AD0752877D0DDE90D129047761CB1
:10484000E0E0C4F30250022809D003280DD0D8F8C4
:10485000001004280DD00E6008F10408D2E0D8F84A
:104860000010F217C1E90062F6E7D8F800100E80D8
:10487000F2E70E70F0E718F8041B8DF80010002026
:104880008DF80100EB46012003E058F804BB4FF01F
:10489000FF3061074FF0000701D40AE07F1C574545
:1048A0000DDA8742FADB1BF807100029F6D106E083
:1048B0007F1C8742FCDB1BF807100029F8D1DDE9DB
:1048C0000D23A9EB07008146214600F0B1F83044E2
:1048D000C61904E0DDE90D121BF8010B90477F1E9D
:1048E000F8D22146484688E058F8040BC4F3025138
:1048F0004FF00A0B032900D100B2042900D140B2C5
:10490000002802DA40422D2102E0210505D52B21A5
:104910008DF82410012104E006E0E10710D02021E9
:10492000F6E708AF089113E058F8040BC4F30251FE
:104930004FF00A0B032900D180B2042900D1C0B284
:104940000021EEE75946FBF73AFD303107F8011D2B
:104950000028F7D1ADEB070000F1200B600702D56E
:1049600024F4803401E04FF0010ADA4502DDAAEBBD
:104970000B0000E00020824600EB0B010898014488
:10498000A9EB01000A90E00306D4DDE90D232146DE
:104990000A9800F04DF806444FF0000908E009A914
:1049A00011F80900DDE90D12904709F10109761CA3
:1049B00008998945F3DBE0030CD5DDE90D23214699
:1049C0000A9800F035F8064404E0DDE90D123020C5
:1049D0009047761CBAF10001AAF1010AF5DC05E066
:1049E000DDE90D1217F8010B9047761CBBF10001B1
:1049F000ABF1010BF4DC0A982146DDE90D2300F050
:104A000005F806446D1C97E6092801002DE9F041E0
:104A1000044600251E461746880404D405E039469E
:104A20002020B0476D1C641EF9D52846BDE8F081F2
:104A30002DE9F041044600251E469046C80301D5E5
:104A4000302700E02027880404D505E04146384699
:104A5000B0476D1C641EF9D52846BDE8F0814A6850
:104A6000002A06D00A68531C0B6010704868401E6C
:104A7000486070470A68531C0B6010707047000054
:104A800010B504460020E070401E6063204601F02F
:104A90009CF908B1042010BD04F2362001F04AF957
:104AA000A0F52A41553901D0032010BD94F83800F3
:104AB000E92805D0EB2814D194F83A00902810D1B9
:104AC00004F16E0001F02BF90749B1EB002F06D07D
:104AD00004F18A0001F023F90449884201D1002041
:104AE00010BD022010BD0000004641544641543321
:104AF000F0B50022144E154606EB02131C685CB19B
:104B00000768BC4209D15C688768BC4205D19B68D4
:104B10004469A34204D000E00125521C022AEBD3D1
:104B2000022A01D069B904E04DB9022907D0122048
:104B3000F0BD06EB02108089B0F5807F01D0002027
:104B4000F0BD1020F0BD0000687E002030B50021CF
:104B5000054B0C4603EB01121568854200D1146029
:104B6000491C0229F6D330BD687E00200368C26A62
:104B700098895B895843B1FBF0F0121D02CA19B144
:104B8000884203D3401AF8E70020704711680844B0
:104B90007047C269891E921E8A4201D80020704760
:104BA000026B408901FB002070472DE9F041056848
:104BB0000F00804606D000F0A2FE022809D2012094
:104BC000BDE8F0816E6916B1E869B04207D80126E8
:104BD00005E0411CF4D0E9698142F1D83E463446F3
:104BE000E869641CA04202D80224022E0AD321469E
:104BF000404600F084FE38B10128E1D0411CDFD0EE
:104C0000B442EDD10020DBE74FF0FF3632462146BB
:104C1000284603F020FA30B957B1224639462846D3
:104C200003F019FA20B101280FD001242046C7E76C
:104C30006C61D5E90601891E884201D8401EA86131
:104C4000287940F001002871F0E73446EEE70000D3
:104C50002DE9F0410E4624300D6804460B22202138
:104C600001F0ADF8002001464FF0080C2A5C401C12
:104C7000202A13D92F2A0CD05C2A0AD02E2A01D040
:104C8000614516D3BCF10B0F20D02E2A1ED10CE0AB
:104C9000401C2B5C2F2BFBD05C2BF9D028443060C0
:104CA000A1B12078E5281DD01EE008214FF00B0CA3
:104CB000DCE7802A03D3104B1A4412F8802C0FA390
:104CC00000E05B1C1F7827B19742FAD10620BDE8AF
:104CD000F081A2F16103192B01D8203AD2B26254BB
:104CE000491CC3E705202070202A01D8042000E0D9
:104CF0000020E0720020EAE788B30008222A2B2C6B
:104D00003A3B3C3D3E3F5B5D7C7F0000401E0228FD
:104D100012D20A4901EB00118889B0F5807F05D0D5
:104D200008B1401E80B2888110B103E00020FAE78C
:104D3000002008600020704702207047687E002035
:104D40002DE9F04105460021066800F0E4F800284E
:104D50001DD13046E96901F038F8002817D1296AD9
:104D60000A789AB1CA7A02F03F02AA71CA7A120787
:104D700011D405F124040B2211F8013B14F8017B36
:104D8000DB1B521E05D0002BF6D004E00420BDE84A
:104D9000F081002BFBD00021284600F003F800280A
:104DA000D7D0F4E72DE9F047054604684069894605
:104DB00000F12008E86918B14146B8F5001F02D398
:104DC0000420BDE8F087A289B1FBF2F302FB138156
:104DD000002959D1401CE861A969002719B3A289AB
:104DE000B8FBF2F06289521E10424DD1284600F005
:104DF00086FD064601281ED9701C33D0E069B042FA
:104E00003CD8B9F1000F12D02846A969FFF7CDFEB2
:104E100006000ED0012E0ED0701C23D0204603F0C9
:104E200075FBF8B909E02189B1EB581F2CD8EF6167
:104E3000C6E70720C5E70220C3E7A289002104F1E5
:104E4000380000F0BCFF002731462046FFF7A1FEE6
:104E50004FF0010960630BE084F80390204603F0F3
:104E600055FB08B10120ACE7606B401C7F1C606300
:104E70006089B842F0D8606BC01B60633146204641
:104E8000AE61FFF786FEE861C5F81480A189B8FB22
:104E9000F1F201FB1280204438302862002090E7B4
:104EA0002DE9F041054601260021076800F033F89E
:104EB00088B900243846E96900F087FF58B9296AA3
:104EC0000978E5290AD049B1002401212846FFF7D5
:104ED00069FF0028EED0042804D004E0641CB4422A
:104EE00001D0F2E70720040012D13846E96900F04A
:104EF0006CFF04000CD120220021286A00F05FFF23
:104F00000B2205F12401286A00F050FF0120F870FF
:104F10002046BDE8F0812DE9F04105680E460746C0
:104F2000B1F5001F3CD2F0063AD17E61BC6824B9CD
:104F30002878032806D3EC6A24B16889A98900FB84
:104F400001F812E02889B0EB561F29D9E86A12E06F
:104F5000384600F0D4FC0446401C1FD0022C1FD35E
:104F6000E869A0421CD9A6EB080646452146EFD2C7
:104F70002846FFF70EFEC7E9064088B1A989B6FBAF
:104F8000F1F10844F861A889B6FBF0F100FB11606B
:104F90002844383038620020BDE8F0810120FBE76A
:104FA0000220F9E7084A10B5135C002153B901212A
:104FB0001154111802EB8000097A40680268084613
:104FC00090470146084610BD887E002030B4054B4E
:104FD0001C1803EB8000247A40680369204630BC2B
:104FE00018470000887E002030B4054C251804EBDB
:104FF00080002D7A406884682846A44630BC60470B
:10500000887E002004490A1801EB8000127A40686B
:105010004168104608470000887E002030B4054CE7
:10502000251804EB80002D7A4068C4682846A44601
:1050300030BC6047887E0020F0B503680446581CE9
:1050400003D01D4D2869834206D11C4802680A60BE
:10505000808888800120F0BD1948406948B16A689D
:1050600003EA02061040864205D0A86818B103463C
:1050700003E00220F0BD002BFBD00020114D0246C2
:1050800002EB420655F826709F420DD102EB42001A
:1050900005EB8000C27A2AB142680A6000898880E4
:1050A000012004E0022002E0521C062AE8DB00286E
:1050B000E0D12360F0BD0000A801002048B2000844
:1050C00034000020600100202DE9F047214BC66923
:1050D000D0F82670596905464FF0000800F10E041B
:1050E00061B1E2884FF4007905F11600B2F5807FD6
:1050F00007D04A4502D1314603F090FC4046BDE856
:10510000F0879A46B942F9D1314603F087FCA4F8FA
:105110000690B7420BD110480168C5F80610808888
:1051200068810020C4F81200E082A06105E0A06858
:10513000C4F81200A089E082A661DAF80010A1602C
:10514000BAF80410A181DAF81400C4F80E004FF088
:105150000208D3E73400002048B2000838B50546FD
:1051600000F0EAF904000FD16946284604F0F4FB88
:10517000040009D12869FFF7C9FD040000D12860A7
:105180000021009803F0D8FA204638BD2DE9F743F6
:105190008EB005000BD002F03F06324601A90FA8E1
:1051A00000F028FA04004FF0000804D0EFE00920D6
:1051B00011B0BDE8F0830198029002A80F9900F0A9
:1051C00061FB04000ED19DF83700000601D50624CE
:1051D00008E0700801D0012100E0002102A8FFF7DB
:1051E00087FC044616F01C0F5DD0C4B1042C12D10C
:1051F00000206B4902E0401C022804D201EB00129F
:105200001268002AF7D1022804D002A8FFF748FE4E
:10521000044600E0122446F008065CB1B7E09DF8B1
:105220000E0010F0110F01D00724B0E0700701D577
:105230000824ACE0300745D500F0D5FB07460A98B6
:1052400039460E3003F012F90A983946163003F049
:105250000DF90A992020C8720A99019800F04CFDB6
:10526000074600220A99019803F0ECF80A980021F9
:105270001C3003F0FBF801980121C17007B3D0F88E
:1052800034900022394602A803F0A2F804007ED12F
:105290004946019800F099FD04000198A7F1010723
:1052A00047610BD073E0ECBB9DF80E00C10601D541
:1052B00004246CE0B10701D5C007B5D1300701D592
:1052C00046F040060198406B68620A98A862700830
:1052D00001D0012100E0002102A800F0ABFB286111
:1052E00058B30A99019800F007FDA8600A981C308D
:1052F00000F015FDC5F82C80E860019828604FF497
:105300008052C088A8802E7585F81580C5F8208049
:1053100005F1300000218146C5F8188000F04FFDEE
:10532000B00600E033E034D5EE6896B3AE61019884
:10533000A9684789808947430DE0022427E0284671
:1053400000F0DDFA0146012800D80224481C00D1F3
:105350000124F61B0CB9BE42F1D8E961BCB9019831
:105360008289B6FBF2F302FB136292B1FFF711FCE4
:105370000028E2D0019901238A89B6FBF2F20244A7
:105380002A6248784946FFF72FFE10B10124C5F87C
:1053900000802146019803F0CFF9204608E700007D
:1053A000687E00202DE9FC5F8946002119609A463D
:1053B00016460446694604F0CFFA050001D1657D22
:1053C00035B12946009803F0B7F92846BDE8FC9F9F
:1053D000207DC0070BD0A169E0684FF0010B401A97
:1053E00004F130010191864200D906469BE0072175
:1053F000009803F0A1F90720E8E7009AA1699089D5
:10540000B1FBF0F300FB1313002B6DD1B1FBF0F5F2
:105410005089401E054011D129B1E06A28B12046CB
:10542000FFF7A4FB05E0A06803E02046E16900F077
:1054300066FA02281BD3411C4CD0E061E169009858
:10544000FFF7A7FB98B100EB050800988189B6FB30
:10545000F1F73FB34189EA198A4200D94F1B4078DE
:105460003B4642464946FFF7BFFD98BB07E0022096
:1054700060750146009803F05FF90220A6E7207DE1
:1054800000060BD5216AA1EB0800B84206D20099AC
:105490008A89019900FB029000F088FC00988589B8
:1054A0007D4336E0226A42451CD0217D090609D59C
:1054B000407801230199FFF7B1FD58B9207D00F034
:1054C0007F00207500980123424640780199FFF73C
:1054D0008BFD38B184F815B00121009803F02CF948
:1054E000012073E7C4F820800098A1698089B1FB8E
:1054F000F0F200FB1212851AB54200D93546B1FB15
:10550000F0F200FB121001192A464846303100F033
:105510004DFCA069A9442844A061DAF800004119B3
:10552000761BCAF80010002E7FF467AF00210098A8
:1055300003F002F9002049E7F8B50446694604F093
:105540000BFA050043D1207D410640D5000612D557
:105550000098226A0123407804F13001FFF75EFDD4
:1055600028B10121009803F0E7F80120F8BD207D63
:1055700000F07F00207500F036FA0646616A009858
:1055800000F023FC050022D1A56A2946E87A40F004
:105590002000E872A268206802F054FF05F11C00A8
:1055A000E16802F063FF314605F1160002F05EFF8C
:1055B000002105F1120002F061FF00980121C17085
:1055C00002F060FF0546207D00F0BF0020752946EF
:1055D000009803F0B1F82846F8BD00F0BBBC10B548
:1055E00000244FF47A7100F0DDFC00B9012420465C
:1055F00010BD00002DE9FF41002790460E460F60C8
:1056000000F0F3F9050003D50B2004B0BDE8F081EC
:10561000994850F82540BCB1204600F090FBA8B155
:105620003460207808F0FE0620B16078FFF7EAFCCD
:10563000C1070DD02770E8B2B8466070FFF7B2FC22
:10564000C1070AD00320E0E70C20DEE70F20DCE7EB
:105650000EB1400704D40020D7E71EB1400701D5A2
:105660000A20D2E7607804F10C020221FFF7AEFCB9
:10567000F0BBA089A0F50071B1F5606F3DD8411E67
:1056800008423AD1002529462046FFF7F9F90228B9
:1056900020D16E4604EB051090F8FA1100F5FB706E
:1056A00019B1083000F03BFB00E0002046F825006F
:1056B0006D1C042DEED3002756F8275025B129463E
:1056C0002046FFF7DDF900E00320022802D37F1C0B
:1056D000042FF1D3042810D0022878D204F143001B
:1056E00000F028FBA189884271D104F14E0000E04E
:1056F00003E000F01FFB10B105E0012085E704F195
:105700005C0000F00CFB206294F84870A770012F39
:1057100001D0022F5BD1474394F845006081E8B384
:10572000411E084253D104F1490000F003FB2081DF
:10573000A1894909B0FBF1F201FB120070BB04F131
:105740004B0000F0F7FA060004D104F1580000F015
:10575000E6FA064604F1460000F0ECFA010036D005
:10576000A08923894009B3FBF0F0CA19024496428C
:105770002DD3B01A6689B0FBF6F078B103264FF648
:10578000F57C604500D8022640F6F57C604500D8DF
:1057900001262A44801C2944226300E017E0E061CE
:1057A000C4E90951032E14D08BB13944E162022EB1
:1057B00020D000F0010100EB400001EB5000A18976
:1057C000401E0844B0FBF1F0216A884214D90D2034
:1057D0001BE704F1620000F0ADFA0028F7D1208940
:1057E0000028F4D104F1640000F099FAE062E06965
:1057F0008000E4E74000E2E74FF0FF30A061606125
:1058000080202071032E2CD104F1680000F092FA60
:10581000012826D1691C204600F0D7FA08BB84F87D
:10582000048004F2362000F085FAA0F52A415539AB
:1058300017D104F1380000F072FA1049884210D1F3
:1058400004F5077000F06BFA0D49884209D104F5A0
:10585000087000F064FAA06104F5097000F05FFAC6
:10586000606105492670091F0888401C0880E08097
:105870002046FFF76BF9EEE65C01002052526141D1
:105880007272416173B504460568019801E0401CDD
:10589000019001782F29FAD05C29F8D00021A1606D
:1058A00001980078202806D2802084F82F00204616
:1058B000FFF731FB7CBD01A92046FFF7C9F900289D
:1058C000F8D12046FFF73CFA94F82F1028B10428AD
:1058D000F0D14907EED405207CBD4907FCD4A0795E
:1058E000C006F8D5A9896069B0FBF1F201FB12008E
:1058F00041192846383100F0FFF9A060DBE72DE9B7
:10590000F04104680D4602290BD3E069A84208D98A
:1059100020784FF0FF36012807D0022834D0032822
:1059200049D001263046BDE8F081A08905EB550736
:10593000B7FBF0F0A16A0144204600F046FA0028C7
:10594000F0D1A089B7FBF0F100FB11717F1CB7FB10
:10595000F0F0214491F83880A16A0144204600F01B
:1059600034FA0028DED1A089B7FBF0F100FB1170FA
:10597000204490F8381048EA0120E90701D00609D0
:10598000D0E7C0F30B06CDE7A089A16A4008B5FBBC
:10599000F0F00144204600F018FA0028C2D1A18995
:1059A0006800B0FBF1F201FB12002044383000F037
:1059B000C1F90646B6E7A089A16A8008B5FBF0F0F8
:1059C0000144204600F001FA0028ABD1A189A800CB
:1059D000B0FBF1F201FB12002044383000F09FF9D7
:1059E00020F070469EE70020704710B503464FF048
:1059F000FF301C68002C13D0214600E0491C0A78B7
:105A0000212A0ED33A2AF9D114F8012B303A0A2A66
:105A100006D28C4204D1002A02D1491C10461960DA
:105A200010BD002010BDEFF30580002800D001203C
:105A300070470000F0B502461D4D1468002005EBCC
:105A400000131E68A64207D15E689768BE4203D164
:105A50009B685669B34202D0401C0228EFD302284B
:105A600014D1002002E0401C022804D205EB0013F0
:105A70001B68002BF7D102280ED005EB00131C6029
:105A800094685C6052699A6000229A81002905EB53
:105A90000011898905D009B10020F0BD4FF4807153
:105AA00000E0491C05EB0012401C9181F0BD000094
:105AB000687E00202DE9F0410446406F1E461746DF
:105AC0000D4620B90121204601F018FD38B13346BA
:105AD0003A46294602F067FE064625B122E04FF01D
