:020000040800F2
:10000000884600205D020008F3230008E520000870
:10001000F12300088D030008E5300008000000000F
:100020000000000000000000000000009D0100082A
:100030002504000800000000F9010008C12C000898
:1000400077020008770200087702000877020008AC
:10005000770200087702000877020008770200089C
:10006000770200087702000877020008770200088C
:10007000770200087702000877020008770200087C
:10008000770200087702000877020008770200086C
:100090007702000877020008770200085905000877
:1000A00077020008912D0008770200087702000807
:1000B000770200087702000877020008770200083C
:1000C000770200087702000877020008770200082C
:1000D00077020008C1300008CD300008D930000890
:1000E000770200087702000877020008770200080C
:1000F00077020008770200087702000877020008FC
:100100007702000829240008770200087702000817
:1001100077020008770200089D2D0008770200088A
:1001200077020008770200089103000877020008B0
:100130007702000829040008770200087702000807
:1001400077020008770200087702000877020008AB
:1001500077020008770200089D0300087702000874
:10016000770200087702000877020008770200088B
:1001700077020008770200087702000800000000FC
:100180007702000877020008DFF80CD000F0ECF8E6
:100190000048004725310008884600202C4B19688C
:1001A0000868B0E8F04F80F30988BFF36F8F4FF015
:1001B000000080F3118870470000000008480068C4
:1001C000006880F308884FF0000080F3148862B65E
:1001D00061B6BFF34F8FBFF36F8F00DF00BF00BF6B
:1001E00008ED00E0DFF80C00016841F470010160E7
:1001F000704700BF88ED00E0EFF30980BFF36F8F19
:10020000134B1A681EF0100F08BF20ED108A20E96A
:10021000F04F106009B44FF0500080F31188BFF325
:100220004F8FBFF36F8F03F021FB4FF0000080F37F
:10023000118809BC19680868B0E8F04F1EF0100F6B
:1002400008BFB0EC108A80F30988BFF36F8F704746
:1002500014000020EFF30580704700000648804737
:1002600006480047FEE7FEE7FEE7FEE7FEE7FEE79B
:10027000FEE7FEE7FEE7FEE7752D000889010008AE
:100280002DE9F05F0546002092469B4688460646CB
:10029000814640241BE0284641464746224600F05E
:1002A00053F853465A46C01A914110D31146184686
:1002B000224600F03AF82D1A67EB01084F46224615
:1002C0000120002100F031F817EB00094E41201EFB
:1002D000A4F10104DFDC484631462A464346BDE826
:1002E000F09F40EA01039B0703D009E008C9121FF1
:1002F00008C0042AFAD203E011F8013B00F8013BE0
:10030000521EF9D27047D2B201E000F8012B491E0B
:10031000FBD270470022F6E710B513460A460446A2
:100320001946FFF7F0FF204610BD202A04DB203AD3
:1003300000FA02F1002070479140C2F1200320FA38
:1003400003F3194390407047202A04DB203A21FA36
:1003500002F00021704721FA02F3D040C2F12002DE
:100360009140084319467047064C074D06E0E06887
:1003700040F0010394E8070098471034AC42F6D3EC
:10038000FFF706FF443C0008643C0008FEE700005D
:10039000014800F0F9B8000094040020014800F082
:1003A000F3B80000F404002001681823CAB2103A20
:1003B000B2FBF3F2054B6FF30901032A9B5CC365A3
:1003C00000D9091D8165084670470000183C0008E7
:1003D00010B5014600208B698A6A4FF0C07453B192
:1003E000B3F5005F15D072B1012A0CD0022A0AD0F1
:1003F000032A09D104E01AB1012A06D0022A03D146
:10040000C96AC90100D5012010BDC96AA142FAD04C
:1004100010BD002AF7D0012AF2D0022AF3D0032A15
:10042000F3D010BD70470000014800F0FAB9000099
:10043000740000202DE9F041044621B14FF4006022
:10044000E060C000A060E0690026002861D0354669
:100450002068402702683A490A40D4E90213194348
:10046000294341F4007111430160206805680120AF
:1004700000F0C4F92068056020684760206845687E
:10048000012000F0BBF92068456020688660206884
:10049000C660206881694FF64172114041F08001C9
:1004A000816120688569012000F0A8F920688561D4
:1004B0002068C6612068C569012000F09FF92068A6
:1004C000C561206800F5805081691E4A11401E4AAE
:1004D0000A438261206800F580508569012000F0A0
:1004E0008DF9206800F5805085612068174900F576
:1004F00080500160206800F580500568012000F000
:100500007DF9206800F580500560A069012803D0BE
:1005100009E04FF480659BE7206800F58050C169D1
:100520000B4A1143C16160690A4A818811640178EC
:10053000D0F8010041EA00205064BDE8F0810000DD
:100540000F8120FF233FDEF8040020028020C1023B
:1005500040000100008002404FF4007000F086BBB4
:10056000704790F83510022903D0802141650120A1
:100570007047052180F835100068016821F00101FD
:1005800001600020704700002DE9F84304464FF059
:100590000009CDF8009063484FF41651A56D00682E
:1005A000B0FBF1F72E6894F85C20082101FA02F004
:1005B00030420FD02068026852070BD5026822F043
:1005C0000402026094F85C008140A960606D40F014
:1005D0000100606594F85C104FF0010808FA01F022
:1005E000304208D021684969090604D5A860606DC9
:1005F00040F00200606594F85C10042088403042AE
:1006000008D021680968890704D5A860606D40F0AA
:100610000400606594F85C1010208840304218D0C7
:1006200021680968090714D5A86020680168490392
:1006300004D50068000308D5A16C07E00168C9056E
:1006400003D4016821F008010160216C09B1204642
:10065000884794F85C1020208840304231D02168CF
:100660000968C9062DD5A86094F8350005282068CA
:10067000016806D0490347D5006800031DD4616CAA
:100680001CE021F0160101602068416921F0800121
:100690004161206C08B9A06C20B12068016821F08C
:1006A0000801016094F85C103F208840A86084F83D
:1006B000349084F83580216D1FE0E16B09B120464C
:1006C0008847606D00282BD0606DC00714D00520CE
:1006D00084F835002068016821F00101016000986C
:1006E000401C0090B84203D820680068C007F6D1CB
:1006F00084F8349084F83580E16C002910D001B082
:100700002046BDE8F04308470168C905D5D4016813
:1007100021F01001016084F8349084F83580CCE732
:10072000BDE8F883100000202DE9F041044600F0F8
:100730008FFB05465CB1002684F83460022084F803
:1007400035002068016821F0010101600DE0012001
:10075000BDE8F08100F07CFB401B052805D9202076
:100760006065032084F83500F2E720680068C00760
:10077000F0D121680A6820480240D4E901031843F7
:10078000D4E903352B43184363691843A36918431D
:10079000E3691843236A18431043626A042A03D1A9
:1007A000D4E90B231A431043086020684069656A46
:1007B00020F0070128460D43012704280CD1A06A28
:1007C0000543E06A40B12046FFF702FE20B1402019
:1007D000606584F83570BAE7206845612046FFF708
:1007E000E3FD94F85C203F2191408160666584F8C8
:1007F00035700020ACE700003F8010F070B5044673
:1008000000F026FB0546601C02D004480078044432
:1008100000F01EFB401BA042FAD370BD0400002074
:10082000704770B50446006800F5805041694FF08C
:10083000000649064FF0010508D5204600F0D7F91B
:100840002068402100F58050416109E04069C007FF
:100850000AD0204600F0CCF9206800F580504561B0
:1008600084F8445084F8456020684FF4803100F5E6
:1008700080504161206800F58050406900040CD52B
:100880002046FFF7CDFF20684FF4004100F580506F
:10089000416184F8445084F8456070BD2DE9FC47FF
:1008A0004FF000060400B146009603D094F84400CF
:1008B00018B107E00120BDE8FC8784F845602046B8
:1008C00000F0E0F86548016841F48041016000688B
:1008D00000F4804001906248016821F40001016049
:1008E0000168226A11430160206800F580500168A8
:1008F00041F00101016000F0ABFA05464FF4FA77D0
:1009000008E000F0A5FA401BB84203D9032004F820
:10091000440F67E0206800F580500068C007F0D100
:100920002068006920F01C0500F00AFC4D494E4A81
:100930000144914202D245F0080516E04B494C4A69
:100940000144914202D245F00C050EE049494A4A61
:100950000144914209D3494908444949884202D295
:1009600045F0040501E045F01005206805614FF4ED
:1009700000420021204600F03CF90125A8BBFF20E1
:10098000FFF73CFF606888B300F062FA804641F2EE
:1009900088376A460121204600F0E8F800F058FA4E
:1009A000A0EB0800B84217D800984007F1D54FF4E3
:1009B00080520021204600F01CF9B0B900F048FA3E
:1009C00080466A460121204600F0D0F800F040FA47
:1009D000A0EB0800B8420AD901212046FFF72AFD02
:1009E00004F8445F0320667065E724E018E000988F
:1009F0008006E6D56A461F21204600F0B7F8D0B938
:100A00000098C10603D54FF40061E16000E0E660A4
:100A1000400701D5A66019E04FF48040A06015E0C2
:100A2000E068A168C00840EA510082B20021204677
:100A300000F0DFF830B101212046FFF7FBFC84F81D
:100A4000445037E740F6FF70FFF7D8FE494620468E
:100A5000FFF7F0FC84F8445000202CE744380240B3
:100A60000438014000D3CEFEC0E1E40040F1E9FDCE
:100A700040787D0100796CFC005A6202001F0AFA7E
:100A800080F0FA02F0B587B0044614216846FFF7FB
:100A900041FC3149206888425BD13048002401681C
:100AA00041F000710160016801F000710591016879
:100AB00041F080610160016801F080610591016889
:100AC00041F000610160016801F000610591016879
:100AD00041F004010160016801F004010591016821
:100AE00041F001010160016801F001010591016817
:100AF00041F0020101600068022500F0020005904B
:100B00003E20CDE9000502AA03260B2782E8D0008B
:100B10006946134800F0B6F88F20CDE9000502AA17
:100B2000694682E8D0000F4800F0ACF843F6035065
:100B3000CDE9000502AA694682E8D0000A4800F023
:100B4000A1F8002205213D2000F00EFA3D2000F022
:100B5000FDF907B0F0BD00000080024030380240CF
:100B60000008024000000240000402402DE9F04766
:100B7000044690F84400914682281DD0822084F8D3
:100B80004400206802694FF6FF7502F01C03228AB8
:100B900005EAC2221A434FF4F86303EA81111143B4
:100BA00021F0020141F00105056100F051F906460E
:100BB00001274FF480380FE00220BDE8F08700F0F5
:100BC00047F9801B404505D304F8447F002060703E
:100BD0000320F2E720680569E807F0D12068406942
:100BE00081B2C9F8001084F844700020E5E770472E
:100BF00070472DE9F041044690F8440042281ED089
:100C0000422084F84400206803694FF6FF7603F021
:100C10001C05238A06EAC3232B434FF4F86505EA33
:100C20008111194341F0030591B2416120680561CA
:100C300000F00EF9064601274FF480380FE002203D
:100C4000BDE8F08100F004F9801B404505D304F8AD
:100C5000447F002060700320F2E720680569E80700
:100C6000F0D184F84470EBE770470000044910B5F8
:100C70000A68024202D00860FFF7F6FF10BD0000CC
:100C8000143C01402DE9F84FDFF880B100224FF00D
:100C900003094FF00F0A0BF1040E01250B68954074
:100CA0002B40AB4272D14C68012C05D0022C03D0F2
:100CB000112C01D0122C10D18668540009FA04F7C7
:100CC000BE43CF68A7403743876046680C79AE4380
:100CD000C4F30014944034434460C468570009FAD4
:100CE00007F58E68AC43BE402643C6604C68022CB4
:100CF00001D0122C12D1D40800EB840CDCF8206057
:100D00005407E40E0AFA04F826EA0806D1F810801F
:100D100008FA04F848EA0608CCF820800468AC43D6
:100D20000D7905F00305BD40254305604C68E400DE
:100D300065D5374C256845F480452560246822F048
:100D4000030504F480440094324C2E19D6F8087838
:100D50009407250F0AFA05F4A7432F4CA04201D1AE
:100D6000002424E02D4CA04201D101241FE02C4C92
:100D7000A04201D102241AE02A4CA04201D103244E
:100D800015E0294CA04202D1042410E037E0274CA2
:100D9000A04201D105240AE0254CA04201D106243D
:100DA00005E0244CA04201D1072400E00824AC4017
:100DB0003C43C6F80848DBF800405D464E689C435B
:100DC000F60300D51C432C60DEF8004075464E68E3
:100DD0009C43B60300D51C432C600C4D08352C6891
:100DE0004E689C43F60200D51C432C60074D0C3521
:100DF0002C684E689C43B60200D51C432C60521CE4
:100E0000102AFFF44AAFBDE8F88F0000003C014013
:100E1000443802400030014000000240000402401B
:100E200000080240000C0240001002400014024082
:100E300000180240001C0240426931EA020200D15F
:100E40000904816170470AB1816170470904FBE7B9
:100E50000148806870470000040000200248816853
:100E60000278114481607047040000200B4810B5DF
:100E7000016841F400710160016841F48061016022
:100E8000016841F480710160032000F08DF80020BA
:100E900000F006F800F03EF8002010BD003C0240D3
:100EA00010B5014688B00022192000F05DF8192025
:100EB00000F04CF813480024016841F00101016082
:100EC000006805A900F001000690684600F018F9D6
:100ED00000F04CF90C494000B0FBF1F10C480B4A12
:100EE000491E026040F2E732C0E90324C0E9011460
:100EF00000F070FE10B1012008B010BD044800F0F1
:100F0000A3FEF9E74438024040420F0000000140D0
:100F1000540500200C4882B0016841F48041016012
:100F2000006800F4804000900748001F016841F00D
:100F3000805101600068002200F0805000900F2175
:100F4000901E02B000F010B844380240002809DBBF
:100F500000F01F02012191404009800000F1E020D3
:100F6000C0F8001170470000F0B40E4B1B68C3F3CB
:100F70000223C3F10704042C00D904241D1D072DEE
:100F800001D2002300E0DB1E012606FA04F56D1EE7
:100F90000D409D409E40761E164045EA0601F0BC7D
:100FA00002F0A1B80CED00E0064A00F0070110685D
:100FB0004FF6FF03184040EA012003490843106040
:100FC000704700000CED00E00000FA052DE9F04745
:100FD0000D46040065D0DFF81491D9F80000EFB297
:100FE00000F00F00A84207D289F80070D9F800007D
:100FF00000F00F00A84254D120683D4E810712D561
:10100000400703D5306840F4E05030602078000796
:1010100003D5306840F4604030603068A16820F04B
:10102000F000084330602078C0072DD03049606858
:101030000839012812D0022813D0032811D00968DA
:10104000890700292DDA316821F00301014331605D
:10105000FFF7FEFE804641F2883A0EE009688903F8
:10106000EFE709688901ECE7FFF7F2FEA0EB080162
:10107000514502D90320BDE8F0873068616800F06F
:101080000C00B0EB810FEFD1D9F80010484601F009
:101090000F01A94207D90770006800F00F00A842AD
:1010A00001D00120E7E72078400705D53068E168E6
:1010B00020F4E050084330602078000706D53068FF
:1010C000216920F4604040EAC100306000F05EF821
:1010D0003168084AC1F30311515CC84006490860F1
:1010E00006480068FFF7DCFE0020C4E7003C024031
:1010F00008380240203C00081000002008000020B2
:101100000F2202600C4A136803F003034360136864
:1011100003F0F0038360136803F4E053C3601268C4
:101120004FF4E05303EAD20202610448006800F081
:101130000F0008607047000008380240003C024081
:10114000014800687047000010000020044805496D
:1011500000680968044AC1F38221515CC8407047A5
:101160001000002008380240303C000804480549BF
:1011700000680968044AC1F34231515CC8407047B5
:101180001000002008380240303C0008154810B517
:10119000006810F00C01144813D0144B04290FD030
:1011A00008290ED10F4C241F216801F03F0221684D
:1011B000490207D52068C0F38810A0FB030106E0B0
:1011C000184610BD2168C1F38811A1FB000100235E
:1011D000FFF756F82168C1F30141491C4900B0FBF3
:1011E000F1F010BD083802400024F40040787D0181
:1011F0002DE9F84F040075D02078DFF828A3C00748
:10120000AAF1040548D00AF104000168C1F3810184
:10121000012908D00068C0F3810002280AD1DAF859
:101220000000400206D52868800335D56068002894
:10123000E1D031E06068B0F5803F10D0B0F5A02F6C
:10124000286810D020F480302860286820F480209E
:1012500028606068A0B1FFF7FBFD06460CE0286837
:1012600040F48030F4E740F480202860F7E7FFF78F
:10127000EFFD801B642871D828688003F7D50BE048
:10128000FFF7E6FD064604E0FFF7E2FD801B642859
:10129000F1D828688003F7D42078DFF88C92800793
:1012A0004FF0000B3DD59F48001D016811F00C0F59
:1012B00008D00068C0F3810002280AD1DAF80000E3
:1012C000400206D42868800715D5E068012809D1B6
:1012D00011E0E068B8B10121C9F80010FFF7B8FDCE
:1012E000064605E01AE1FFF7B3FD801B0228C2D8CD
:1012F00028688007F7D52868216920F0F80040EABF
:10130000C10028600DE0C9F800B0FFF7A1FD064656
:1013100004E0FFF79DFD801B02281FD82868800786
:10132000F7D42078000722D57E4F80486169703756
:1013300071B101210160FFF78BFD064604E0FFF764
:1013400087FD801B022809D838688007F7D50EE092
:10135000C0F800B0FFF77CFD064605E082E0FFF72D
:1013600077FD801B02287DD838688007F7D4207865
:10137000400765D56B484FF000083C300068C0005E
:101380000BD468483C30016841F08051016000682E
:101390004FF0010800F080500090654F3868C0059C
:1013A0000FD4386840F480703860FFF751FD06466E
:1013B00004E0FFF74DFD801B022853D83868C005B4
:1013C000F7D5584FA0686C3701280FD0052838682A
:1013D00010D020F001003860386820F00400386038
:1013E000A068B0B1FFF734FD06460EE0386840F063
:1013F0000100F4E740F004003860F7E7FFF728FD4C
:10140000811B41F28830814263D838688007F5D566
:101410000DE0FFF71DFD064606E0FFF719FD811BF5
:1014200041F28830814254D838688007F5D4B8F149
:10143000000F05D03B483C30016821F0805101602D
:10144000A069B8B33749091D0968C1F381010229B0
:1014500046D00228584606D0C9F86000FFF7F8FCCD
:10146000044639E035E04F46C9F86000FFF7F0FC6C
:10147000064604E0FFF7ECFC801B022829D8286808
:101480008001F7D4D4E907010843A16A294A490831
:1014900002EB0141626A41EA8211084394F82C1080
:1014A00040EA0161CAF8001001203866FFF7D0FC5D
:1014B000044605E034E0FFF7CBFC001B022808D807
:1014C00028688001F7D52BE0FFF7C2FC001B02283B
:1014D00002D90320BDE8F88F28688001F4D41FE00A
:1014E0000128F7D0DAF80000E26900F480019142A7
:1014F00014D1226A00F03F0191420FD147F6C0712A
:10150000626A0140914209D1A26A00F440319142DD
:1015100004D1E16A00F07060884201D00120D9E76F
:101520000020D7E70438024000004742800E4742BF
:10153000007000400000FFFF704700002DE9FE43EF
:10154000044603200D4684F83400606C03285CD008
:10155000B5F5805F59D04FF4006600274FF08068E2
:10156000B5421ED1009701970021206800F058FF76
:10157000800113D46946204601F05AFA06000DD1C5
:101580000198400333D5B4F850000104206800F0FE
:1015900083FF060002D10221206822E0A06B3043C5
:1015A00027E01DB1A06B40F0006022E0009701979A
:1015B0000021206800F034FF8001EFD46946204606
:1015C00001F036FA0600E9D10198C0030FD5B4F84E
:1015D00050000104206800F05FFF0600DED100210A
:1015E000206800F0A3FF0600D8D13E46D6E7464665
:1015F000D4E7A063A06B012658B121680C4888632A
:1016000084F834600120BDE8FE83A06B40F0805078
:10161000EFE7211DD4E905070EC9CDE90050029777
:10162000206800F007FF84F834600020EBE700003A
:10163000FF05400070470000F0B5426E920F0A703F
:10164000426EC2F383624A70426EC2F301628A70D4
:10165000426E120CCA70B0F86420120A0A7190F837
:1016600064204A71826E120DCA80826EC2F30342F8
:101670000A72B0F86820C2F3C0324A72B0F868202B
:10168000C2F380328A72B0F86820C2F34032CA7264
:10169000B0F86820C2F300320A7300264E73436C20
:1016A0004FF40075012463B1012B3AD00268474919
:1016B0009163816B41F08051816380F83440012057
:1016C000F0BDB0F86820C36E9205120D42EA937225
:1016D0000A61C26EC2F3C2620A75C26EC2F30262CE
:1016E0004A75C26EC2F342528A75C26EC2F382421A
:1016F000CA75C26EC2F3C2320A760B695B1C4365BF
:101700000A7E02F00702921C934043650A7A02F0B7
:101710000F0704FA07F28265520A5343C0E91735EE
:101720000EE090F86820C36E9206920A42EA1342D5
:101730000A610A69521C93024365C0E916530566A3
:1017400030F86C2FC2F3803201F8192F0288C2F3EF
:10175000C6124A70027802F07F028A704268D20F85
:10176000CA704268C2F341720A714268C2F382626F
:101770004A714268C2F383528A714268C2F340528E
:10178000CA710E724268C2F300424A728288C2F382
:10179000C0328A728288C2F38032CA728288C2F3EF
:1017A00040320A738288C2F300324A738288C2F3DD
:1017B00081228A738288C2F30122CA730079C0F33E
:1017C000460008744C740020F0BD0000FF05400086
:1017D00038B5002504460095B0F850000104206893
:1017E00000F07AFF28B90021206800F019FE00906F
:1017F000284610B1A16B0143A1630098C0F34320B8
:1018000038BD0000F8B5056B04460068416B09045B
:101810001BD5290719D5D4E90A56002E14D0002764
:10182000206800F021FE05F8010B010A05F8011BF4
:10183000010C05F8021B000E361F7F1C05F8010C79
:10184000082FEDD3C4E90A56F8BD416B4FF00007ED
:10185000C9054FF0010644D5310281632068C16B90
:101860004CF23A329143C1632068C16A21F0010110
:10187000C16228071DD515F0220F09D0206800F09D
:101880005BFF28B1A16B0143A1632046FFF7D2FEA5
:10189000216840F23A50886384F834602763A807CF
:1018A00003D0204600F04AF9F8BD204600F047F981
:1018B000F8BD2806FCD5A80609D5206800F03CFF35
:1018C00028B1A16B0143A1632046FFF7B3FEA8072F
:1018D000EED12068C16A21F00801C16284F8346049
:1018E000E3E7416B490423D5290721D5D4E90856FC
:1018F000002EDDD0002715F8010B009015F8011B14
:10190000361F40EA0120009015F8021B40EA014012
:10191000009015F8011C40EA0160009069462068BB
:1019200000F0B5FD7F1C082FE5D3C4E90856F8BDCB
:10193000416B40F23A221142F9D0416B890703D53D
:10194000A16B41F00201A163416B090703D5A16BB3
:1019500041F00801A163416B890603D5A16B41F0F9
:101960002001A163416BC90603D5A16B41F01001B1
:10197000A163416B890503D5A16B41F00801A16307
:1019800040F23A7181632068C16B40F23A32914370
:10199000C163206800F0D0FEA16B0843A063280754
:1019A00006D584F8346027632046FFF743FEF8BD70
:1019B0002806FCD515F0300F0CD0E16B11480865F6
:1019C000E06BFEF7CEFD0028F1D0E06BBDE8F840FB
:1019D00001F00CB8A8070CD0216C0B480865206CEE
:1019E000FEF7BFFD0028E2D0206CBDE8F84000F013
:1019F000DBBFA76384F8346027632046FFF79CFDB4
:101A0000F8BD0000ED290008A929000870B5040000
:101A10000ED094F83400002518B92577204600F040
:101A20003BF8032084F83400204600F00BF808B19E
:101A3000012070BDA5632563012084F834000020D7
:101A400070BD0000FEB50025044676200095CDE966
:101A5000015029460B460A46206800F0EBFC08B10D
:101A60000120FEBD0B4E46F8A05F206800F0F4FC9C
:101A700001253560204601F0BDF820B9204601F06F
:101A800042F80028EDD084F83450A16B0143A163E3
:101A9000E6E7000000802542F0B587B00446142137
:101AA0006846FEF737FC2149206888423BD1204830
:101AB0000025016841F400610160006800F40060E5
:101AC00005901B481438016841F004010160016869
:101AD00001F004010591016841F00801016000680E
:101AE000022600F0080005904FF4F850CDE90006FA
:101AF00003270C240295CDE9037469460D48FFF7CE
:101B0000C1F80420CDE900060295CDE903746946C9
:101B10000948FFF7B7F8002205213120FFF724FA22
:101B20003120FFF713FA07B0F0BD0000002C014090
:101B30004438024000080240000C024070477047E1
:101B40007047704770B590F83C20012A32D00125CB
:101B500080F83C50022280F83D2002685368946867
:101B600023F070060B6833435360134B02689A42AC
:101B700014D0B2F1804F11D0104B9A420ED0104BBE
:101B80009A420BD00F4B9A4208D00F4B9A4205D085
:101B90000E4B9A4202D00E4B9A4204D1496824F06F
:101BA00080031943916080F83D50002180F83C107B
:101BB000084670BD022070BD0000014000040040D6
:101BC00000080040000C00400004014000400140BB
:101BD0000018004010B5040003D094F83D0010B187
:101BE00007E0012010BD002084F83C00204600F0F2
:101BF0000DF8022084F83D00211D206801F0D4F882
:101C0000012084F83D00002010BD000008B50068E8
:101C10000B49884212D10B48016841F01001016064
:101C20000068002200F01000009005213620FFF728
:101C30009BF9BDE808403620FFF788B908BD0000D1
:101C400000100040403802400168CA6842F00102BA
:101C5000CA600068816801F00701062903D00168A5
:101C600041F00101016000207047704770B50446E3
:101C7000006801694FF00005C943890715D4C168A0
:101C8000C943890711D4E91E01610120207720682A
:101C900080698007204602D0FFF7E7FF04E000F0EC
:101CA00098F8204600F096F8257720680169C94326
:101CB000490717D4C168C943490713D46FF0040119
:101CC0000161022020772068806910F4407F20465F
:101CD00002D0FFF7CAFF04E000F07BF8204600F0D6
:101CE00079F8257720680169C943090716D4C168C6
:101CF000C943090712D46FF008010161042020775D
:101D00002068C0698007204602D0FFF7AEFF04E0DC
:101D100000F05FF8204600F05DF825772068016943
:101D2000C943C90617D4C168C943C90613D46FF0A3
:101D300010010161082020772068C06910F4407FFD
:101D4000204602D0FFF791FF04E000F042F8204661
:101D500000F040F8257720680169C943C90708D118
:101D6000C168C943C90704D1891E0161204600F03A
:101D700033F820680169C943090609D4C168C94319
:101D8000090605D46FF0800101612046FFF7D8FEF7
:101D900020680169C943490609D4C168C943490695
:101DA00005D46FF040010161204600F01FF8206863
:101DB0000169C94389060BD4C168C943890607D4A0
:101DC0006FF0200101612046BDE87040FFF7B9BE09
:101DD00070BD70477047000000680349884201D118
:101DE000FFF73CB8704700000000014070477047A3
:101DF00070B5026804461068D168536910F00F0F7F
:101E000053D003F0010501F490762E435FD0C20752
:101E100005D0CA0503D5E26B42F00102E263420736
:101E200005D5DA0703D0E26B42F00202E2638207D3
:101E300005D5DA0703D0E26B42F00402E263020741
:101E400007D501F020022A4303D0E26B42F00802DA
:101E5000E263E26B002A34D0800604D5880602D5FE
:101E6000204601F01BF820684069E16BC0F3801048
:101E700001F008010143204624D001F001F8206858
:101E8000416949061AD5416921F040014161606B01
:101E9000A0B11B490165606BFEF763FB002810D001
:101EA000606B016DBDE87040084783060FD58B0657
:101EB0000DD52046BDE8704000F0F0BF2046FFF78A
:101EC00096FF70BDFFF793FF0020E06370BD03062F
:101ED00006D50B0604D52046BDE8704001F0BEB81B
:101EE0004006F3D54806F1D5D168204621F04001DF
:101EF000D160202184F8391000F0F3F870BD0000A3
:101F0000712E000870B5040004D094F83900002543
:101F100010B106E0012070BD84F83850204600F072
:101F200023F8242084F839002068C16821F4005186
:101F3000C160204600F0FEFF2068016921F4904155
:101F400001612068416921F02A0141612068C1686E
:101F500041F40051C160E563202084F8390084F821
:101F60003A00002070BD00002DE9F04186B0044623
:101F700014216846FEF7CEF951482168514A0223E0
:101F800003260727002581424FD14E4814300168AF
:101F900041F010010160006800F010000590106829
:101FA00040F0010010601068694600F001000590E3
:101FB00070028DE8E9004448FEF764FE444E434851
:101FC0004FF000673060C6E901754FF48068C6E9DC
:101FD00003587561B561F561356230467562FEF78B
:101FE000A3FB08B1FEF7BCFA6663B463384E37480A
:101FF00060367830E6E802074020A6E82101344840
:1020000046F814596030B561F56135627562FEF7C6
:102010008BFB08B1FEF7A4FA2663002205212520D8
:10202000B463FEF7A1FF252022E0264CDFF8A4C010
:1020300010342948614520D1216841F400312160E4
:10204000216801F400310591116841F00801116027
:10205000116801F00801059160218DE8EA006946E8
:10206000FEF710FE002205212620FEF77DFF262028
:10207000FEF76CFF06B0BDE8F081DFF860C0614597
:10208000F8D1216841F480212160216801F4802188
:102090000591116841F008011160116801F0080113
:1020A00005914FF440718DE8EA006946FEF7EAFDBC
:1020B000002205212720FEF757FF2720D8E7000040
:1020C00000100140303802400000024040640240ED
:1020D0009404002000440040000C024000480040EE
:1020E00070477047FEE700000D4808B5016841F4ED
:1020F000800101600068002200F48000009005214A
:102100003A20FEF731FF3A20FEF720FF002205219A
:102110004620FEF729FFBDE808404620FEF716BF1F
:1021200030380240114810B50F490122C0E90012B1
:1021300002824369002119704469802363704469F5
:10214000E123A3704369D9704369197143695971D7
:10215000C0E906210162FEF7A1FB002803D0BDE81B
:102160001040FEF7FDB910BD008002407400002051
:1021700000B587B01C2206496846FEF7B2F8002178
:10218000684600F0FAFF0349086007B000BD000090
:10219000FC3B0008000000202DE9F04387B014212B
:1021A0006846FEF7B7F83F480024016841F0040193
:1021B0000160016801F004010591016841F08001AE
:1021C0000160016801F080010591016841F00101A1
:1021D0000160016801F001010591016841F002010F
:1021E0000160016801F002010591016841F01001F0
:1021F0000160016801F010010591016841F00801DA
:1022000001600068284F00F008004FF4E045059099
:10221000002229463846FEF716FEDFF89080BE14ED
:10222000002231464046FEF70EFEDFF88490002281
:1022300011214846FEF707FE00950125CDE901541E
:10224000694638460394FEF71DFDE8038DE831002A
:1022500069463846FEF716FD0096CDE901546946F9
:1022600040460394FEF70EFD11200090CDE9015485
:10227000694648460394FEF705FD680200900D4844
:10228000CDE9010469460C48FEF7FCFC002205215B
:102290001720FEF769FE1720FEF758FE07B0BDE8CD
:1022A000F08300003038024000100240000002407D
:1022B000000C024000001110000402400F4810B54D
:1022C0000D490160002141608160C160016141618F
:1022D00003218161FFF79AFB08B1FEF741F94FF442
:1022E00000610648FFF72AF9002803D0BDE8104036
:1022F000FEF736B910BD0000002C0140100300208D
:102300001CB500240F4800940D490194016040F26F
:102310004731C0E9011409218461C160FFF75AFC0B
:1023200008B1FEF71DF92020CDE9000469460548F3
:10233000FFF708FC002801D0FEF712F91CBD0000D1
:1023400000100040940300200C4810B50A490160B9
:102350004FF4E1314160002181600C22C160C0E98D
:1023600004128161C161FFF7CDFD002803D0BDE8F3
:102370001040FEF7F5B810BD00100140D403002056
:102380000C4810B50A4901604FF4E1314160002169
:1023900081600C22C160C0E904128161C161FFF754
:1023A000B1FD002803D0BDE81040FEF7D9B810BD3C
:1023B00000440040140400200C4810B50A49016094
:1023C0004FF4E1314160002181600C22C160C0E91D
:1023D00004128161C161FFF795FD002803D0BDE8BB
:1023E0001040FEF7BDB810BD004800405404002066
:1023F000FEE770470A6842624A688262D1E90223B6
:102400001A43D1E904310B43C16A1A4321F0F701A1
:102410001143C16200207047006800F0030070475C
:1024200008444069704700000148FFF7EBB900001D
:102430001003002070B50DF1100C11439CE87000E2
:102440002343194329434268314347F6FF639A43C4
:102450000A434260002070BD10B5032101600220D4
:10246000FEF7CCF9002010BDD0F8800070470A6854
:102470008260D1E901231A43D1E903310B43C168DA
:102480001A436FF30B011143C160002070470968C4
:10249000C0F880100020704710B586B00446009147
:1024A0003721019140210020CDE90210080104905C
:1024B00069462046FFF7DBFF41F28832372120468C
:1024C00000F054F906B010BD10B50B4A86B00446B2
:1024D00011432920CDE900104020029000200390F4
:1024E000500D049069462046FFF7C1FF204600F0DA
:1024F000F5F906B010BD00000000108010B586B0E0
:10250000044600911021019140210020CDE90210E4
:102510000801049069462046FFF7A9FF41F288327E
:102520001021204600F022F906B010BD10B586B08B
:10253000044600910621019140210020CDE90210BE
:102540000801049069462046FFF791FF41F2883266
:102550000621204600F00AF906B010BD30B585B05E
:1025600000250446009501954FF480600295CDE961
:10257000035069462046FFF77AFF0B484FF4FA51A3
:102580000068B0FBF1F141F288304143491E02D2AC
:102590004FF0004504E0606B0006F7D5C520A0634E
:1025A00005B0284630BD00001000002070B585B091
:1025B00004464FF4D570009008204026CDE901066E
:1025C0000025C001CDE9035069462046FFF74FFFC3
:1025D00012484FF4FA510068B0FBF1F141F2883033
:1025E0004143491E02D24FF0004514E0606B10F0E9
:1025F000450FF6D00005F4D4606B400701D50425E3
:1026000003E0606BC00702D00125A56303E0606BA7
:10261000400600D5A66305B0284670BD1000002016
:1026200010B586B00446072140200092CDE9011084
:10263000002003904FF48060049069462046FFF725
:1026400016FF41F288320721204600F08FF806B0CD
:1026500010BD10B586B0002102220446C020CDE98D
:102660000201CDE900125002049069462046FFF7AE
:10267000FEFE204600F00AF906B010BD10B586B087
:102680000446009109210191C0210020CDE90210EA
:102690004FF48060049069462046FFF7E8FE20462C
:1026A00000F0F4F806B010BD10B586B00021044665
:1026B00040203322CDE90201CDE90012000104904F
:1026C00069462046FFF7D3FE41F288323321204687
:1026D00000F04CF806B010BD10B586B0044600916D
:1026E0000D21019140210020CDE902100801049044
:1026F00069462046FFF7BBFE41F288320D21204695
:1027000000F034F806B010BD30B585B005460023A2
:102710000320CDE900304020CDE9020300010C4642
:10272000049069462846FFF7A2FE22460321284668
:1027300000F0F6F805B030BD10B586B000210446B3
:1027400040200C22CDE90201CDE9001200010490E5
:1027500069462046FFF78BFE034A0C21204600F015
:1027600005F806B010BD000000E1F505454B10B5B9
:102770001B684FF4FA54B3FBF4F353435B1E02D2CD
:102780004FF0004010BD426B12F0450FF6D012051D
:10279000F4D4426B520703D504218163084610BD6F
:1027A000426BD20702D00121816305E0C52282631A
:1027B0000269D2B28A4201D0012010BD0021FFF788
:1027C0002FFE3149084201D1002010BD002802DA55
:1027D0004FF0007010BD410001D5402010BD8100B8
:1027E00001D5802010BDC10002D54FF4807010BD0E
:1027F000010102D54FF4007010BD410102D54FF424
:10280000806010BDC10102D54FF4006010BD01020F
:1028100002D54FF4805010BD410202D54FF4005054
:1028200010BD810202D54FF4804010BDC10202D517
:102830004FF4004010BD410302D54FF4003010BDED
:10284000810302D54FF4802010BDC10302D54FF49F
:10285000002010BD010402D54FF4801010BD4104CA
:1028600002D54FF4001010BD810402D54FF4800052
:1028700010BD000702D54FF4000010BD4FF48030AA
:1028800010BD00001000002008E0FFFD12494FF4C9
:10289000FA520968B1FBF2F241F288314A43521E02
:1028A00002D24FF000407047416B11F0450FF6D057
:1028B0000905F4D4416B490703D504218163084617
:1028C0007047416BC90703D00121816308467047F7
:1028D000C521816300207047100000200F494FF48C
:1028E000FA520968B1FBF2F241F288314A43521EB2
:1028F00002D24FF000407047416B11F0450FF6D007
:102900000905F4D4416B490703D5042181630846C6
:102910007047C5218163002070470000100000202F
:1029200030B5204B4FF4FA541B68B3FBF4F441F27A
:1029300088335C43641E02D24FF0004030BD436BCD
:1029400013F0450FF6D01B05F4D4436B5B0703D59A
:1029500004218163084630BD436BDB0702D00121AF
:10296000816303E00369DBB28B4201D0012030BDFB
:10297000C52181630021FFF753FD10F4604F04D09F
:10298000410406D54FF4005030BD000C10800020EB
:1029900030BD000402D54FF4805030BD4FF480307C
:1029A00030BD00001000002010B5846B40F23A509A
:1029B000216888632046FEF70BFF012184F834105C
:1029C00000212163062801D0052805D12068FFF7E2
:1029D000B3FEA16B0843A063A06B0028204602D081
:1029E000FEF728FE10BDFEF7A7FD10BD10B5846BE5
:1029F00040F23A50216888632046FEF7E9FE012143
:102A000084F8341000212163062801D0052805D15F
:102A10002068FFF791FEA16B0843A063A06B00281C
:102A2000204602D0FEF706FE10BDFEF785FD10BD64
:102A30002DE9F04F89B00E460446FEF709FA00254D
:102A4000074606950795A84608212068FFF756FD1A
:102A5000002835D1B4F8500001042068FFF71CFDB0
:102A600000282DD1401E4FF00809CDE90009302083
:102A70004FF0020ACDE9020A0120CDE9048069463F
:102A80002068FFF7B7FC2068FFF70EFE002817D17B
:102A90000DF1180840F22A4B2068416B11EA0B0F28
:102AA00011D1416B890204D5FFF7DEFC48F82500FF
:102AB0006D1CFEF7CDF9C01B401CEDD14FF000405E
:102AC00009B0BDE8F08F416B090703D5C0F8389015
:102AD0000820F5E7416B890703D5C0F838A002202C
:102AE000EEE7416B890603D5202181630846E7E7BD
:102AF00040F23A518163079800BA3060069800BAF4
:102B000070600020DCE710B590B004460120ADF8FD
:102B100038002068FFF780FC002854D0606C032840
:102B200042D02068FFF795FD00284AD10021206897
:102B3000FFF776FC606704212068FFF771FCA0674F
:102B400008212068FFF76CFCE0670C212068FFF784
:102B500067FCC4F88000606C032825D00EA92068AB
:102B6000FFF7D2FD00282CD1606C03281CD0BDF8E3
:102B70003800206501042068FFF780FD002820D17F
:102B800000212068FFF74CFC606604212068FFF7F5
:102B900047FCA06608212068FFF742FCE0660C2194
:102BA0002068FFF73DFC206704212068FFF738FC10
:102BB000000DE06403A92046FEF73EFD30B14FF062
:102BC000805010B010BD4FF08060FAE7B4F85000AC
:102BD000002302042068FFF723FD0028F1D104F14F
:102BE000100007C88DE8070094E80F00FFF722FCEB
:102BF0000020E6E72DE9F84F002604460096374608
:102C000035460068FFF7AAFC002827D12068FFF7A7
:102C1000CDFC4FF0805B4FF001094FF6FF7848B1D3
:102C2000A6642068FFF79AFC002817D1A06C012841
:102C300002D01FE0C4F8489000212068FFF72CFC68
:102C400058B917E000212068FFF726FC002805D1BD
:102C500051462068FFF738FC10B15846BDE8F88FA0
:102C600000212068FFF7DCFB0746C50F0098401CD9
:102C7000009001E0DFF824A00099414501D2002D29
:102C8000E0D0414502D34FF08070E7E7780002D5ED
:102C9000C4F8449000E066640020DFE7000010C143
:102CA000064D4FF400544FF4967621462846FEF721
:102CB000C3F8304600F055FAF7E700000010024074
:102CC00010B5502080F31188BFF34F8FBFF36F8F83
:102CD00000F0CEFE18B104494FF08050086000208B
:102CE00080F3118810BD000004ED00E030B593B012
:102CF00030216846FDF70EFB14210CA8FDF70AFBF6
:102D00001A480025016841F080510160006800F018
:102D1000805011901648016841F4804101600068BC
:102D2000022400F4804011900120009000040190E2
:102D30008001CDE90640192008904FF4A870CDE934
:102D4000090407200B906846FEF752FA0CA90F20E1
:102D500081E831004FF4A0500F90E002109005215F
:102D60000CA8FEF733F913B030BD00004038024024
:102D7000007000400548016841F47001016003499A
:102D80004FF00060803908607047000088ED00E077
:102D90000148FEF76BBF0000540500200148FEF714
:102DA00065BF000094030020F0B50268254D264E53
:102DB000264FDFF89CC0274B4FF0804EA84209D029
:102DC000704507D0B04205D0B84203D0604501D06D
:102DD000984203D122F070044A682243A8421BD0D3
:102DE000704519D0B04217D0B84215D0604513D005
:102DF000984211D0184CA0420ED0184CA0420BD0D3
:102E0000174CA04208D0174CA04205D0164CA04247
:102E100002D0164CA04203D122F44074CA68224367
:102E20004C6922F08002224302608A68C2620A680A
:102E30008262A84201D0984201D10969016301214F
:102E40004161F0BD00000140000400400008004066
:102E5000000C0040000401400040014000440140DB
:102E60000048014000180040001C004000200040C5
:102E700010B5806B0021C185C184FEF7B8FF10BD7D
:102E80000168CA6822F49072CA6001684A6922F037
:102E900001024A61202180F83A10704710B590F87D
:102EA0003A10222901D0022010BD8168B1F5805F5F
:102EB00011D00169002901681FD0496801F07F0322
:102EC000816A4A1C82620B70C18D491E0904090C7B
:102ED000C18518D02BE00269816A002A0268526815
:102EE00005D0D2B20A80816A491C8162ECE7C2F344
:102EF00008020A80816A891CF7E74A68816A4B1CCC
:102F000083620A70E0E70168CA6822F02002CA60A2
:102F10000168CA6822F48072CA6001684A6922F0B6
:102F200001024A61202180F83A10FFF7D9F8002009
:102F300010BD00002DE9F041044600680169E26817
:102F400021F4405111430161A1682069E269014304
:102F50006069104301432068C26849F20C639A43D8
:102F60000A43C26020684169A26921F4407111439B
:102F70004161E069192764253226B0F5004F354AD2
:102F8000354920684FF0000806D0884201D09042B1
:102F900036D1FEF7EBF835E0884201D0904202D1FD
:102FA000FEF7E4F801E0FEF7D1F861684A18A0FBEB
:102FB000070148EB0803FDF763F90146B0FBF5F0A4
:102FC0000201B1FBF5F06FF01803584301EB8000EC
:102FD00006EBC000B0FBF5F000F0F80002EB400299
:102FE000B1FBF5F0584301EB800006EBC000B0FBED
:102FF000F5F000F00700216810448860BDE8F0811A
:10300000FEF7A4F801466068830F8200A1FB070168
:10301000FDF736F90146B0FBF5F06FF018025043AA
:1030200001EB800006EB0010B0FBF5F000F0F002C1
:10303000B1FBF5F002EB0012B1FBF5F06FF01803F5
:10304000584301EB800006EB0010B0FBF5F000F0F8
:103050000F00D0E7001401400010014090F8391033
:10306000212901D0022070478168B1F5805F016A93
:103070000BD04A1C0262026809785160C18C491E5B
:103080000904090CC1840ED017E009880268C1F355
:103090000801516001690029016A02D0491C0162DE
:1030A000ECE7891CFBE70168CA6822F08002CA606D
:1030B0000068C16841F04001C16000207047000015
:1030C0000148FEF795BE0000D40300200148FEF73A
:1030D0008FBE0000140400200148FEF789BE0000E6
:1030E00054040020FEE70907090E002804DB00F164
:1030F000E02080F80014704700F00F0000F1E0209D
:1031000080F8141D704702E008C8121F08C1002A89
:10311000FAD170477047002001E001C1121F002A58
:10312000FBD17047FDF7A2FEFFF7E0FDFFF734F893
:10313000FEF7DAFFFFF7C2F8FFF7E2F8FFF720F932
:10314000FFF702F9FFF738F9FEF7ECFFFFF710F889
:1031500000F00EF8FEE701460020842900D0C81CCC
:10316000704710B500B9012000F01CFB002010BD15
:1031700010B500F03DFB002010BD7FB50D460446A4
:103180004169B0F9080081B1A16971B1FFF7E3FFAE
:10319000D4E905128DE80700D4E900102B46226916
:1031A00000F039FC039004B070BDFFF7D4FF03A911
:1031B000CDE90001208A2B4682B2D4E9001000F04C
:1031C000FDFB012801D00020EDE70398EBE70000AC
:1031D0002DE9F041184E0F46044675693068001D10
:1031E00000F01CFA38B9306890F82C1001208840A3
:1031F000B1698143B161601C07D137B13168BDE865
:10320000F0410E48091D00F04DBA30682C44AC4224
:103210004460316805D2B068BDE8F041091D00F096
:1032200029BA7068091D00F025FA306B844200D27B
:103230003463BDE8F0810000140000207006002017
:103240002DE9F041054600F039FA2E4E3069401C58
:10325000306130682C4F10B1F06940B32DE035601B
:103260003069012829D1002404EB840007EB800099
:1032700000F0F2F9641C072CF6D323488C3000F0E0
:10328000EBF92148A03000F0E7F91F48B43000F016
:10329000E3F91D48C83000F0DFF91B48DC3000F0CE
:1032A000DBF919488C3070601430B06005E030688C
:1032B000E96AC06A884200D83560F06A0121401C82
:1032C000F062E86AB26981401143B16100EB8000AD
:1032D00007EB8000291D00F0E5F900F00FFAF06916
:1032E00000280CD03068E96AC06A884207D20749D2
:1032F0004FF080500860BFF34F8FBFF36F8FBDE872
:10330000F0810000140000209405002004ED00E08E
:1033100010B5044690F8510058B101280CD002288D
:103320000FD0502080F31188BFF34F8FBFF36F8F02
:10333000FEE7206B00F0F6F92046BDE8104000F0F3
:10334000F1B910BD10484FF47051420706D0C01DAE
:103350000D4920F00700411AC1F570510B4A0023B6
:103360000144C2E900030839103A21F00701116055
:103370004B600B600B1AC0E9001393604FF00040E4
:103380005360D06070470000840600206000002079
:10339000134E144DA6F1C8074FF08058DFF848903F
:1033A00011E000F08BF9F068C468201D00F036F9D8
:1033B0002869401E2861E868401EE86000F09EF918
:1033C0002046FFF7A5FFE8680028EAD13868012801
:1033D000F9D9C9F80080BFF34F8FBFF36F8FF2E7C1
:1033E0005C0600201400002004ED00E02DE9F04709
:1033F0009A46DDE9098481466FF00303206B03EBF5
:1034000082021044089D20F00706700707D0502064
:1034100080F31188BFF34F8FBFF36F8FFEE7002754
:1034200061B1002023180A5C83F834200A5C12B1D1
:10343000401C1028F6D384F8437001E084F83470FF
:10344000072D00D30625E562C4E91157201D00F0C1
:103450000EF904F1180000F00AF92461C5F1070023
:103460006462A061E76484F8507052464946304671
:1034700000F0BEF82060B8F1000F01D0C8F800409D
:10348000BDE8F08730B5114900E011460A68824274
:10349000FBD34B685C18844203D1406818444860F1
:1034A000084643681C18944209D1084C103C246813
:1034B000A24209D052681A4442600A681268026047
:1034C000814200D0086030BD0460F9E76000002050
:1034D00006484168096829B14168C968C9684968EE
:1034E000016370474FF0FF31FAE70000140000203D
:1034F00008484068401C4FF0500080F3118804D009
:10350000BFF34F8FBFF36F8FFEE7BFF34F8FBFF354
:103510006F8FFEE7680000202DE9F0410546002688
:1035200000F09CF9314F386808B9FFF70BFFF868D5
:1035300005424BD1C5B3083568070ED005F007002A
:10354000C0F108000544680707D0502080F31188B7
:10355000BFF34F8FBFF36F8FFEE72DB378688542BF
:1035600034D8224910310846046801E02146044657
:103570006068A84202D220680028F7D138688442E7
:1035800024D00E682068086060680836411B102946
:103590000FD96019420708D0502080F31188BFF37B
:1035A0004F8FBFF36F8FFEE710E041606560FFF75C
:1035B00069FF61687868401A7860BA68904200D202
:1035C000B860F86801430020C4E9000100F0B4FAD3
:1035D000700707D0502080F31188BFF34F8FBFF3DF
:1035E0006F8FFEE73046BDE8F081000050000020FC
:1035F00010B5031F4FF080741C601B1F21F00101E8
:103600001960191F044B0B6014390A60091F6FF011
:10361000020244380A6010BDF1340008D0E90132DA
:1036200001699A60D0E901235A604A68824201D157
:1036300082684A60002202610868401E08600868CB
:1036400070470000034B036003F1540008608020C2
:1036500010607047BC00002000F108014FF0FF32FD
:10366000C0E90112C16001610021016070470021C1
:103670000161704730B50C68621C02D000F108028D
:1036800002E0026904E01A4653681D68A542FAD9AF
:1036900053684B6099608A60516008610168491CF9
:1036A000016030BD42684A6093688B6093685960DE
:1036B000916008610168491C01607047502080F3E7
:1036C0001188BFF34F8FBFF36F8F0A494868401CC2
:1036D000486001280CD10848006810F0FF0F07D09F
:1036E000502080F31188BFF34F8FBFF36F8FFEE739
:1036F000704700006800002004ED00E008494868B9
:1037000028B1401E486001D180F3118870475020D5
:1037100080F31188BFF34F8FBFF36F8FFEE7000078
:103720006800002070B5002827D0144DA0F10804CF
:103730006068E968084207D1502080F31188BFF320
:103740004F8FBFF36F8FFEE722683AB1502080F3AE
:103750001188BFF34F8FBFF36F8FFEE78843606020
:1037600000F07CF860686968084468602046FFF7EC
:1037700089FEBDE8704000F0DFB970BD5000002048
:103780004FF0E02000210161816105494FF47A7218
:103790000968B1FBF2F1491E4161072101617047DF
:1037A0001000002010B5020014D00F48806B38B113
:1037B000502080F31188BFF34F8FBFF36F8FFEE768
:1037C00000F04CF800211046FFF702FD00F0B4F9BC
:1037D000002807D105494FF080500860BFF34F8F94
:1037E000BFF36F8F10BD00001400002004ED00E057
:1037F00010B586B00024039405AA04A903A8049474
:10380000FFF720FFDDE903010094CDE9011000235B
:103810000EA11048059A00F0FEF80F4900284863F1
:1038200011D0502080F31188BFF34F8FBFF36F8FFB
:103830004FF0FF3008630120C8614C6106B0BDE85D
:10384000104000F041B806B010BD000049444C459E
:103850000000000091330008140000200248816B32
:10386000491C81637047000014000020144A906BCB
:1038700010B10120506270470020506290691149D8
:10388000B0FA80F0C0F11F0000EB800051F820304A
:103890006BB101EB800000F10803416849684160A9
:1038A000994201D149684160C86810607047502052
:1038B00080F31188BFF34F8FBFF36F8FFEE70000D7
:1038C00014000020940500201CB537480168374AD1
:1038D000914207D1502080F31188BFF34F8FBFF37F
:1038E0006F8FFEE700683149491E884207D150209A
:1038F00080F31188BFF34F8FBFF36F8FFEE72C4922
:1039000008780190FF20087008788DF800009DF875
:1039100000009DF8002000F0F000904207D05020F9
:1039200080F31188BFF34F8FBFF36F8FFEE79DF8D1
:103930000000204B00F0500018700720986006E04F
:10394000401E98609DF8000040008DF800009DF832
:10395000000000069868F3D4032807D0502080F3B5
:103960001188BFF34F8FBFF36F8FFEE74FF44070A6
:103970009860019808700C482030016841F470018B
:103980000160016841F070410160FFF7F9FE00201D
:103990005860FCF727FC0848016841F0404101608D
:1039A000FCF70CFC00201CBD00ED00E071C20F41D3
:1039B00000E400E06800002034EF00E02DE9FF5F44
:1039C0008346DDE90E87994616468A469000FFF742
:1039D000A3FD05001CD05420FFF79EFD040014D069
:1039E0000020256384F85100CDE90240CDE900872D
:1039F0004B46324651465846FFF7F8FC2046FFF743
:103A00001FFC012004B0BDE8F09F2846FFF78AFEA6
:103A10004FF0FF30F6E7F0B585B00546DDE90B0461
:103A20000A9EA8B1E4B1542700972063022084F8CD
:103A300051000020CDE9024004AF2846CDE90067DF
:103A4000FFF7D4FC2046FFF7FBFB049805B0F0BD60
:103A5000502080F31188BFF34F8FBFF36F8FFEE7C5
:103A6000502080F31188BFF34F8FBFF36F8FFEE7B5
:103A70002DE9F0412E4F0026B86B40B1386A401C4A
:103A80003862786A00B101263046BDE8F0817D6970
:103A90006D1C7D6113D17868006838B1502080F3C7
:103AA0001188BFF34F8FBFF36F8FFEE77868B96857
:103AB0007960B860B86A401CB862FFF709FD386BDE
:103AC000DFF87080854209D37868006880B1786833
:103AD000C068C468606885420DD238633868C06ABF
:103AE00000EB800158F821000128CAD90126C8E757
:103AF0004FF0FF30F1E7201DFFF790FDA06A18B1ED
:103B000004F11800FFF78AFDE06A0121BA698140DB
:103B10001143B96100EB800108EB8100211DFFF723
:103B2000C1FDE06A3968C96A8842CDD30126CBE776
:103B300014000020940500202DE9F0472C4D0024AE
:103B40002746A86B38B1FFF7B9FDA86B401EA863E4
:103B5000A86B40B146E0502080F31188BFF34F8F2F
:103B6000BFF36F8FFEE7286922490126D0B3A1F188
:103B7000B4098846D8F80010E9B1D8F80C00C46838
:103B800004F11800FFF74AFD201DFFF747FDE06A2A
:103B9000AA6906FA00F11143A96100EB800109EB63
:103BA0008100211DFFF77EFDE06A2968C96A88420D
:103BB000E0D36E62DEE70CB1FFF78AFC2C6A3CB101
:103BC000FFF756FF00B16E62641EF9D10020286233
:103BD000686A38B10849012738070860BFF34F8F7A
:103BE000BFF36F8FFFF78AFD3846BDE8F08700000E
:103BF000140000204806002004ED00E0383C0008D6
:103C0000A12C00080000000000000000800000005F
:103C1000000000000000000000061016000610164C
:103C2000000000000000000001020304060708096C
:103C3000000000000102030464656661756C745441
:103C400061736B00643C00080000002074000000F9
:103C500006310008D83C000874000020144600001B
:103C600016310008000000000100000010000000F4
:103C7000000000000024F40000000000000000002C
:103C80000000000000000000000000000000000034
:103C90000000000000000000000000000000000024
:103CA0000000000000000000000000000000000014
:103CB0000000000000000000000000000000000004
:103CC00000000000000000000000000000000000F4
:083CD000AAAAAAAA0000000044
:040000050800018965
:00000001FF
