:020000040800F2
:10000000288100205D02000825320008F52E000836
:1000100021320008F10300086146000800000000DA
:100020000000000000000000000000009D0100082A
:10003000F304000800000000F9010008E93E000890
:1000400077020008770200087702000877020008AC
:10005000770200087702000877020008770200089C
:10006000770200087702000877020008770200088C
:10007000770200087702000877020008770200087C
:10008000770200087702000877020008770200086C
:10009000770200087702000877020008410800088C
:1000A00077020008ED3F0008770200087702000899
:1000B000770200087702000877020008770200083C
:1000C000770200087702000877020008770200082C
:1000D00077020008314600084146000851460008F2
:1000E000770200087702000877020008770200080C
:1000F00077020008770200087702000877020008FC
:1001000077020008713200087702000877020008C1
:100110007702000877020008FD3F00087702000818
:100120007702000877020008F5030008770200084C
:1001300077020008810500087702000877020008AE
:1001400077020008770200087702000877020008AB
:10015000770200087702000805040008770200080B
:10016000770200087702000877020008770200088B
:1001700077020008770200087702000800000000FC
:100180007702000877020008DFF80CD000F01EF9B3
:1001900000480047994C0008288100202C4B196822
:1001A0000868B0E8F04F80F30988BFF36F8F4FF015
:1001B000000080F3118870470000000008480068C4
:1001C000006880F308884FF0000080F3148862B65E
:1001D00061B6BFF34F8FBFF36F8F00DF00BF00BF6B
:1001E00008ED00E0DFF80C00016841F470010160E7
:1001F000704700BF88ED00E0EFF30980BFF36F8F19
:10020000134B1A681EF0100F08BF20ED108A20E96A
:10021000F04F106009B44FF0500080F31188BFF325
:100220004F8FBFF36F8F09F065F84FF0000080F338
:10023000118809BC19680868B0E8F04F1EF0100F6B
:1002400008BFB0EC108A80F30988BFF36F8F704746
:1002500080000020EFF305807047000006488047CB
:1002600006480047FEE7FEE7FEE7FEE7FEE7FEE79B
:10027000FEE7FEE7FEE7FEE7D13F00088901000840
:100280002DE9F05F0546002092469B4688460646CB
:10029000814640241BE0284641464746224600F05E
:1002A00084F853465A46C01A914110D31146184655
:1002B000224600F06BF82D1A67EB01084F462246E4
:1002C0000120002100F062F817EB00094E41201ECA
:1002D000A4F10104DFDC484631462A464346BDE826
:1002E000F09F10B5431A934209D28318881803E08F
:1002F00010F8011D03F8011D521EF9D210BD40EA8D
:1003000001039B0703D009E008C9121F08C0042A93
:10031000FAD203E011F8013B00F8013B521EF9D27A
:1003200010BDD2B201E000F8012B491EFBD270478C
:100330000022F6E710B513460A4604461946FFF7B1
:10034000F0FF204610BD30B504460020034600E013
:100350005B1C934203D2E05CCD5C401BF8D030BD07
:1003600030B50B46014600202022012409E021FA85
:1003700002F59D4205D303FA02F5491B04FA02F582
:100380002844151EA2F10102F1DC30BD202A04DB55
:10039000203A00FA02F1002070479140C2F1200398
:1003A00020FA03F3194390407047202A04DB203AD7
:1003B00021FA02F00021704721FA02F3D040C2F185
:1003C000200291400843194670470000064C074D33
:1003D00006E0E06840F0010394E807009847103415
:1003E000AC42F6D3FFF7D4FEF8AC000818AD000815
:1003F00000BFFEE710B5024800F036FC10BD00005B
:10040000F83E002010B5024800F02EFC10BD0000A0
:10041000583F00200146087810381823B0FBF3F24B
:100420000848805CC865032A05D908686FF309008D
:10043000001D886503E008686FF309008865886D12
:1004400070470000CCAC0008014600208A6A8B6926
:10045000CBB932B1012A0DD0022A03D0032A10D120
:100460000EE000BFCB6A03F08073B3F1807F00D150
:10047000012007E0CB6AB3F1C07F00D1012001E089
:1004800000E000BF34E08B69B3F5005F1AD132B1F0
:10049000012A07D0022A03D0032A11D10AE000BFA3
:1004A00001200EE0CB6A03F08073B3F1807F00D1AE
:1004B000012006E0CB6AB3F1C07F00D1012000E04B
:1004C00000BF15E032B1012A05D0022A04D0032A68
:1004D0000CD103E000BF00BF012008E0CB6A03F0AD
:1004E0008073B3F1807F00D1012000E000BF00BF26
:1004F0007047704738B50446206800F58050806921
:1005000020F0020000902046009907F0A7F938BDBE
:1005100038B50446206800F58050806940F002003C
:1005200000902046009907F099F938BD38B5044687
:10053000206800F58050806920F40050009020462B
:10054000009907F08BF938BD38B50446206800F5EE
:100550008050806940F4005000902046009907F0D8
:100560007DF938BD38B50446206800F580508069B3
:1005700040F4801000902046009907F06FF938BDD4
:1005800010B5024800F0ACFD10BD0000380A002094
:1005900030B5034654794FF0004545EA04241579F7
:1005A00044EA0500084C0C442064D478240695786D
:1005B00044EA0544557844EA0524157844EA0500E0
:1005C000014C0C44606430BD0080024070B5AEB098
:1005D00004460E46002526B14FF40061E160C900D3
:1005E000A160002011901290139014901590169015
:1005F000E06918B94FF48060179001E0002017906F
:100600004FF400701890002019901A901B901C90C5
:100610001D9040201E9000201F902090219022903D
:1006200023902490259026908020279000202890C9
:1006300029902A902B902C902D9020680568664870
:100640000540DDE911010843139908431499084353
:10065000A16808431599084316990843E1680843BF
:100660001799084318990843199908431A99084398
:100670001B99084305432946204607F002F9DDE9A6
:100680001C0108431E9908431F99084320990843F9
:100690002199084322990843239908432168486017
:1006A00020684568012000F075FC206845602498AA
:1006B0002168886025982168C860206885694FF6A0
:1006C00041700540DDE9261040EA014028990843C1
:1006D000299908432A9908432B9908430543294639
:1006E000204607F0DBF8DDE92C0108432168C861EA
:1006F0002068C569012000F04DFC2068C56100201C
:1007000001904FF000700290002003904FF4001011
:10071000049000200590069007900890042009900E
:10072000C0050A9040120B9080010C9040120D9071
:1007300080200E9000200F901090206800F58050CF
:10074000856926480540DDE901010843039908430E
:1007500004990843059908430699084307990843F3
:10076000089908430999084305432946204607F09C
:1007700075F8DDE90A0108430C9908430D9908430F
:100780000E9908430F9940EA81001099084340F4FC
:100790000001206800F580500160206800F580505D
:1007A0000568012000F0F6FB206800F58050056028
:1007B000A069012809D1206800F58050C069084966
:1007C0000843216801F58051C86100212046626913
:1007D000FFF7DEFE2EB070BD0F8120FF233FDEF855
:1007E0004000010038B504462068006820F004008D
:1007F00000902046009907F044F838BD38B504460B
:100800002068006840F0040000902046009907F03E
:1008100038F838BD70B504462068006820F0080537
:100820002946204607F02DF870BD70B504462068B3
:10083000006840F008052946204607F022F870BD00
:1008400010B54FF4007000F0DFFE10BD70470000DF
:1008500010B548210148FFF76BFD10BDE0000020F6
:1008600010B510B1074C6469046011B1064C64689E
:100870000C6012B1044CA468146013B1024CE4681B
:100880001C6010BD34000020280100202DE9FC4729
:1008900004460D4616461F46DDF828904FF0000826
:1008A00008F0E4FD08B9012000E0002050B900BFC5
:1008B000502080F31188BFF34F8FBFF36F8F00BFBD
:1008C00000BFFEE76848006808B9012000E000208A
:1008D00050B900BF502080F31188BFF34F8FBFF392
:1008E0006F8F00BF00BFFEE76048006808B90120B5
:1008F00000E0002050B900BF502080F31188BFF302
:100900004F8FBFF36F8F00BF00BFFEE700220821AB
:10091000412009F04DF9544908600846006850B973
:1009200000BF502080F31188BFF34F8FBFF36F8F4C
:1009300000BF00BFFEE74C48006800287ED04CA1F5
:100940004948006808F04AF808F0B4FD01287BD156
:10095000E0780006A17840EA0140617840EA012091
:100960002178084344490860E8780006A97840EAFD
:100970000140697840EA0120297808433E494860EF
:10098000F0780006B17840EA0140717840EA012031
:100990003178084338498860F8780006B97840EA29
:1009A0000140797840EA0120397808433249C8602B
:1009B00008460068496808402F49496860EA010014
:1009C0002D49086114222D48FFF78BFC2A48006846
:1009D0002B49486128488068D0B1084640692649BB
:1009E0004968084024498968234A5268114088426E
:1009F00001D1012000E0002050B900BF502080F359
:100A00001188BFF34F8FBFF36F8F00BF00BFFEE7AA
:100A10001B48D9F800100160B9F80410818007F074
:100A200089FE8046B8F1010F1AD110480521002334
:100A3000CA01CDE9001013A1144801E00EE003E063
:100A400009F018FE80460BE000BF00BF06480068B2
:100A500007F0DAFF00200449086001E000BF00BF92
:100A60004046BDE8FC870000040000201000002084
:100A70004E657445766E7400280100203C0100200C
:100A80003400002049502D7461736B00795B0008BD
:100A900010B500240021064809F06AFB012803D0A4
:100AA00001200449086002E000200249086010BDEE
:100AB00070AC00080C0000207CB5054600212A20FF
:100AC00006F0A8FF0446C4B16561204607F054FB58
:100AD00008F0D2FC20B10121204608F0B7FD0CE05F
:100AE00002208DF800000194C11E684609F040FB09
:100AF00010B9204607F0C2FF00BF7CBD7CB505469B
:100B00000A208DF8000001950DB1681C08B9002479
:100B10000AE00021684609F02BFB20B900BF00BFA6
:100B20004FF0FF3400E0012420467CBD02468A429B
:100B300001D3104670470846FCE702468A4201DCB2
:100B4000104670470846FCE702468A4201D8104624
:100B500070470846FCE702468A4201D810467047B3
:100B60000846FCE702465018401EB0FBF1F048432F
:100B700070472DE9F84F8046894615466B462A4650
:100B80004946404604F0DEFB10B94FF0FF3754E011
:100B9000009806F091FE044614B94FF0FF344BE084
:100BA00008F0EEFB060004D1204607F019FE741E83
:100BB00042E020460099FFF7BBFB6660112D03D190
:100BC00004F1300007F072FC04F1080007F07BFC30
:100BD000646141F28830E0612062022084F82600DE
:100BE00084F82750062D27D14FF4916142200153FC
:100BF0004420015342F2107161664FF4916142F258
:100C00001070FFF7AFFFA066606E40084FF491616F
:100C1000B0FBF1FA51460120FFF788FFC4F8C80085
:100C2000A06E40084FF49161B0FBF1FA51460120EB
:100C3000FFF77CFFC4F8CC0027463846BDE8F88FA4
:100C4000014691F83500022803D080204865012034
:100C50007047052081F835000868006820F0010021
:100C60000A6810600020F3E7F8B504460020009001
:100C70008C4800684FF41651B0FBF1F7A56D2E6853
:100C800094F85C1008208840304098B120680068D3
:100C900000F0040070B12068006820F004002168B2
:100CA000086094F85C1008208840A860606D40F0EF
:100CB0000100606594F85C1001208840304068B104
:100CC0002068406900F0800040B194F85C10012079
:100CD0008840A860606D40F00200606594F85C1088
:100CE00004208840304068B12068006800F00200AD
:100CF00040B194F85C1004208840A860606D40F01A
:100D00000400606594F85C1010208840304078B38F
:100D10002068006800F0080050B394F85C101020C0
:100D20008840A8602068006800F4802080B12068B6
:100D3000006800F4002028B9206CC8B12046216C5E
:100D4000884715E0A06C98B12046A16C88470FE059
:100D50002068006800F4807028B92068006820F0DE
:100D6000080021680860206C10B12046216C88477B
:100D700094F85C10202088403040002865D020681E
:100D8000006800F0100000285FD094F85C1020206C
:100D90008840A86094F83500052828D120680068AC
:100DA00020F01600216808602068406920F080006B
:100DB00021684861206C08B9A06C28B120680068DF
:100DC00020F008002168086094F85C103F208840FB
:100DD000A86000BF002084F8340000BF012084F820
:100DE0003500206D10B12046216D8847F8BD206880
:100DF000006800F4802080B12068006800F40020C2
:100E000028B9606C10B12046616C88471DE0E06B2A
:100E1000D8B12046E16B884717E02068006800F4ED
:100E2000807068B92068006820F0100021680860B0
:100E300000BF002084F8340000BF012084F8350092
:100E4000E06B10B12046E16B8847606D38B3606D90
:100E500000F00100F0B1052084F83500206800683A
:100E600020F001002168086000BF0098401C00903D
:100E7000B84200D905E02068006800F001000028B1
:100E8000F3D100BF00BF002084F8340000BF012070
:100E900084F83500E06C10B12046E16C884700BF53
:100EA000A4E700007C0000202DE9F0410446002565
:100EB00000F0C8FC074614B90120BDE8F081606A63
:100EC00000B100BF00BF002084F8340000BF022042
:100ED00084F835002068006820F00100216808606F
:100EE0000AE000F0AFFCC01B052805D92020606592
:100EF000032084F83500E0E72068006800F0010076
:100F00000028EED12068056821480540D4E9010198
:100F10000843E16808432169084361690843A169FE
:100F20000843E1690843216A08430543606A0428CD
:100F300003D1D4E90B01084305432068056020680C
:100F4000456925F00705606A0543606A04280DD1EC
:100F5000A06A0543E06A48B12046FFF775FA28B158
:100F600040206065012084F83500A6E720684561CF
:100F70002046FFF74FFA064694F85C103F20884061
:100F8000B06000206065012084F83500002094E7FF
:100F90003F8010F070B5044600F054FC064625462C
:100FA000681C10B104480078054400BF00F04AFCFA
:100FB000801BA842FAD370BD7800002070B50546AA
:100FC0000C46002600BF95F84500012801D10220FB
:100FD00070BD012085F8450000BF022085F844005F
:100FE000002C63D0286806683B480640D4E900011D
:100FF0000843A1680843E1680843A96808432169D8
:10100000084361690843E9680843A1690843E16945
:101010000843216A0843616A0843A16A08430643FA
:101020003146284606F02DFCD4E90B010843616BDC
:101030000843A16B0843E16B0843216C0843616CD2
:101040000843A16C08432968486028684668012065
:10105000FFF7A0FF28684660E06C29688860206D73
:101060002968C860286886694FF641700640B4F860
:101070005410A06D40EA0140E16D0843216E084321
:10108000616E0843A16E084306433146284606F0C8
:1010900005FCD4E91B0108432968C8612868C669B2
:1010A0000120FFF777FF2868C6610BE02868066813
:1010B00026F49046D5E90201084306433146284606
:1010C00006F0DFFB012085F8440000BF002085F812
:1010D000450000BF00BF7BE70F8120FF7047000085
:1010E00070B5054600BF00BF286800F58050406914
:1010F0000E4900EA0104286800F58050446104F0BC
:10110000C00020B1284600F0A3F900BF00BF04F0E2
:10111000010020B1284600F011FA00BF00BF04F41E
:10112000004010B12846FFF7D9FF70BDFBE701383A
:10113000F8B504460025394E00270CB90120F8BD4A
:1011400094F8440010B9204600F076F800BF002063
:1011500000903348006840F48040314908600846F8
:10116000006800F48040009000BF00BF2D48006878
:1011700020F400002B49086008460068216A0843F3
:1011800028490860206800F58050006840F081011F
:10119000206800F58050016000BF206800F5805095
:1011A000006800F001000028F7D12068056925F0EB
:1011B0001C0500F02DFD06461B48864205D31B4842
:1011C000864202D245F008051AE01848864205D347
:1011D0001248864202D245F00C0511E00F488642C3
:1011E00003D31348864200D20AE01148864205D351
:1011F0001048864202D245F0040501E045F0100592
:101200002068056107F09EF939462046FFF7DEF9B0
:10121000012084F84400002091E700000087930338
:101220004438024004380140002D3101C00E16023E
:1012300000E1F50580D1F00810B586B00446142110
:1012400001A8FFF775F84C49206888427ED100BF9D
:1012500000BF002000904948006840F000704749F6
:1012600008600846006800F00070009000BF00BFF2
:1012700000BF002000900846006840F080600860D1
:101280000846006800F08060009000BF00BF00BF0B
:10129000002000900846006840F0006008600846A2
:1012A000006800F00060009000BF00BF00BF00BFFA
:1012B000002000900846006840F0040008600846DE
:1012C000006800F00400009000BF00BF00BF0020D5
:1012D00000900846006840F0010008600846006879
:1012E00000F00100009000BF00BF00BF0020009090
:1012F0000846006840F0020008600846006800F0F8
:101300000200009000BF00BF3E200190022002902A
:1013100000200390032004900B20059001A9184899
:1013200000F080F98F2001900220029000200390AD
:10133000032004900B20059001A9124800F072F9D7
:1013400043F6035001900220029000E011E00020DB
:101350000390032004900B20059001A90A4800F097
:1013600061F9002205213D2000F01CFB3D2000F02A
:1013700009FB06B010BD000000800240303802407A
:101380000008024000000240000402402DE9F0473E
:1013900004460F4690460025A94694F8440082284A
:1013A00001D1022644E000BF94F84500012802D193
:1013B0000220BDE8F087012084F8450000BF8220AC
:1013C00084F844002068056905F01C05208A4FF464
:1013D000784101EAC0200543481100EA871005431F
:1013E00025F0020545F001052068056100F02AFAA4
:1013F000814613E02068056905F0010028B92068DE
:101400004069C8F80000002609E000F01BFAA0EBD4
:101410000900B0F5803F01D3032600E0EAE700BFF2
:10142000012084F8440000BF002084F8450000BF7C
:101430001EB1314602A003F02BFC3046B9E7000094
:10144000526561645048593A2025640A0000000042
:1014500038B50446002000900C48006840F00100B8
:101460000A4908600A48006870B16946084800687F
:1014700007F062FD009838B14FF0805005490860D0
:10148000BFF34F8FBFF36F8F38BD000054000020B3
:101490006400002004ED00E010B5044600BF94F89D
:1014A0004500012801D1022010BD012084F845002B
:1014B00000BF022084F844002046FFF7B6F920461A
:1014C000FFF79CF92046FFF74DF82046FFF73CF860
:1014D0002046FFF71DF8012084F8440000BF0020DB
:1014E00084F8450000BF00BFDEE710B5044600BF2A
:1014F00094F84500012801D1022010BD012084F894
:10150000450000BF022084F844002046FFF70EF893
:101510002046FEF7EFFF2046FFF764F92046FFF76D
:1015200021F82046FFF776F9012084F8440000BF37
:10153000002084F8450000BF00BFDEE770470000D0
:101540002DE9F04704460F4690460025A94694F839
:101550004400422801D1022644E000BF94F845002F
:10156000012802D10220BDE8F087012084F845005F
:1015700000BF422084F844002068056905F01C057E
:10158000208A4FF4784101EAC0200543481100EA5F
:101590008710054345F0020545F001051FFA88F064
:1015A000216848612068056100F04CF981460FE030
:1015B0002068056905F0010008B9002609E000F07F
:1015C00041F9A0EB0900B0F5803F01D3032600E00C
:1015D000EEE700BF012084F8440000BF002084F83B
:1015E000450000BF1EB1314602A003F051FB30465A
:1015F000B9E7000057726974655048593A2025646C
:101600000A0000007047000010B504460448006856
:10161000204020B1024804602046FFF7F3FF10BDD0
:10162000143C0140F8B502460B460025002400207A
:101630000021DCE0012606FA01F51E6806EA050431
:10164000AC4273D15E68012E08D05E68022E05D0D0
:101650005E68112E02D05E68122E13D190684F0082
:101660000326BE40B0434F00DE68BE40304390606A
:10167000506801268E40B0431E79C6F300168E4096
:1016800030435060D0684F000326BE40B0434F0047
:101690009E68BE403043D0605E68022E02D05E6815
:1016A000122E13D1CF0802F1200656F827004E075C
:1016B000F70E0F26BE40B0434F07FF0E1E69BE4017
:1016C0003043CF0802F1200646F8270010684F008B
:1016D0000326BE40B0431E7906F003064F00BE400D
:1016E000304310605E6806F08056B6F1805F7DD1B1
:1016F00000BF00260096404E366846F480463E4FB6
:101700003E603E46366806F48046009600BF00BF45
:101710003A4E8F0856F827008E07370F0F26BE4027
:10172000B043374EB24202D1002624E05EE0354E8F
:10173000B24201D101261EE0334EB24201D102264F
:1017400019E0324EB24201D1032614E0304EB242CB
:1017500001D104260FE02F4EB24201D105260AE046
:101760002D4EB24201D1062605E02C4EB24201D1E7
:10177000072600E008268F073F0FBE4030431F4E6C
:101780008F0846F82700264E3068A0435E6806F4AE
:101790008036B6F5803F00D12043214E3060361DA3
:1017A0003068A0435E6806F40036B6F5003F00D10D
:1017B00020431B4E361D3060361D3068A0435E68E6
:1017C00006F48016B6F5801F00D12043144E08366B
:1017D0003060361D3068A0435E6806F40016B6F52A
:1017E000001F00D120430E4E0C363060491C1029DA
:1017F000FFF420AFF8BD0000443802400838014033
:10180000000002400004024000080240000C0240B8
:10181000001002400014024000180240001C024068
:10182000003C014042690A408A4202D10A048261B6
:1018300000E0816170470AB1816101E00B048361BE
:1018400070470000014800687047000070000020E9
:101850000348006803490978084401490860704753
:10186000700000207800002010B50D48006840F49A
:1018700000700B4908600846006840F4806008600A
:101880000846006840F480700860032000F0C8F843
:10189000002000F007F800F04BF8002010BD000019
:1018A000003C024070B588B00446002500260022A6
:1018B0002146192000F076F8192000F063F800BFE7
:1018C000002001901648006840F0010014490860AB
:1018D0000846006800F00100019000BF00BF02A9A7
:1018E00003A800F073F900F0A9F945000D48B5FB15
:1018F000F0F0461E0C480D49086040F2E7310B48F5
:10190000C160466000210161816000F0C9FF20B91B
:10191000064801F003F808B070BD0120FBE70000A5
:101920004438024040420F0000000140B83F002010
:1019300008B500BF002000901148006840F48040C6
:101940000F4908600846006800F48040009000BF1E
:1019500000BF00BF00200090081F006840F08050CA
:10196000091F08600846006800F08050009000BF22
:1019700000BF00220F21901E00F014F808BD0000E7
:101980004438024001460846002809DB00F01F03E6
:1019900001229A4043099B0003F1E023C3F8002190
:1019A00000BF70472DE9F05F80460D4616460027C0
:1019B00002F06CFE074639462A46334601F007001E
:1019C000C0F1070ABAF1040F02D94FF0040A01E08E
:1019D000C0F1070AD14600F1040ABAF1070F02D29A
:1019E0004FF0000A01E0A0F1030AD4464FF0010ACB
:1019F0000AFA09FAAAF1010A0AEA020A0AFA0CFA30
:101A00004FF0010B0BFA0CFBABF1010B0BEA030BD4
:101A10004AEA0B042146404602F040FEBDE8F09F32
:101A200000BF00F00702064B19684FF6FF0319408C
:101A3000044B0B4343EA0221014B196000BF70477E
:101A40000CED00E00000FA0570B504460D460CB937
:101A5000012070BD5848006800F00F00A84209D26C
:101A600055490D700846006800F00F00A84201D0EB
:101A70000120EEE7207800F0020002281DD1207836
:101A800000F00400042805D14C48006840F4E05000
:101A90004A490860207800F00800082805D1474826
:101AA000006840F46040454908604448006820F000
:101AB000F000A168084341490860207800F0010067
:101AC000A8B36068012807D13C4808380068C0F313
:101AD0004040B8B90120BCE76068022802D06068C5
:101AE000032807D1354808380068C0F3406048B97A
:101AF0000120AEE7314808380068C0F3400008B95B
:101B00000120A6E72D48006820F003006168084323
:101B10002A490860FFF796FE064609E0FFF792FEA5
:101B2000801B41F28831884202D9032091E707E007
:101B30002248006800F00C006168B0EB810FEDD125
:101B40001D48006800F00F00A84209D91A490D701D
:101B50000846006800F00F00A84201D0012078E795
:101B6000207800F00400042807D11448006820F40D
:101B7000E050E168084311490860207800F008004F
:101B8000082808D10D48006820F46040216940EA27
:101B9000C1000A49086000F061F808490968C1F30A
:101BA0000311074A515CC8400649086006480068AE
:101BB000FFF778FE00204CE7003C02400838024066
:101BC000D4AC00087C000020740000200F220260CA
:101BD0000D4A126802F0030242600B4A126802F0DA
:101BE000F0028260084A126802F4E052C260064ABB
:101BF000126802F46042D2080261044A126802F0DC
:101C00000F020A607047000008380240003C0240A2
:101C100001480068704700007C00002000B5FFF715
:101C2000F7FF04490968C1F38221034A515CC840A7
:101C300000BD000008380240E4AC000800B5FFF722
:101C4000E7FF04490968C1F34231034A515CC840C7
:101C500000BD000008380240E4AC00082DE9F04760
:101C6000002400250026A1462548006800F00C004D
:101C700020B1042805D008283AD105E0DFF8849087
:101C800039E0DFF8849036E01D48001F006800F05E
:101C90003F041B48001F006800F4800078B11A4818
:101CA0001749091F0968C1F38811A0FB017001469B
:101CB000224600233846FEF7E3FA05460EE01148B7
:101CC0000F49091F0968C1F38811A0FB0170014683
:101CD000224600233846FEF7D3FA05460848001F7F
:101CE0000068C0F30140401C4600B5FBF6F902E075
:101CF000DFF8109000BF00BF4846BDE8F087000045
:101D0000083802400024F40040787D01F8B504460C
:101D10000CB90120F8BD207800F00100002874D033
:101D2000F948006800F00C0004280DD0F64800685F
:101D300000F00C00082813D1F348001F006800F4DD
:101D40008000B0F5800F0BD1EF4808380068C0F371
:101D50004040002859D06068002856D10120D9E7BA
:101D600000BF6068B0F5803F08D1E74808380068D8
:101D700040F48030E449083908601EE06068B0F53E
:101D8000A02F0DD1E0480838006840F48020DE49DB
:101D9000083908600846006840F4803008600CE0AC
:101DA000D9480838006820F48030D74908390860DD
:101DB0000846006820F48020086000BF606890B189
:101DC000FFF740FD054606E0FFF73CFD401B642899
:101DD00001D903209EE7CC4808380068C0F3404092
:101DE0000028F1D011E0FFF72DFD054606E0FFF7D2
:101DF00029FD401B642801D903208BE7C24808381D
:101E00000068C0F340400028F1D1207800F00200C3
:101E100002285FD1BC48006800F00C0058B1BA48F5
:101E2000006800F00C0008281CD1B748001F0068AB
:101E300000F48000B0B9B44808380068C0F340002E
:101E400020B1E068012801D0012063E7AE480838DE
:101E5000006820F0F800216940EAC100AA49083969
:101E6000086037E0E06800B30120A8490860FFF788
:101E7000E9FC054606E0FFF7E5FC401B022801D916
:101E8000032047E7A04808380068C0F34000002856
:101E9000F1D09D480838006820F0F800216940EA38
:101EA000C10099490839086014E00020974908608A
:101EB000FFF7C8FC054606E0FFF7C4FC401B0228FC
:101EC00001D9032026E7904808380068C0F3400095
:101ED0000028F1D1207800F0080008282CD1606992
:101EE000A8B101208A490860FFF7ACFC054606E06E
:101EF000FFF7A8FC401B022801D903200AE782480B
:101F00006C300068C0F340000028F1D014E00020DD
:101F10007F490860FFF796FC054606E0FFF792FC54
:101F2000401B022801D90320F4E677486C30006892
:101F3000C0F340000028F1D1207800F0040004280C
:101F400070D1002770483830006800F0805090B998
:101F500000BF002000906C483830006840F080508E
:101F60006949383108600846006800F080500090E8
:101F700000BF00BF01276748006800F48070B0B957
:101F80006448006840F4807062490860FFF75AFCBA
:101F9000054606E0FFF756FC401B022801D9032046
:101FA000B8E65C48006800F480700028F2D000BFFA
:101FB000A068012808D154486830006840F001004A
:101FC0005149683108601DE0A06805280DD14E48D0
:101FD0006830006840F004004B49683108600846EA
:101FE000006840F0010008600CE047486830006875
:101FF00020F001004449683108600846006820F07C
:102000000400086000BFA068A8B1FFF71BFC0546EC
:1020100009E0FFF717FC401B41F28831884202D9E2
:10202000032077E626E0384868300068C0F34000B7
:102030000028EED013E0FFF705FC054608E0FFF7A7
:1020400001FC401B41F28831884201D9032061E63E
:102050002D4868300068C0F340000028EFD1012F00
:1020600007D129483830006820F08050264938319F
:10207000086000BFA069002845D02348006800F030
:102080000C0008285DD0A069022845D100201F4916
:102090000866FFF7D7FB054606E0FFF7D3FB401BBA
:1020A000022801D9032035E6174808380068C0F334
:1020B00040600028F1D1D4E907010843616A40EA91
:1020C00081110122A06AC2EB500041EA00412C209C
:1020D000005D41EA00600C49091F086001200B49BE
:1020E0000866FFF7AFFB054606E0FFF7ABFB401BBA
:1020F000022801D903200DE6034808380068C0F320
:1021000040600028F1D03FE008380240000047421C
:10211000800E47420070004000201C490866FFF70F
:1021200091FB054606E0FFF78DFB401B022801D915
:102130000320EFE516480068C0F340600028F2D1A4
:1021400022E0A069012800D1E4E51148001D0668DD
:1021500006F48001E069814214D106F03F01206A53
:1021600081420FD147F6C0703040616A884209D180
:1021700006F44031A06A814204D106F07061E06A41
:10218000814201D00120C5E50020C3E5000047429F
:10219000003802407047000070B58AB004460D4612
:1021A000032084F83400606C032820D0B5F5805FEC
:1021B00004D1A06B40F08050A0631CE0B5F5006F27
:1021C00007D1204601F023FE0646A06B3043A063F2
:1021D00011E03DB9204601F0E6FD0646A06B304314
:1021E000A06308E0A06B40F00060A06303E0A06B78
:1021F00040F08050A063A06B38B11048216888631C
:10220000012084F834000AB070BD60680490A068B2
:102210000590E0680690079560690890A0690990AC
:1022200007A807C88DE80700206804A90EC901F0B7
:1022300027F8012084F834000020E4E7FF0540007F
:102240007047000010B50246506E800F0870506E47
:10225000C0F383604870506EC0F301608870506EA8
:10226000000CC870B2F86400000A087192F86400AB
:102270004871906E000DC880906EC0F303400872E4
:102280006820805AC0F3C03048726820805AC0F37A
:10229000803088726820805AC0F34030C87268204D
:1022A000805AC0F30030087300204873506C002837
:1022B00036D16820805A8005030DD06E43EA9070B5
:1022C0000861D06EC0F3C2600875D06EC0F30260C2
:1022D0004875D06EC0F342508875D06EC0F382400E
:1022E000C875D06EC0F3C23008760869401C5065CE
:1022F0000B7E506D03F007039B1C01249C40604340
:102300005065087A00F00F03012098409065D2E9EB
:1023100015035B0A5843D0654FF40073136621E040
:10232000506C012813D16820805C8006830AD06E2F
:1023300043EA104008610869401C83025365536DED
:10234000D3654FF400739365936D13660AE02E48CE
:1023500013689863906B40F080509063012082F87E
:10236000340010BD6C20805AC0F3803001F8190F82
:102370006C20805AC0F3C61048706C20805C00F05E
:102380007F008870106FC00FC870106FC0F341706D
:102390000871106FC0F382604871106FC0F38350F2
:1023A0008871106FC0F34050C87100200872106F20
:1023B000C0F3004048727020805AC0F3C030887269
:1023C0007020805AC0F38030C8727020805AC0F3E9
:1023D000403008737020805AC0F30030487370207A
:1023E000805AC0F3812088737020805AC0F3012086
:1023F000C8737020805CC0F34600087401204874E4
:1024000019390020ADE70000FF054000F8B504468B
:10241000002000906946204601F0ADFC054615B14C
:10242000A06B2843A0630098C0F343263046F8BD54
:1024300070B50446256B2068406BC0F3C03030B1E6
:1024400005F0080018B1204601F070FCF8E02068A3
:10245000406BC0F30020002862D04FF480702168E8
:1024600088632068C06B4CF23A3188432168C863A6
:102470002068C06A20F001002168C86205F00800E9
:1024800038B305F0020010B905F0200050B1206803
:1024900001F07EF806462EB1A06B3043A0632046C3
:1024A000FFF7CEFE40F23A5021688863012084F89D
:1024B00034000020206305F0010010B905F002008F
:1024C00018B1204600F08EF9BAE0204600F08BF9F2
:1024D000B6E005F080000028B8D005F0200050B12B
:1024E000206801F055F806462EB1A06B3043A0637A
:1024F0002046FFF7A5FE05F001000028A6D105F053
:1025000002000028A2D12068C06A20F008002168DB
:10251000C862012084F83400204600F064F98FE09E
:102520002068406BC0F3803030B105F0080018B16E
:10253000204601F0A0FC83E02068406B40F23A2185
:10254000084008B1012000E00020002878D0206871
:10255000406BC0F3400018B1A06B40F00200A063D4
:102560002068406BC0F3C00018B1A06B40F00800B9
:10257000A0632068406BC0F3401018B1A06B40F01E
:102580002000A0632068406BC0F3001018B1A06B5E
:1025900040F01000A0632068406BC0F3402018B1E9
:1025A000A06B40F00800A06340F23A702168886395
:1025B0002068C06B40F23A3188432168C8632068C4
:1025C00000F0E6FFA16B0843A06305F0080040B1EE
:1025D000012084F83400002020632046FFF730FEFD
:1025E0002EE005F0800000B305F0100010B905F0F2
:1025F000200050B11348E16B0865E06BFEF720FB4B
:1026000098B1E06B01F0ECF91AE005F0010010B9A7
:1026100005F0020050B10C48216C0865206CFEF7F3
:102620000FFB10B1206C01F0B7F909E00020A063A6
:10263000012084F83400002020632046FFF7AAFD23
:1026400070BD0000E13900089939000810B5044652
:102650000CB9012010BD94F8340020B90020207777
:10266000204600F053F8032084F83400204600F0A0
:102670000BF808B10120EDE70020A06320630120E2
:1026800084F834000020E5E770B58AB004460020E5
:10269000049005900690079008907620099007A86E
:1026A00007C88DE80700206804A90EC900F0E8FDFE
:1026B000064616B101200AB070BD0020124908601C
:1026C000206800F0F7FD01200F49A039C1F8A000F3
:1026D000204601F0C5FA05463DB1012084F83400DA
:1026E000A06B2843A0630120E5E7204601F036FAFD
:1026F00005463DB1012084F83400A06B2843A06357
:102700000120D8E70020D6E7A080254210B586B08A
:102710000446142101A8FDF70BFE2E4920688842CB
:1027200055D100BF002000902B48006840F40060A5
:10273000294908600846006800F40060009000BF66
:1027400000BF00BF0020009023481438006840F00C
:1027500004002149143908600846006800F00400AC
:10276000009000BF00BF00BF002000900846006836
:1027700040F0080008600846006800F0080000907B
:1027800000BF00BF4FF4F8500190022002900020DB
:102790000390032004900C20059001A90F48FEF738
:1027A00041FF0420019002200290002003900320AA
:1027B00004900C20059001A90948FEF733FF002280
:1027C00005213120FFF7EEF83120FFF7DBF806B0E6
:1027D00010BD0000002C01404438024000080240B7
:1027E000000C0240704770477047704730B5024692
:1027F0000B4600BF92F83C00012801D1022030BDF9
:10280000012082F83C0000BF022082F83D001068E1
:1028100044681068816824F07004186804431068E4
:102820004460184D1068A8421BD01068B0F1804F6A
:1028300017D0154D1068A84213D0144D1068A84247
:102840000FD0134D1068A8420BD0124D1068A8424B
:1028500007D0114D1068A84203D0104D1068A8424F
:1028600005D121F080015868014310688160012082
:1028700082F83D0000BF002082F83C0000BF00BF8E
:10288000BDE70000000001400004004000080040D7
:10289000000C0040000401400040014000180040CE
:1028A00010B504460CB9012010BD94F83D0028B9BC
:1028B000002084F83C00204600F00CF8022084F848
:1028C0003D00211D206801F0A1FB012084F83D009E
:1028D0000020E9E738B504460E492068884217D140
:1028E00000BF002000900C48006840F010000A492A
:1028F00008600846006800F01000009000BF00BFAC
:10290000002205213620FFF74DF83620FFF73AF870
:1029100038BD000000100040403802400146086801
:10292000C06840F001000B68D8600868806800F05B
:102930000702062A05D00868006840F001000B680D
:10294000186000207047704710B504462068006981
:10295000C0F34000D8B12068C068C0F34000B0B1F7
:102960006FF00200216808610120207720688069EB
:1029700000F0030018B12046FFF7E5FF05E0204610
:1029800000F0ADF8204600F0ABF80020207720687A
:102990000069C0F38000D8B12068C068C0F380002F
:1029A000B0B16FF004002168086102202077206830
:1029B000806900F4407018B12046FFF7C4FF05E0BD
:1029C000204600F08CF8204600F08AF8002020779E
:1029D00020680069C0F3C000D8B12068C068C0F3A7
:1029E000C000B0B16FF008002168086104202077B2
:1029F0002068C06900F0030018B12046FFF7A3FF6C
:102A000005E0204600F06BF8204600F069F8002051
:102A1000207720680069C0F30010D8B12068C06832
:102A2000C0F30010B0B16FF01000216808610820F9
:102A300020772068C06900F4407018B12046FFF785
:102A400082FF05E0204600F04AF8204600F048F8F2
:102A5000002020772068006900F0010058B120684C
:102A6000C06800F0010030B16FF00100216808611A
:102A7000204600F037F820680069C0F3C01058B154
:102A80002068C068C0F3C01030B16FF080002168CA
:102A900008612046FFF7A8FE20680069C0F3801097
:102AA00058B12068C068C0F3801030B16FF04000AA
:102AB00021680861204600F021F820680069C0F311
:102AC000401058B12068C068C0F3401030B16FF0BA
:102AD0002000216808612046FFF787FE10BD70477F
:102AE0007047000010B5044603492068884201D1B0
:102AF000FEF7AEFE10BD00000000014070477047B9
:102B00002DE9F0470446206805682068C6682068FB
:102B100047694FF00008C14605F00F08B8F1000FF3
:102B20000AD105F0200038B106F0200020B120467F
:102B300001F002FBBDE8F087B8F1000F72D007F09A
:102B4000010018B906F4907000286BD005F0010060
:102B500030B106F4807018B1E06B40F00100E06322
:102B600005F0040030B107F0010018B1E06B40F04F
:102B70000200E06305F0020030B107F0010018B177
:102B8000E06B40F00400E06305F0080048B106F097
:102B9000200010B907F0010018B1E06B40F0080008
:102BA000E063E06B70B305F0200028B106F0200070
:102BB00010B1204601F0C0FA20684069C0F38019C6
:102BC000E06B00F0080010B9B9F1000F23D02046E7
:102BD00001F092FA2068406900F04000402816D1C8
:102BE0002068406920F0400021684861606B50B166
:102BF0001748616B0865606BFEF722F810B1606BD7
:102C0000016D88470CE02046FFF779FF08E0204679
:102C1000FFF775FF04E02046FFF771FF0020E06337
:102C200088E7FFE705F0800030B106F0800018B1BA
:102C3000204601F0C9FC7DE705F0400030B106F008
:102C4000400018B1204601F067FA73E700BF71E752
:102C5000E540000810B504460CB9012010BDA0697C
:102C600000B100E000BF94F8390028B9002084F8D2
:102C70003800204600F028F8242084F83900206825
:102C8000C06820F400502168C860204601F0A8FA0E
:102C90002068006920F4904021680861206840693C
:102CA00020F02A00216848612068C06840F4005084
:102CB0002168C8600020E063202084F8390084F88F
:102CC0003A000020CAE7000010B586B0044614217F
:102CD00001A8FDF72DFB7D492068884276D100BF11
:102CE000002000907A48006840F0100078490860A1
:102CF0000846006800F01000009000BF00BF00BF51
:102D00000020009072481438006840F001007049BB
:102D1000143908600846006800F00100009000BF08
:102D200000BF4FF4C0600190022002900020039089
:102D3000032004900720059001A96648FEF772FC65
:102D40006548664908604FF00060486000216348AC
:102D50008160C1604FF48061016100214161816146
:102D6000C16101624162FEF79FF808B1FDF76EFD97
:102D700000BF5A486063846300BF574878305849A1
:102D800008604FF000604860402155488160002194
:102D9000C1604FF480610161002141618161C161C5
:102DA00001624162FEF780F808B1FDF74FFD00BFF8
:102DB0004B482063846300BF002205212520FEF7D5
:102DC000F1FD2520FEF7DEFD7EE0FFE745492068A6
:102DD00088423AD100BF002000903D48001F0068A3
:102DE00040F400303A49091F08600846006800F4C2
:102DF0000030009000BF00BF00BF002000903448AA
:102E00001438006840F00800314914390860084659
:102E1000006800F00800009000BF00BF6020019033
:102E200002200290002003900320049007200590C8
:102E300001A92D48FEF7F6FB002205212620FEF70A
:102E4000B1FD2620FEF79EFD3EE02849206888421D
:102E50003AD100BF002000901D48001F006840F4D8
:102E600080201B49091F08600846006800F4802084
:102E7000009000BF00BF00BF00200090144814382D
:102E8000006840F0080012491439086008460068DC
:102E900000F00800009000BF00BF4FF440700190A8
:102EA0000220029000200390032004900720059048
:102EB00001A90D48FEF7B6FB002205212720FEF7E9
:102EC00071FD2720FEF75EFD06B010BD0010014029
:102ED000443802400000024040640240F83E0020B6
:102EE000583F002000440040000C024000480040D1
:102EF0007047704700BFFEE708B500BF0020009094
:102F00000E48006840F480000C49086008460068DC
:102F100000F48000009000BF00BF002205213A208D
:102F2000FEF740FD3A20FEF72DFD00220521462048
:102F3000FEF738FD4620FEF725FD08BD303802407B
:102F400000B587B01C2206496846FDF7CAF9002182
:102F5000684601F0E7FE0349086007B000BD0000C5
:102F6000B0AC00086C00002000B587B0142102A8A6
:102F7000FDF7DEF900BF002001905648006840F0E0
:102F80000400544908600846006800F004000190FD
:102F900000BF00BF00BF002001900846006840F05D
:102FA000800008600846006800F08000019000BFC3
:102FB00000BF00BF002001900846006840F00100FB
:102FC00008600846006800F00100019000BF00BFE3
:102FD00000BF002001900846006840F00200086031
:102FE0000846006800F00200019000BF00BF00BF6B
:102FF000002001900846006840F010000860084674
:10300000006800F01000019000BF00BF00BF00206A
:1030100001900846006840F0080008600846006813
:1030200000F00800019000BF00BF00224FF4E04113
:103030002948FEF700FC00224FF480512748FEF794
:10304000FAFB002211212648FEF7F5FB4FF4E04081
:1030500002900120039000200490059002A91E48D0
:10306000FEF7E0FA4FF400400290002003900120A8
:10307000049002A91848FEF7D5FA4FF48050029048
:103080000120039000200490059002A91348FEF748
:10309000C9FA1120029001200390002004900590AD
:1030A00002A90F48FEF7BEFA4FF4007002900D48D7
:1030B00003900020049002A90B48FEF7B3FA002207
:1030C00005211720FEF76EFC1720FEF75BFC07B00A
:1030D00000BD0000303802400010024000000240F5
:1030E000000C0240000011100004024010B50D4811
:1030F0000D4908600020486000210B488160C160D4
:103100000161416103218161FFF7A0FA08B1FDF778
:103110009DFB4FF400610448FFF73EF808B1FDF74E
:1031200095FB10BD002C0140743D00201CB5002013
:10313000009001900E480F49086040F24730486007
:1031400000210C4881600921C16000218161FFF7E5
:10315000A7FB08B1FDF77AFB20200090002001902A
:1031600069460448FFF742FB08B1FDF76FFB1CBD41
:1031700000100040F83D002010B50B480B490860D6
:103180004FF4E1304860002108488160C16001616E
:103190000C21416100218161C161FFF75BFD08B134
:1031A000FDF754FB10BD000000100140383E002028
:1031B00010B50B480B4908604FF4E130486000211E
:1031C00008488160C16001610C2141610021816179
:1031D000C161FFF73FFD08B1FDF738FB10BD0000EE
:1031E00000440040783E002010B50B480B490860B1
:1031F0004FF4E1304860002108488160C1600161FE
:103200000C21416100218161C161FFF723FD08B1FB
:10321000FDF71CFB10BD000000480040B83E002038
:1032200000BFFEE7704710B50246002308685062F1
:1032300048689062D1E9020420430C6920434C693C
:1032400020430343D06A20F0F7001843D0620020E7
:1032500010BD01460869C0B270470146086800F019
:1032600003007047024602F11400431818687047C3
:1032700010B50248FFF7DCF810BD0000743D0020D7
:103280000FB410B504460021DDE903021043059A8E
:103290001043069A1043079A1043089A10430143BB
:1032A000606847F6FF62904308436060002010BCEE
:1032B0005DF814FB10B50446032020600220FDF7E2
:1032C00069FE002010BD0146D1F88000704710B59E
:1032D0000246002308689060D1E901042043CC68CD
:1032E00020430C6920430343D0686FF30B0018435D
:1032F000D060002010BD02460868C2F8800000209F
:10330000704770B586B005460C4601943720029090
:1033100040200390002004904FF48060059001A9A4
:103320002846FFF7D4FF41F288323721284600F0C3
:103330006DF90646304606B070BD000070B586B027
:1033400005460C460B48204301902920029040205E
:103350000390002004904FF48060059001A9284656
:10336000FFF7B5FF284600F059FA0646304606B08A
:1033700070BD00000000108070B586B005460C4698
:1033800001941020029040200390002004904FF4FC
:103390008060059001A92846FFF799FF41F2883225
:1033A0001021284600F032F90646304606B070BDBE
:1033B00070B586B005460C46019406200290402068
:1033C0000390002004904FF48060059001A92846E6
:1033D000FFF77DFF41F288320621284600F016F9FA
:1033E0000646304606B070BD30B585B004460020B4
:1033F00000900190029003904FF480600490694621
:103400002046FFF764FF204600F0E0F80546284616
:1034100005B030BD30B585B004464FF4D57000908E
:103420000820019040200290002003904FF480601B
:10343000049069462046FFF74AFF204600F076FADE
:103440000546284605B030BDF0B585B006461446A1
:103450001D46009407200190402002900020039018
:103460004FF48060049069463046FFF730FF41F228
:1034700088320721304600F0C9F80746384605B0C3
:10348000F0BD30B585B004460020009002200190C8
:10349000C0200290002003904FF4806004906946A1
:1034A0002046FFF714FF204600F086F9054628461F
:1034B00005B030BD70B586B005460C4601940920B4
:1034C0000290C0200390002004904FF4806005908B
:1034D00001A92846FFF7FBFE284600F06DF90646D5
:1034E000304606B070BD30B585B00446002000906F
:1034F0003320019040200290002003904FF4806020
:10350000049069462046FFF7E2FE41F288323321FB
:10351000204600F07BF80546284605B030BD70B562
:1035200086B005460C4601940D2002904020039081
:10353000002004904FF48060059001A92846FFF711
:10354000C6FE41F288320D21284600F05FF806469B
:10355000304606B070BD70B586B005460C460020FA
:1035600001900320029040200390002004904FF42B
:103570008060059001A92846FFF7A9FE2246032195
:10358000284600F077F90646304606B070BD0000C8
:1035900030B585B00446002000900C2001904020FA
:1035A0000290002003904FF480600490694620460A
:1035B000FFF78DFE044A0C21204600F027F805464F
:1035C000284605B030BD000000E1F50501460E4873
:1035D0000068C0084FF47A73B0FBF3F041F288330F
:1035E00000FB03F200BF1000A2F1010202D14FF074
:1035F00000407047486B00F080000028F3D0C520E1
:1036000088630020F5E700007C0000202DE9F043EE
:1036100005460F46904666480068C0084FF47A7128
:10362000B0FBF1F000FB08F900BF5FEA0900A9F167
:10363000010903D14FF00040BDE8F0836E6B06F046
:1036400045000028F1D006F400600028EDD1686B39
:1036500000F0040010B10420A863EDE7686B00F0EF
:10366000010010B10120A863E6E7C520A863284641
:10367000FFF7EFFDB84201D00120DDE70021284629
:10368000FFF7F0FD04464B48204008B90020D3E77F
:1036900004F00040B0F1004F02D14FF00070CBE7D2
:1036A00004F08040B0F1804F01D14020C4E704F025
:1036B0000050B0F1005F01D18020BDE704F08050E0
:1036C000B0F1805F02D14FF48070B5E704F0006084
:1036D000B0F1006F02D14FF40070ADE704F08060EC
:1036E000B0F1806F02D14FF48060A5E704F08070E4
:1036F000B0F1807F02D14FF400609DE704F4000038
:10370000B0F5000F02D14FF4805095E704F480002B
:10371000B0F5800F02D14FF400508DE704F4001093
:10372000B0F5001F02D14FF4804085E704F480100B
:10373000B0F5801F02D14FF400407DE704F48020F3
:10374000B0F5802F02D14FF4003075E704F400305B
:10375000B0F5003F02D14FF480206DE704F48030D3
:10376000B0F5803F02D14FF4002065E704F400403B
:10377000B0F5004F02D14FF480105DE704F48040B3
:10378000B0F5804F02D14FF4001055E704F400501B
:10379000B0F5005F02D14FF480004DE704F008005F
:1037A000082801D1000547E74FF4803044E70000C6
:1037B0007C00002008E0FFFD10B5014616480068B7
:1037C000C0084FF47A74B0FBF4F041F2883400FB87
:1037D00004F300BF1800A3F1010302D14FF0004031
:1037E00010BD4A6B02F045000028F3D002F40060DF
:1037F0000028EFD1486B00F0040010B1042088636A
:10380000EEE7486B00F0010010B101208863E7E7A4
:10381000C52088630020E3E77C00002010B5014646
:1038200013480068C0084FF47A74B0FBF4F041F21A
:10383000883400FB04F300BF1800A3F1010302D198
:103840004FF0004010BD4A6B02F045000028F3D055
:1038500002F400600028EFD1486B00F0040010B1C2
:1038600004208863EEE7C52088630020EAE70000B3
:103870007C0000202DE9F04304460F4690462A487C
:103880000068C0084FF47A71B0FBF1F041F2883162
:1038900000FB01F900BF5FEA0900A9F1010903D1AA
:1038A0004FF00040BDE8F083666B06F0450000284D
:1038B000F1D006F400600028EDD1606B00F0040048
:1038C00010B10420A063EDE7606B00F0010010B1BF
:1038D0000120A063E6E72046FFF7BBFCB84201D019
:1038E0000120DFE7C520A06300212046FFF7BAFCD6
:1038F000054605F4604020B9280CA8F80000002017
:10390000D0E705F48040B0F5804F02D14FF400506D
:10391000C8E705F40040B0F5004F02D14FF48050E5
:10392000C0E74FF48030BDE77C00002010B50146B1
:1039300018480068C0084FF47A74B0FBF4F041F204
:10394000883400FB04F300BF1800A3F1010302D187
:103950004FF0004010BD4A6B02F045000028F3D044
:1039600002F400600028EFD1486B00F0040010B1B1
:1039700004208863EEE7486B00F0010010B10120DD
:103980008863E7E7486B00F0400008B14020886397
:103990000020DFE77C00002070B50546AC6B40F2EC
:1039A0003A50216888632046FEF730FD0646012024
:1039B00084F8340000202063062E01D0052E05D1A6
:1039C0002068FFF7E5FDA16B0843A063A06B18B961
:1039D0002046FEF7DFFB02E02046FEF731FC70BD1B
:1039E00070B50546AC6B40F23A50216888632046BA
:1039F000FEF70CFD0646012084F834000020206309
:103A0000062E01D0052E05D12068FFF7C1FDA16B60
:103A10000843A063A06B18B92046FEF7BBFB02E089
:103A20002046FEF70DFC70BD2DE9F04389B0044639
:103A30000F46FDF707FF81464FF000080020019078
:103A400002903E4608212068FFF796FC05461DB10E
:103A5000284609B0BDE8F0835022125B11042068AB
:103A6000FFF74FFC05460DB12846F2E74FF0FF3057
:103A7000039008200490302005900220069000203A
:103A800007900120089003A92068FFF7CCFB20686D
:103A9000FFF729FD05460DB12846DAE715E0206855
:103AA000406B00F4001038B12068FFF70CFC01A94E
:103AB00041F8280008F10108FDF7C4FEA0EB090059
:103AC000401C10B94FF00040C3E72068406B40F243
:103AD0002A4108400028E2D02068406B00F008002E
:103AE00018B1082021688863B3E72068406B00F0B4
:103AF000020018B1022021688863AAE72068406BA1
:103B000000F0200018B1202021688863A1E740F26E
:103B10003A502168886302980006029901F47F41B7
:103B200040EA0120029901F47F0140EA1120029944
:103B300040EA11603060361D01980006019901F4D9
:103B40007F4140EA0120019901F47F0140EA112000
:103B5000019940EA1160306000207AE730B58FB0FB
:103B60000446012003902068FFF777FB18B94FF057
:103B700080600FB030BD606C03281BD02068FFF759
:103B800080FC05460DB12846F3E700212068FFF7C9
:103B900069FB606704212068FFF764FBA0670821C8
:103BA0002068FFF75FFBE0670C212068FFF75AFBF6
:103BB00080210851606C032807D003A92068FFF713
:103BC000CAFC05460DB12846D3E7606C032820D017
:103BD000BDF80C1021655022125B11042068FFF71C
:103BE00069FC05460DB12846C3E700212068FFF7B0
:103BF00039FB606604212068FFF734FBA0660821CA
:103C00002068FFF72FFBE0660C212068FFF72AFBF6
:103C1000206704212068FFF725FB010DE16404A95A
:103C20002046FEF70FFB10B14FF08050A1E7502067
:103C3000005B01040A4600232068FFF705FC0546E7
:103C40000DB1284695E7D4E90412A069CDE9001228
:103C5000029094E80F00FFF713FB002089E70000B3
:103C6000F8B5044600200090002600272068FFF7E2
:103C7000BBFB05460DB12846F8BD2068FFF7CAFB1F
:103C8000054645B10021A1642068FFF7ADFB05465C
:103C90001DB12846F0E70121A164A06C012808D1DC
:103CA00000212068FFF72DFB054615B14FF080502D
:103CB000E2E71DE000212068FFF723FB05460DB178
:103CC0002846D9E718492068FFF738FB054615B1A3
:103CD0004FF08050D0E700212068FFF7C3FA064676
:103CE000012080EAD67080F001070098401C009007
:103CF0004FF6FF710098884201D2002FDAD04FF6BC
:103D0000FF710098884202D34FF08070B4E706F04C
:103D10008040B0F1804F02D10120606401E00020BA
:103D200060640020A8E70000000010C12DE9F04108
:103D30000546AC6AEF6AE7B14FF0000814E0286866
:103D4000FFF7C1FA06462670641C7F1E300A2070F9
:103D5000641C7F1E300C2070641C7F1E300E20708F
:103D6000641C7F1E08F10108B8F1080FE7D3AC62AC
:103D7000EF62BDE8F08170B504460D4615B94FF00D
:103D8000006070BD5022125B11042068FFF7C7FB72
:103D900006460EB13046F4E700212068FFF762FACC
:103DA00028600020EDE77CB50446002000900190DB
:103DB00000212068FFF756FA00F00070B0F1007F94
:103DC00002D14FF400607CBD69462046FFF72CFE0F
:103DD00005460DB12846F6E7019800F4803098B109
:103DE0005022125B11042068FFF78BFA05460DB1D3
:103DF0002846E8E700212068FFF7DAFA05460DB10A
:103E00002846E0E70020DEE74FF08060DBE77CB586
:103E1000044600200090019000212068FFF722FA5C
:103E200000F00070B0F1007F02D14FF400607CBD63
:103E300069462046FFF7F8FD05460DB12846F6E72E
:103E4000019800F4802098B15022125B1104206880
:103E5000FFF757FA05460DB12846E8E7022120682A
:103E6000FFF7A6FA05460DB12846E0E70020DEE799
:103E70004FF08060DBE7F8B505462C6A6E6A1EB32A
:103E800000271DE020780090641C761E20780099A1
:103E900041EA00200090641C761E2078009941EAD7
:103EA00000400090641C761E2078009941EA006072
:103EB0000090641C761E69462868FFF71CFA7F1C78
:103EC000082FDFD32C626E62F8BD000000BF4FF4F4
:103ED00000510448FDF7A6FC4FF4967000F011FF66
:103EE000F5E700000010024010B500BF502080F33D
:103EF0001188BFF34F8FBFF36F8F00BF06F066FCD2
:103F000018B14FF080500449086000BF002080F3D2
:103F1000118800BF10BD000004ED00E000B593B0B3
:103F2000302107A8FCF704FA142102A8FCF700FAD4
:103F300000BF002001902448006840F080502249D2
:103F400008600846006800F08050019000BF00BF84
:103F500000BF002001901D48006840F480401B49CC
:103F600008600846006800F48040019000BF00BF70
:103F7000012007900004089002200D9041050E9149
:103F800019210F914FF4A87110910221119107216D
:103F9000129107A8FDF7BAFE08B1FCF757FC0F20F5
:103FA000029002200390002004904FF4A05005904E
:103FB0004FF480500690052102A8FDF745FD08B199
:103FC000FCF744FC13B000BD4038024000700040D4
:103FD0000548006840F47000034908604FF0006035
:103FE000014980390860704788ED00E010B502484B
:103FF000FEF7AAFC10BD0000B83F002010B5024833
:10400000FEF7A2FC10BD0000F83D002010B50268CC
:10401000294B98420ED0B0F1804F0BD0274B9842DD
:1040200008D0274B984205D0264B984202D0264B09
:10403000984203D122F070024B681A431E4B9842FB
:1040400020D0B0F1804F1DD01C4B98421AD01C4B91
:10405000984217D01B4B984214D01B4B984211D05A
:104060001A4B98420ED01A4B98420BD0194B9842DB
:1040700008D0194B984205D0184B984202D0184BE3
:10408000984203D122F44072CB681A4322F0800395
:104090004C6943EA040202608B68C3620B68836266
:1040A000054B984202D0084B984201D10B6903633B
:1040B0000123436110BD00000000014000040040E6
:1040C00000080040000C0040000401400040014096
:1040D000004401400048014000180040001C00401E
:1040E0000020004070B50546AC6B0020E085E08400
:1040F0002046FEF704FD70BD0168C96821F4907187
:104100000268D1600168496921F0010102685161CA
:10411000202180F83A10704710B504462068C06826
:1041200020F040002168C860202084F83900204633
:10413000FEF7DFFE002010BD70B5044694F83A008B
:1041400022284AD1A068B0F5805F13D1A56A206902
:1041500040B920684068C0F308002880A06A801C2D
:10416000A06219E020684068C0B22880A06A401CA4
:10417000A06211E0206938B920684068C1B2A26A23
:10418000501CA062117007E02068406800F07F01B9
:10419000A26A501CA0621170E08D401E80B2E085C2
:1041A000C8B92068C06820F020002168C860206875
:1041B000C06820F480702168C8602068406920F0E1
:1041C000010021684861202084F83A002046FEF76B
:1041D0008FFE002070BD0020FCE70220FAE70000FF
:1041E0002DE9F84F04462068006920F44050E1684A
:1041F0000843216808612169A06808436169084390
:10420000E169084300902068C06849F20C61884366
:10421000009908432168C8602068406920F4407014
:10422000A169084321684861E069B0F5004F75D184
:10423000E3492068884203D0E249206888426FD170
:10424000FDF7FCFC814602206168A0FB01510B4692
:104250001920A9FB00712A463846FCF711F86421A1
:10426000B0FBF1F04FEA001A02206168A0FB015197
:104270000B461920A9FB00712A463846FCF700F8C6
:10428000074602206168A0FB01510B461920A9FBDB
:1042900000B12A465846FBF7F3FF6421B0FBF1F06A
:1042A00000EBC00101EB0010A7EB8000322101EB15
:1042B000C0006421B0FBF1F000F0F8000AEB400A06
:1042C00002206168A0FB01510B461920A9FB007177
:1042D0002A463846FBF7D4FF074602206168A0FB58
:1042E00001510B461920A9FB00B12A465846FBF79D
:1042F000C7FF6421B0FBF1F000EBC00101EB00103F
:10430000A7EB8000322101EBC0006421B0FBF1F08B
:1043100000F007005044216888604FE16EE0FFE73D
:10432000FDF77CFC814602206168A0FB01510B4631
:104330001920A9FB00712A463846FBF7A1FF64212A
:10434000B0FBF1F04FEA001A02206168A0FB0151B6
:104350000B461920A9FB00712A463846FBF790FF4F
:10436000074602206168A0FB01510B461920A9FBFA
:1043700000B12A465846FBF783FF6421B0FBF1F0F9
:1043800000EBC00101EB0010A7EB8000322101EB34
:10439000C0006421B0FBF1F000F0F8000AEB400A25
:1043A00002206168A0FB01510B461920A9FB007196
:1043B0002A463846FBF764FF074602206168A0FBE7
:1043C000015003461920A9FB00B12A465846FBF7C5
:1043D00057FF6421B0FBF1F000EBC00101EB0010CE
:1043E000A7EB8000322101EBC0006421B0FBF1F0AB
:1043F00000F00700504421688860DFE070492068C1
:10440000884203D06F49206888426BD1FDF716FCC3
:10441000814604206168A0FB01510B461920A9FBCD
:1044200000712A463846FBF72BFF8246042061685C
:10443000A0FB01510B461920A9FB00712A46384602
:10444000FBF71EFF6421B0FBF1F000EBC00101EBB4
:104450000010AAEB8000322101EB00106421B0FBB8
:10446000F1F000F0F00A04206168A0FB015003465F
:104470001920A9FB00712A463846FBF701FF642189
:10448000B0FBF1F00AEB001A04206168A0FB0151B7
:104490000B461920A9FB00712A463846FBF7F0FEAF
:1044A000074604206168A0FB015003461920A9FBC0
:1044B00000B12A465846FBF7E3FE6421B0FBF1F059
:1044C00000EBC00101EB0010A7EB8000322101EBF3
:1044D00000106421B0FBF1F000F00F00504421689F
:1044E00088606BE0FDF79AFB814604206168A0FBC1
:1044F000015003461920A9FB00712A463846FBF7F4
:10450000BFFE824604206168A0FB015003461920CB
:10451000A9FB00712A463846FBF7B2FE6421B0FBC6
:10452000F1F000EBC00101EB0010AAEB800032219A
:1045300001EB00106421B0FBF1F000F0F00A042060
:104540006168A0FB015003461920A9FB00712A46AF
:104550003846FBF795FE6421B0FBF1F00AEB001A38
:1045600004206168A0FB017003461920A9FB0050DC
:1045700001463A462846FBF783FE07460420616859
:10458000A0FB015003461920A9FB00B12A4658465A
:10459000FBF776FE6421B0FBF1F000EBC00101EB0C
:1045A0000010A7EB8000322101EB00106421B0FB6A
:1045B000F1F000F00F00504421688860BDE8F88FEA
:1045C0000010014000140140014691F839002128F3
:1045D0002CD18868B0F5805F0FD10A6A1088C0F3CB
:1045E00008000B685860086918B9086A801C0862DE
:1045F00009E0086A401C086205E00B6A581C086262
:1046000018780B685860C88C401E80B2C88458B9AE
:104610000868C06820F080000B68D8600868C0682F
:1046200040F040000B68D860002070470220FCE793
:1046300010B50248FEF764FA10BD0000383E0020B5
:1046400010B50248FEF75CFA10BD0000783E00206D
:1046500010B50248FEF754FA10BD0000B83E002025
:1046600000BFFEE70FB4084B10B504A902AA0398D7
:1046700000F038F8044602A9002000F0DDF82046DA
:1046800010BC5DF814FB00003948000802480068BF
:10469000C0F30220704700000CED00E010B50028C8
:1046A00004DB0A07130E054A135406E00A07140E2A
:1046B000034A00F00F031B1FD45410BD00E400E0B8
:1046C00018ED00E002E008C8121F08C1002AFAD164
:1046D00070477047002001E001C1121F002AFBD182
:1046E000704700002DE9FF4F89B09B460446002526
:1046F00006E025280BD05A460B999047641C6D1C88
:1047000020780028F5D10DB02846BDE8F08F0027AD
:10471000B8460122474900E0074314F8013F203B17
:1047200002FA03F00842F7D120782E2819D114F8A4
:10473000010F47F004072A280ED06FF02F022078CF
:10474000A0F1300109290CD808EB880102EB4101E6
:1047500000EB0108641CF2E70A98641C50F8048B13
:104760000A9020780028CED0642808D0692806D086
:1047700075281ED05A460B9990476D1C58E00A992F
:104780004FF00A0901C90A91002802DA40422D219E
:1047900002E0390504D52B218DF82010012103E01A
:1047A000F90704D02021F7E78A4608AE0DE0002182
:1047B000FAE70A994FF00A0901C90A91F7E7494651
:1047C000FBF7CEFD303106F8011D0028F7D1ADEB27
:1047D000060000F12009780701D44FF00108C84510
:1047E00002DDA8EB090000E000208046002706E07B
:1047F00008A85A46C05D0B9990476D1C7F1C574511
:10480000F6DB04E030205A460B9990476D1CB8F156
:104810000001A8F10108F5DC05E016F8010B5A4685
:104820000B9990476D1CB9F10001A9F10109F4DC65
:10483000641C65E7092801000A68531C0B601070AE
:10484000704700002DE9F04104460F462068401CE7
:1048500020B11A4920680969884206D118480168C0
:1048600039608088B880012524E01648406908B97D
:1048700002251FE0002511492068496808401149B8
:1048800049690E4A52681140884207D00B48806837
:1048900010B10A48866802E0266800E026684DB933
:1048A0000EB9022506E03946304600F03DFB0546CC
:1048B00005B926602846BDE8F081000028010020E7
:1048C00068AC0008340000202DE9F04105464FF0A7
:1048D000000805F10E04D4F80E60A769214840696C
:1048E00000283BD0E088B0F5807F03D0B0F5007F92
:1048F00032D12BE01B484069B84226D1314604F141
:10490000080003F07BFC4FF40070E080B7420BD14D
:1049100015480168C5F80610808868810020C4F831
:104920001200E082A06105E0A068C4F81200A0892E
:10493000E082A6610B480168A1608088A0810948D7
:104940004069C4F80E004FF0020806E0314604F159
:10495000080003F053FC00E000BF00BF4046BDE884
:10496000F08100003400002068AC00082DE9F04719
:1049700004460E4617469846E56E4DB9012120467D
:1049800001F0B2FF05461DB94FF0FF30BDE8F087DA
:1049900043463A463146284603F085FA82460EBB26
:1049A0003820005DC0F3C010C0B9E06E03F002FB18
:1049B0008146E06D484510D3A06B20F08000803028
:1049C000A063A06B20F4807000F58070A0630121CB
:1049D00040200153062005F001FC00BF206840F094
:1049E000010020605046D1E71044884200DB401AA5
:1049F000704700002DE9FF4F81B004460E469246F5
:104A00002569002084F83C002063B54238D1049821
:104A1000824504D900BF00BF4FF0FF379EE05544E8
:104A2000D4F8A40048B3AB4600BF524631462046F6
:104A300005F030FD8046B8F1000F02D0404604F08A
:104A4000F7F9B8F1000FF0D105E0D8F808000544F7
:104A5000404604F0EDF92946204605F064FD5FEA82
:104A60000008F2D1AB4508D0A5EB0B0020633D4810
:104A70000068012801DB00BF00BF256100276DE051
:104A8000701C854202D14FF0FF3767E006EB0A0940
:104A9000A9EB050000900098002802DC4FF0FF37DA
:104AA0005CE004990098884204DD00BF00BF4FF02D
:104AB000FF3753E002E0D8F8080081444946204619
:104AC00005F031FD5FEA0008F5D1264800680128AD
:104AD00001DB00BF00BF2448C4F88000300606F4A4
:104AE0007F4140EA012006F47F0140EA112040EABC
:104AF0001661842001514FEA096009F47F4140EAC0
:104B0000012009F47F0140EA112040EA1961882060
:104B100001510C2084F83C003146204605F003FD8D
:104B20008046B8F1000F02D04FF0FF3716E00123A6
:104B300052463146204605F045FC8046B8F1000F4C
:104B400004D1002084F83C00471E07E005480068B7
:104B500018B100BF00BF00BF00BF771B384605B0CB
:104B6000BDE8F08F300000200101050A2DE9F05F5B
:104B700005468A4691469B4657464FF00008EC6F23
:104B8000002C34D0D4E90110884230DA6069C0F3D7
:104B9000004060BBA06850B3D4E90102811A3846D6
:104BA000FBF7CBFF0646A1688819A060D4E9011085
:104BB000884201DB0020E867BF1B686B30446863F4
:104BC000B0443248006802280BDBB5F8B80017285B
:104BD00001D0012000E0002018B100BF00BF00BFDD
:104BE00000BF324659464846FFF7FEFE814646E082
:104BF000B5F8BC2000232846696B05F0E3FB0446AA
:104C0000B4B338466168FBF798FF0646A660C4F85F
:104C10000C90BF1B324659464846FFF7E5FE8146D9
:104C2000686B30446863B04404F1180105F1540026
:104C300003F072FCD4E90110884201DAEC6701E06C
:104C40000020E867B5F8B800172801D0012000E07F
:104C50000020A0B10D480068032805DA0B48006861
:104C600002280CDBE86F50B100BF00BF00BF06E0B8
:104C7000FFE7B8F1000F01D000BF00BF01E0002F37
:104C8000B6DC00BF4046BDE8F09F000030000020C9
:104C900010B5044610BD000008B5FCF7E5FDFFF7B0
:104CA0003DF9FEF761F9FEF727F9FEF71FFAFEF767
:104CB0003DFAFEF77DFAFEF75FFAFEF795FA04F08B
:104CC0005BFC0748074B084A084900900848FBF777
:104CD000DDFDFEF735F900F020F800BFFEE700002B
:104CE00098AC0008AAAC0008A6AC0008A2AC00086A
:104CF0009EAC000801460020842901D0CA1C104443
:104D0000704770B5044625460DB1294600E00121E3
:104D1000084604F0D1F8002070BD10B504F08AFAFE
:104D2000002010BD7FB504460D46606998B1A069AA
:104D300088B1B4F90800FFF7DDFF0646D4E9051095
:104D4000CDE9006102902B462269D4E9001005F0FC
:104D5000C3FC039013E0B4F90800FFF7CBFF06464D
:104D600003A8CDE90060238A9AB22B46D4E900104B
:104D700005F080FC012802D0002004B070BD03982B
:104D8000FBE700002DE9F04105460E461C48076888
:104D90001C480068001D03F05DF850B91948006810
:104DA00090F82C1001208840174909688143164863
:104DB0000160681C38B936B112480168091D1348F2
:104DC00003F09EFB1AE07C190E4800684460BC4268
:104DD00007D20C480168091D0D48006803F076FBF6
:104DE0000CE008480168091D0A48006803F06EFBE2
:104DF00009480068844201D207480460BDE8F08198
:104E00009400002080000020980000201441002021
:104E10008800002084000020B000002010B5044667
:104E200003F096FC23480068401C22490860224891
:104E3000006840B9204804600846006801280DD188
:104E400000F0E6FF0AE01D48006838B91A4800681B
:104E5000C06AE16A884201D81748046018480068AF
:104E6000401C1749086094F82C100120884015490F
:104E70000968084313490860E16A01EB8101124A9D
:104E800002EB8100211D03F03BFB03F08BFC0B4880
:104E9000006868B108480068C06AE16A884207D2C1
:104EA0004FF0805009490860BFF34F8FBFF36F8FF9
:104EB00010BD000090000020800000209C00002019
:104EC000AC000020980000203840002004ED00E0F5
:104ED000F0B503460C461546012203F10E010869A0
:104EE000CE884FF60F773E400EB1002215E00E78C7
:104EF000452E02D30E784F2E01D900220DE0084E28
:104F00007669864209D0461C3EB1064E3669864215
:104F100003D0034E766906B100221046F0BD0000B2
:104F2000340000202801002030B502460B46002046
:104F300000211AE001EB41040E4D55F82440944243
:104F400012D101EB410405EB8404E47A0CB9022090
:104F500009E001EB4104074D05EB840465681D6021
:104F600024899C80012002E0491C0629E2DB00BF65
:104F700030BD0000E000002042F2107008490978BE
:104F800001F0010129B10649C968814201D20449F1
:104F900008690449C968814201D20249C86870475A
:104FA000500100206401002070B5124800F072FE2C
:104FB00010B1032005F012F90F48006802F05EFFFF
:104FC00008B9012400E000240C4800F063FE054607
:104FD0000B48006808B104B1012555B1204605F021
:104FE0008DF906463146054800F078FE0020044958
:104FF000086070BD50010020040000206401002002
:1050000014000020F3B583B00C46A76907F1220510
:1050100005F114000290287B0521C1EB20100299B4
:1050200001EB800001900398D0300090D4E9060194
:1050300008440199884201D205B0F0BD012606E07E
:105040006B4603AA01A902A801F056FA0646DDE95B
:105050000110884201D2012EF2D000BFECE72DE909
:10506000F0430246956905F122031F7B07F0F00724
:10507000BE089769223737440F60D769A7F10E0041
:105080002F7C4FEA07282F8A48EA27271FFA87FC38
:10509000604500DD604606F11407B84201DDC01B23
:1050A00000E000205F7B07F0200797B19F7C3F0264
:1050B000B3F8128047EA2827BCB20F6827440F6074
:1050C00080462746B84501DCC14600E0B946A0EB62
:1050D0000900BDE8F083000010B516E003F038FBCE
:1050E0000C48C068C468201D02F0B4FE0A4800687D
:1050F000401E0949086009480068401E07490860C9
:1051000003F050FB204600F0F5F804480068002842
:10511000E4D110BD00410020900000208C00002050
:1051200070B504460D46206C70B1216CE0680144F6
:10513000E160D4E90210884201D32168E160284689
:10514000226CE168FBF7CDF870BD2DE9F041044613
:105150000F4615464FF00008A66B206C48B9206832
:1051600000282CD1A06805F0D5FB80460020A06067
:1051700025E07DB93946226C6068FBF7B2F8216CF6
:10518000606808446060D4E90101884217D3206850
:10519000606014E03946226CE068FBF7A2F8216CED
:1051A000E068411AE1602168E068884203D2216C1E
:1051B000A068411AE160022D01D106B1761E701C73
:1051C000A0634046BDE8F08170B51C4803F06EF95D
:1051D0004FF4705002F070FB1949086008460068EF
:1051E00018B900BF00BF002526E04FF470511448E5
:1051F0000068FBF79DF800241BE01148006800EBF5
:1052000084110F48006800EB841081630C4800682B
:1052100000EB84110A48006800EB841041620848E2
:10522000006800EB841000F12C01044803F074F9CD
:10523000641CF02CE1DB0125284670BDA001002094
:105240002C0000201148002117E044F2F452426083
:10525000C1EBC11202EB42020D4B03EB82028260F2
:105260004FF000420260032903D200F12002C26025
:1052700001E0064AC260491C20300429E5D3034BF3
:10528000044A126802F58052D3607047800A0020F9
:10529000000B0020380A0020134800211BE04FF4C7
:1052A00080120260C1EBC11202EB42020F4B03EB12
:1052B000820282600E4AD2691AB9026842F4400240
:1052C0000260032903D200F12002C26001E0064A15
:1052D000C260491C20300429E1D3034B044A126800
:1052E00002F5805213617047D02200205023002025
:1052F000380A002010B5044694F8510030B9206BEC
:1053000003F06EFA204603F06BFA1AE094F85100AD
:10531000012803D1204603F063FA12E094F851000B
:10532000022801D1012000E0002050B900BF502028
:1053300080F31188BFF34F8FBFF36F8F00BF00BFA3
:10534000FEE710BD2DE9F04180460D4616461F468A
:10535000012404F08BF808B900246DE0B8F1020FC5
:1053600001D1012000E0002050B900BF502080F39F
:105370001188BFF34F8FBFF36F8F00BF00BFFEE7F1
:105380002F488068401C08B9012000E0002050B977
:1053900000BF502080F31188BFF34F8FBFF36F8F92
:1053A00000BF00BFFEE727488068401C08B9012005
:1053B00000E0002050B900BF502080F31188BFF3F7
:1053C0004F8FBFF36F8F00BF00BFFEE7112E11D1CB
:1053D000022D0CD0002454B900BF502080F3118856
:1053E000BFF34F8FBFF36F8F00BF00BFFEE74420B6
:1053F000386021E0062E12D1012D0CD0002454B9C2
:1054000000BF502080F31188BFF34F8FBFF36F8F21
:1054100000BF00BFFEE74FF4C87038600CE0002406
:1054200054B900BF502080F31188BFF34F8FBFF3F2
:105430006F8F00BF00BFFEE72046BDE8F08100008F
:10544000780100208C0100201FB50026002500BF38
:1054500002A803F0D1FE4FF47A70019000BF02F071
:10546000F3FC0446A64202D0264600BF00BF3548E2
:10547000006800F0070018B96421002002F0A2FCC7
:105480003048006800F0010078B12E48006820F034
:1054900001002C49086000F03FFD0546002D04DDA9
:1054A00000BF00F039FD0028FBDC2648006800F052
:1054B000020028B12348006820F00200214908605A
:1054C0002048006800F0040028B11E48006820F061
:1054D00004001C490860002D07DD02A803F08CFEC3
:1054E00043F6982001900025B9E701A902A805F02C
:1054F0007BF80028B3D06A4601211348FBF746FF2A
:105500001248007800F00400009901F0040188427C
:1055100007D00E490098086000BF00BF002000F0CF
:1055200017F802A803F068FE0848007800F00400AD
:1055300018B143F69820019091E74FF47A700190EA
:105540008DE7000054000020380A00205800002099
:105550007CB5044600200190009000BF00BF2CB92C
:105560004648007800F0040000287DD04448406898
:10557000002864D04348006840F40072002140488D
:10558000FBF7DEFF4048042102683D48FBF7D8FFE7
:1055900000BF0198401C01906A4601213848FBF782
:1055A000F5FE009800F0200020B94FF6FF71019839
:1055B0008842EED33348006820F40072002130485E
:1055C000FBF7BEFF4FF6FF710198884247D20020DB
:1055D00001906A4601212A48FBF7D8FE009800F0A6
:1055E000040030B12548006840F0040023490860F9
:1055F00005E02248006820F00400204908606A465F
:1056000010211F48FBF7C2FE00BF00BF009800F04A
:10561000100020B14FF400611948C16002E0002180
:105620001748C160009800F0040018B10021144828
:10563000816014E04FF48041114881600FE0104810
:10564000C068C0F3CF000E498968C1F34F0140EA3A
:1056500001052A4600210A48FBF772FF00BF00211E
:105660000748FBF7ABFC00E003E00548FBF714FF3D
:1056700002E00348FBF739FF7CBD00005800002022
:10568000380A00205C0000206000002001464A6AC1
:1056900022B10A6B1268C2F1070000E000207047D7
:1056A0002DE9F04706464FF47C494F464FF000087D
:1056B0000024062E01D1124D00E0124D00BF1FFA4A
:1056C00088F04FF47C4190FBF1F201FB120000F5F1
:1056D000806084B2200240EA242081B2284602F091
:1056E000F3F920B9200240EA242084B204E0002427
:1056F000781E87B2002FE2DC00BF2046BDE8F087AD
:105700008C010020780100202DE9FF4F89B004466C
:105710008B461E46DBF80000876907F1220504F17D
:10572000D008687B089028790006A98801F47F4199
:1057300040EA0120696801F47F0140EA11206968AC
:1057400040EA11600790002006900590A87B0002B7
:10575000E98940EA212081B2C4F8C41094F8C2104B
:10576000D4F8C4008840C4F8C400089800F01000C1
:1057700038B32A20C05D0206788D00F47F4042EAEB
:105780000022D7F82A0000F47F0042EA1022D7F85E
:105790002A0042EA1061404602F01FFA8146206F5B
:1057A00078B1B9F1000F0CD0002000904B460022D8
:1057B0001146206F02F008FC18B1206840F002008A
:1057C0002060206F10B1204601F016F8D8F82010A4
:1057D000C4F8FC10208FC0F3003020B9089800F006
:1057E0000100002838D001200590208FC0F3403000
:1057F000F0B9404604F080FE0490404604F0A6FE56
:105800000390049808B1039820B900BF00BF00209E
:1058100005900DE00B9907980144D8F81000081A7C
:1058200002900298012803DD00BF00BF0020059010
:105830001C480068002801DD00BF00BF059858B172
:10584000A06B20F4805000F58050A0632046DBF868
:10585000001001F0AFF806900598F0B910206873B9
:105860000B9870B106F12800069014388006000EDF
:105870002873208FC0F3403018B1D8F82410C8F82E
:10588000201056B932465946204601F0D9FA8246D0
:10589000BAF1000F01DDCDF818A006980DB0BDE8F3
:1058A000F08F00003000002010B50446204600F0C4
:1058B000A3FB10BD2DE9F04705460F46BC69002645
:1058C000638CD4F81A20A98CDFF808C1DCF8140026
:1058D00002F074F98146B9F1000F32D03820405DF2
:1058E000C0F3C00038B12E46A86B20F00400001DA4
:1058F000A863ED6425E000264620415B4820405B1C
:10590000814205DB00BF00BF384601F048FD18E0CA
:10591000062201210220FBF72CF98046B8F1000F86
:1059200002D008F1010028B900BF00BF384601F0DD
:1059300036FD05E02946404601F06EFD00B14646C1
:1059400000BFB9F1000F41D0EEB394F8220000027D
:10595000618C40EA2120B086A07E0106608B00F4B5
:105960007F4041EA0021D4F81A0000F47F0041EAA8
:105970001021D4F81A0041EA10603063C6F8FC9098
:105980002620005D0106E08C00F47F4041EA002102
:10599000D4F8260000F47F0041EA1021D4F8260054
:1059A00041EA1061C6F8E010304600F08BFE304648
:1059B00000F0E0FF0321304603F060F9462206F1D3
:1059C0007A00B96900E001E0FAF78BFC3046BDE8E7
:1059D000F0870000340000202DE9FF5F04468A466E
:1059E00090461F46DAF8000080690390039800F1A2
:1059F000220604F1D005707B029030790006B18850
:105A000001F47F4140EA0120716801F47F0140EA1E
:105A10001120716840EA1169002001904FF0100BCD
:105A20004B20005D022801D14BF0020B029800F0E0
:105A30001700584511D000BF00BF0821204603F0D1
:105A40001DF9707B40F00400707307F1280001908D
:105A500014388006000E30734BE0A08EA5F8BA0013
:105A6000A08CA5F8B8004B20005D02281AD104F1E3
:105A70007A0000901021009880F82F104220035BDC
:105A8000494604F1D000D4F8FC2003F0EBF909F109
:105A90000100A8612861286A401C2862686B401CCC
:105AA000686304E0B8F1000F01D1C5F81090E8690F
:105AB000401CE86200BF00BF4B20005D022802D0FE
:105AC000B8F1000F08D01020707307F12800019082
:105AD00014388006000E3073A06BC0F3C04020B9AC
