:020000040800F2
:10000000887700205D0200089D2B00081128000859
:10001000992B0008A9030008D93F00080000000040
:100020000000000000000000000000009D0100082A
:10003000AB04000800000000F90100086138000866
:1000400077020008770200087702000877020008AC
:10005000770200087702000877020008770200089C
:10006000770200087702000877020008770200088C
:10007000770200087702000877020008770200087C
:10008000770200087702000877020008770200086C
:1000900077020008770200087702000811070008BD
:1000A0007702000865390008770200087702000827
:1000B000770200087702000877020008770200083C
:1000C000770200087702000877020008770200082C
:1000D00077020008A93F0008B93F0008C93F00089F
:1000E000770200087702000877020008770200080C
:1000F00077020008770200087702000877020008FC
:1001000077020008E92B0008770200087702000850
:1001100077020008770200087539000877020008A6
:100120007702000877020008AD0300087702000894
:1001300077020008AD040008770200087702000883
:1001400077020008770200087702000877020008AB
:100150007702000877020008BD0300087702000854
:10016000770200087702000877020008770200088B
:1001700077020008770200087702000800000000FC
:100180007702000877020008DFF80CD000F0FAF8D8
:100190000048004739400008887700202C4B196838
:1001A0000868B0E8F04F80F30988BFF36F8F4FF015
:1001B000000080F3118870470000000008480068C4
:1001C000006880F308884FF0000080F3148862B65E
:1001D00061B6BFF34F8FBFF36F8F00DF00BF00BF6B
:1001E00008ED00E0DFF80C00016841F470010160E7
:1001F000704700BF88ED00E0EFF30980BFF36F8F19
:10020000134B1A681EF0100F08BF20ED108A20E96A
:10021000F04F106009B44FF0500080F31188BFF325
:100220004F8FBFF36F8F04F0EBFD4FF0000080F3B2
:10023000118809BC19680868B0E8F04F1EF0100F6B
:1002400008BFB0EC108A80F30988BFF36F8F704746
:100250002C000020EFF3058070470000064880471F
:1002600006480047FEE7FEE7FEE7FEE7FEE7FEE79B
:10027000FEE7FEE7FEE7FEE74939000889010008CE
:100280002DE9F05F0546002092469B4688460646CB
:10029000814640241BE0284641464746224600F05E
:1002A00061F853465A46C01A914110D31146184678
:1002B000224600F048F82D1A67EB01084F46224607
:1002C0000120002100F03FF817EB00094E41201EED
:1002D000A4F10104DFDC484631462A464346BDE826
:1002E000F09F10B5431A934209D28318881803E08F
:1002F00010F8011D03F8011D521EF9D210BD40EA8D
:1003000001039B0703D009E008C9121F08C0042A93
:10031000FAD203E011F8013B00F8013B521EF9D27A
:1003200010BDD2B201E000F8012B491EFBD270478C
:100330000022F6E710B513460A4604461946FFF7B1
:10034000F0FF204610BD202A04DB203A00FA02F11B
:10035000002070479140C2F1200320FA03F31943B3
:1003600090407047202A04DB203A21FA02F0002155
:10037000704721FA02F3D040C2F1200291400843B5
:1003800019467047064C074D06E0E06840F001034F
:1003900094E8070098471034AC42F6D3FFF7F8FE14
:1003A000405400086054000800BFFEE710B5024842
:1003B00000F0CAF910BD00009435002010B50248C5
:1003C00000F0C2F910BD0000F435002001460878A5
:1003D00010381823B0FBF3F20848805CC865032A84
:1003E00005D908686FF30900001D886503E00868F7
:1003F0006FF309008865886D704700001454000889
:10040000014600208A6A8B69CBB932B1012A0DD02E
:10041000022A03D0032A10D10EE000BFCB6A03F0FA
:100420008073B3F1807F00D1012007E0CB6AB3F184
:10043000C07F00D1012001E000E000BF34E08B6903
:10044000B3F5005F1AD132B1012A07D0022A03D0D6
:10045000032A11D10AE000BF01200EE0CB6A03F0AD
:100460008073B3F1807F00D1012006E0CB6AB3F145
:10047000C07F00D1012000E000BF15E032B1012AA9
:1004800005D0022A04D0032A0CD103E000BF00BF2C
:10049000012008E0CB6A03F08073B3F1807F00D1C4
:1004A000012000E000BF00BF7047704710B5024850
:1004B00000F0F6FA10BD00008C00002030B50346B5
:1004C00054794FF0004545EA0424157944EA0500C3
:1004D000084C0C442064D4782406957844EA0544FA
:1004E000557844EA0524157844EA0500014C0C448B
:1004F000606430BD0080024070B5AEB004460E4668
:10050000002526B14FF40061E160C900A160002020
:10051000119012901390149015901690E06918B9EC
:100520004FF48060179001E0002017904FF40070A6
:100530001890002019901A901B901C901D9040203C
:100540001E9000201F9020902190229023902490B4
:1005500025902690802027900020289029902A908E
:100560002B902C902D902068056866480540DDE9A9
:10057000110108431399084314990843A1680843DB
:100580001599084316990843E168084317990843E9
:1005900018990843199908431A9908431B99084365
:1005A00005432946204603F0FCFFDDE91C01084312
:1005B0001E9908431F99084320990843219908432D
:1005C00022990843239908432168486020684568B8
:1005D000012000F04FFA2068456024982168886067
:1005E00025982168C860206885694FF641700540EC
:1005F000DDE9261040EA014028990843299908437B
:100600002A9908432B99084305432946204603F0BD
:10061000D5FFDDE92C0108432168C8612068C56960
:10062000012000F027FA2068C561002001904FF0FA
:1006300000700290002003904FF4001004900020FE
:10064000059006900790089004200990C0050A9034
:1006500040120B9080010C9040120D9080200E9063
:1006600000200F901090206800F580508569264882
:100670000540DDE901010843039908430499084353
:1006800005990843069908430799084308990843C0
:100690000999084305432946204603F06FFFDDE929
:1006A0000A0108430C9908430D9908430E99084321
:1006B0000F9940EA81001099084340F40001206836
:1006C00000F580500160206800F580500568012029
:1006D00000F0D0F9206800F580500560A06901287D
:1006E00009D1206800F58050C06908490843216895
:1006F00001F58051C861002120466269FFF7DEFEE6
:100700002EB070BD0F8120FF233FDEF840000100B6
:1007100010B54FF4007000F005FC10BD70470146A5
:1007200091F83500022803D08020486501207047E9
:10073000052081F835000868006820F001000A688B
:1007400010600020F3E70000F8B504460020009098
:100750008C4800684FF41651B0FBF1F7A56D2E6878
:1007600094F85C1008208840304098B120680068F8
:1007700000F0040070B12068006820F004002168D7
:10078000086094F85C1008208840A860606D40F014
:100790000100606594F85C1001208840304068B129
:1007A0002068406900F0800040B194F85C1001209E
:1007B0008840A860606D40F00200606594F85C10AD
:1007C00004208840304068B12068006800F00200D2
:1007D00040B194F85C1004208840A860606D40F03F
:1007E0000400606594F85C1010208840304078B3B5
:1007F0002068006800F0080050B394F85C101020E6
:100800008840A8602068006800F4802080B12068DB
:10081000006800F4002028B9206CC8B12046216C83
:10082000884715E0A06C98B12046A16C88470FE07E
:100830002068006800F4807028B92068006820F003
:10084000080021680860206C10B12046216C8847A0
:1008500094F85C10202088403040002865D0206843
:10086000006800F0100000285FD094F85C10202091
:100870008840A86094F83500052828D120680068D1
:1008800020F01600216808602068406920F0800090
:1008900021684861206C08B9A06C28B12068006804
:1008A00020F008002168086094F85C103F20884020
:1008B000A86000BF002084F8340000BF012084F845
:1008C0003500206D10B12046216D8847F8BD2068A5
:1008D000006800F4802080B12068006800F40020E7
:1008E00028B9606C10B12046616C88471DE0E06B50
:1008F000D8B12046E16B884717E02068006800F413
:10090000807068B92068006820F0100021680860D5
:1009100000BF002084F8340000BF012084F83500B7
:10092000E06B10B12046E16B8847606D38B3606DB5
:1009300000F00100F0B1052084F83500206800685F
:1009400020F001002168086000BF0098401C009062
:10095000B84200D905E02068006800F001000028D6
:10096000F3D100BF00BF002084F8340000BF012095
:1009700084F83500E06C10B12046E16C884700BF78
:10098000A4E70000280000202DE9F04104460025DE
:1009900000F0E6FB074614B90120BDE8F081606A6B
:1009A00000B100BF00BF002084F8340000BF022067
:1009B00084F835002068006820F001002168086094
:1009C0000AE000F0CDFBC01B052805D9202060659A
:1009D000032084F83500E0E72068006800F001009B
:1009E0000028EED12068056821480540D4E90101BE
:1009F0000843E16808432169084361690843A16924
:100A00000843E1690843216A08430543606A0428F2
:100A100003D1D4E90B010843054320680560206831
:100A2000456925F00705606A0543606A04280DD111
:100A3000A06A0543E06A48B12046FFF7E1FC28B10F
:100A400040206065012084F83500A6E720684561F4
:100A50002046FFF7BBFC064694F85C103F20884018
:100A6000B06000206065012084F83500002094E724
:100A70003F8010F070B5044600F072FB0646254634
:100A8000681C10B104480078054400BF00F068FB02
:100A9000801BA842FAD370BD2400002070470000DC
:100AA00070B5054600BF00BF286800F5805040695A
:100AB0000E4900EA0104286800F58050446104F002
:100AC000C00020B1284600F0A3F900BF00BF04F029
:100AD000010020B1284600F0BFF900BF00BF04F4B8
:100AE000004010B12846FFF7D9FF70BDFBE7013881
:100AF000F8B504460025394E00270CB90120F8BD91
:100B000094F8440010B9204600F076F800BF0020A9
:100B100000903348006840F480403149086008463E
:100B2000006800F48040009000BF00BF2D480068BE
:100B300020F400002B49086008460068216A084339
:100B400028490860206800F58050006840F0810165
:100B5000206800F58050016000BF206800F58050DB
:100B6000006800F001000028F7D12068056925F031
:100B70001C0500F0DBFC06461B48864205D31B48DB
:100B8000864202D245F008051AE01848864205D38D
:100B90001248864202D245F00C0511E00F48864209
:100BA00003D31348864200D20AE01148864205D397
:100BB0001048864202D245F0040501E045F01005D8
:100BC0002068056103F012FE39462046FFF794FCC9
:100BD000012084F84400002091E70000008793037F
:100BE0004438024004380140002D3101C00E160285
:100BF00000E1F50580D1F00810B586B00446142157
:100C000001A8FFF795FB4C49206888427ED100BFC0
:100C100000BF002000904948006840F0007047493C
:100C200008600846006800F00070009000BF00BF38
:100C300000BF002000900846006840F08060086017
:100C40000846006800F08060009000BF00BF00BF51
:100C5000002000900846006840F0006008600846E8
:100C6000006800F00060009000BF00BF00BF00BF40
:100C7000002000900846006840F004000860084624
:100C8000006800F00400009000BF00BF00BF00201B
:100C900000900846006840F00100086008460068BF
:100CA00000F00100009000BF00BF00BF00200090D6
:100CB0000846006840F0020008600846006800F03E
:100CC0000200009000BF00BF3E2001900220029071
:100CD00000200390032004900B20059001A91848E0
:100CE00000F02EF98F200190022002900020039046
:100CF000032004900B20059001A9124800F020F970
:100D000043F6035001900220029000E011E0002021
:100D10000390032004900B20059001A90A4800F0DD
:100D20000FF9002205213D2000F0CAFA3D2000F015
:100D3000B7FA06B010BD0000008002403038024013
:100D40000008024000000240000402402DE9F04784
:100D500004460F4690460025A94694F84400822890
:100D600001D1022644E000BF94F84500012802D1D9
:100D70000220BDE8F087012084F8450000BF8220F2
:100D800084F844002068056905F01C05208A4FF4AA
:100D9000784101EAC0200543481100EA8710054365
:100DA00025F0020545F001052068056100F0D8F93D
:100DB000814613E02068056905F0010028B9206824
:100DC0004069C8F80000002609E000F0C9F9A0EB6E
:100DD0000900B0F5803F01D3032600E0EAE700BF39
:100DE000012084F8440000BF002084F8450000BFC3
:100DF0001EB1314602A003F01CF93046B9E70000ED
:100E0000526561645048593A2025640A0000000088
:100E100038B50446002000900C48006840F00100FE
:100E20000A4908600A48006870B1694608480068C5
:100E300003F0F0FE009838B14FF08050054908608B
:100E4000BFF34F8FBFF36F8F38BD0000000000204D
:100E50001000002004ED00E0704700002DE9F0478D
:100E600004460F4690460025A94694F844004228BF
:100E700001D1022644E000BF94F84500012802D1C8
:100E80000220BDE8F087012084F8450000BF422021
:100E900084F844002068056905F01C05208A4FF499
:100EA000784101EAC0200543481100EA8710054354
:100EB00045F0020545F001051FFA88F021684861F8
:100EC0002068056100F04CF981460FE02068056953
:100ED00005F0010008B9002609E000F041F9A0EB97
:100EE0000900B0F5803F01D3032600E0EEE700BF24
:100EF000012084F8440000BF002084F8450000BFB2
:100F00001EB1314602A003F094F83046B9E7000064
:100F100057726974655048593A2025640A000000E8
:100F20007047000010B5044604480068204020B116
:100F3000024804602046FFF7F3FF10BD143C014057
:100F4000F8B502460B460025002400200021DCE015
:100F5000012606FA01F51E6806EA0504AC4273D1C3
:100F60005E68012E08D05E68022E05D05E68112EE4
:100F700002D05E68122E13D190684F000326BE4047
:100F8000B0434F00DE68BE40304390605068012699
:100F90008E40B0431E79C6F300168E403043506039
:100FA000D0684F000326BE40B0434F009E68BE404D
:100FB0003043D0605E68022E02D05E68122E13D1DC
:100FC000CF0802F1200656F827004E07F70E0F262D
:100FD000BE40B0434F07FF0E1E69BE403043CF08EE
:100FE00002F1200646F8270010684F000326BE4095
:100FF000B0431E7906F003064F00BE403043106038
:101000005E6806F08056B6F1805F7DD100BF002695
:101010000096404E366846F480463E4F3E603E465F
:10102000366806F48046009600BF00BF3A4E8F082F
:1010300056F827008E07370F0F26BE40B043374EB5
:10104000B24202D1002624E05EE0354EB24201D128
:1010500001261EE0334EB24201D1022619E0324E83
:10106000B24201D1032614E0304EB24201D104262F
:101070000FE02F4EB24201D105260AE02D4EB242BA
:1010800001D1062605E02C4EB24201D1072600E030
:1010900008268F073F0FBE4030431F4E8F0846F88B
:1010A0002700264E3068A0435E6806F48036B6F509
:1010B000803F00D12043214E3060361D3068A04370
:1010C0005E6806F40036B6F5003F00D120431B4EA3
:1010D000361D3060361D3068A0435E6806F4801609
:1010E000B6F5801F00D12043144E08363060361DFF
:1010F0003068A0435E6806F40016B6F5001F00D104
:1011000020430E4E0C363060491C1029FFF420AFEE
:10111000F8BD000044380240083801400000024099
:101120000004024000080240000C0240001002408F
:101130000014024000180240001C0240003C014024
:1011400042690A408A4202D10A04826100E0816158
:1011500070470AB1816101E00B04836170470000B0
:1011600001480068704700001C0000200348006828
:101170000349097808440149086070471C000020B1
:101180002400002010B50D48006840F400700B49A1
:1011900008600846006840F48060086008460068FF
:1011A00040F480700860032000F0C8F8002000F0D0
:1011B00007F800F04BF8002010BD0000003C024092
:1011C00070B588B00446002500260022214619206B
:1011D00000F076F8192000F063F800BF00200190BD
:1011E0001648006840F0010014490860084600688D
:1011F00000F00100019000BF00BF02A903A800F0A9
:1012000073F900F0A9F945000D48B5FBF0F0461E52
:101210000C480D49086040F2E7310B48C160466058
:1012200000210161816000F0C9FF20B9064801F08A
:1012300003F808B070BD0120FBE70000443802400D
:1012400040420F00000001405436002008B500BFA6
:10125000002000901148006840F480400F49086069
:101260000846006800F48040009000BF00BF00BF47
:1012700000200090081F006840F08050091F08609F
:101280000846006800F08050009000BF00BF0022B8
:101290000F21901E00F014F808BD000044380240F1
:1012A00001460846002809DB00F01F0301229A408E
:1012B00043099B0003F1E023C3F8002100BF7047FE
:1012C0002DE9F05F80460D461646002702F086FEA7
:1012D000074639462A46334601F00700C0F1070A9F
:1012E000BAF1040F02D94FF0040A01E0C0F1070A75
:1012F000D14600F1040ABAF1070F02D24FF0000AFA
:1013000001E0A0F1030AD4464FF0010A0AFA09FAF3
:10131000AAF1010A0AEA020A0AFA0CFA4FF0010BD2
:101320000BFA0CFBABF1010B0BEA030B4AEA0B04C3
:101330002146404602F05AFEBDE8F09F00BF00F093
:101340000702064B19684FF6FF031940044B0B4385
:1013500043EA0221014B196000BF70470CED00E029
:101360000000FA0570B504460D460CB9012070BDA9
:101370005848006800F00F00A84209D255490D7086
:101380000846006800F00F00A84201D00120EEE7F7
:10139000207800F0020002281DD1207800F004001F
:1013A000042805D14C48006840F4E0504A490860E0
:1013B000207800F00800082805D14748006840F46C
:1013C0006040454908604448006820F0F000A1688A
:1013D000084341490860207800F00100A8B3606824
:1013E000012807D13C4808380068C0F34040B8B92C
:1013F0000120BCE76068022802D06068032807D19A
:10140000354808380068C0F3406048B90120AEE7AD
:10141000314808380068C0F3400008B90120A6E749
:101420002D48006820F00300616808432A490860DD
:10143000FFF796FE064609E0FFF792FE801B41F299
:101440008831884202D9032091E707E022480068EA
:1014500000F00C006168B0EB810FEDD11D48006811
:1014600000F00F00A84209D91A490D70084600681B
:1014700000F00F00A84201D0012078E7207800F0AA
:101480000400042807D11448006820F4E050E16803
:10149000084311490860207800F00800082808D1A6
:1014A0000D48006820F46040216940EAC1000A4903
:1014B000086000F061F808490968C1F30311074AA0
:1014C000515CC8400649086006480068FFF778FE8E
:1014D00000204CE7003C0240083802401C54000841
:1014E00028000020200000200F2202600D4A126810
:1014F00002F0030242600B4A126802F0F0028260BE
:10150000084A126802F4E052C260064A126802F405
:101510006042D2080261044A126802F00F020A60B7
:101520007047000008380240003C02400148006853
:10153000704700002800002000B5FFF7F7FF0449BE
:101540000968C1F38221034A515CC84000BD000014
:10155000083802402C54000800B5FFF7E7FF0449A3
:101560000968C1F34231034A515CC84000BD000024
:10157000083802402C5400082DE9F04700240025CB
:101580000026A1462548006800F00C0020B1042880
:1015900005D008283AD105E0DFF8849039E0DFF87B
:1015A000849036E01D48001F006800F03F041B488F
:1015B000001F006800F4800078B11A481749091F1D
:1015C0000968C1F38811A0FB01700146224600237F
:1015D0003846FEF755FE05460EE011480F49091F33
:1015E0000968C1F38811A0FB01700146224600235F
:1015F0003846FEF745FE05460848001F0068C0F360
:101600000140401C4600B5FBF6F902E0DFF81090FF
:1016100000BF00BF4846BDE8F08700000838024020
:101620000024F40040787D01F8B504460CB901208F
:10163000F8BD207800F00100002874D0F948006857
:1016400000F00C0004280DD0F648006800F00C00F3
:10165000082813D1F348001F006800F48000B0F59B
:10166000800F0BD1EF4808380068C0F340400028D5
:1016700059D06068002856D10120D9E700BF6068C2
:10168000B0F5803F08D1E7480838006840F4803062
:10169000E449083908601EE06068B0F5A02F0DD15C
:1016A000E0480838006840F48020DE4908390860C6
:1016B0000846006840F4803008600CE0D9480838DB
:1016C000006820F48030D74908390860084600686F
:1016D00020F48020086000BF606890B1FFF740FDF3
:1016E000054606E0FFF73CFD401B642801D90320B6
:1016F0009EE7CC4808380068C0F340400028F1D08D
:1017000011E0FFF72DFD054606E0FFF729FD401B20
:10171000642801D903208BE7C24808380068C0F369
:1017200040400028F1D1207800F0020002285FD16B
:10173000BC48006800F00C0058B1BA48006800F0DE
:101740000C0008281CD1B748001F006800F4800076
:10175000B0B9B44808380068C0F3400020B1E06870
:10176000012801D0012063E7AE480838006820F066
:10177000F800216940EAC100AA490839086037E049
:10178000E06800B30120A8490860FFF7E9FC0546BE
:1017900006E0FFF7E5FC401B022801D9032047E7DC
:1017A000A04808380068C0F340000028F1D09D48E8
:1017B0000838006820F0F800216940EAC100994922
:1017C0000839086014E0002097490860FFF7C8FC5A
:1017D000054606E0FFF7C4FC401B022801D90320A0
:1017E00026E7904808380068C0F340000028F1D18F
:1017F000207800F0080008282CD16069A8B10120E9
:101800008A490860FFF7ACFC054606E0FFF7A8FC34
:10181000401B022801D903200AE782486C30006887
:10182000C0F340000028F1D014E000207F49086098
:10183000FFF796FC054606E0FFF792FC401B0228E6
:1018400001D90320F4E677486C300068C0F340000B
:101850000028F1D1207800F00400042870D100277E
:1018600070483830006800F0805090B900BF002008
:1018700000906C483830006840F080506949383139
:1018800008600846006800F08050009000BF00BF6C
:1018900001276748006800F48070B0B964480068A8
:1018A00040F4807062490860FFF75AFC054606E084
:1018B000FFF756FC401B022801D90320B8E65C481C
:1018C000006800F480700028F2D000BFA0680128F2
:1018D00008D154486830006840F00100514968312F
:1018E00008601DE0A06805280DD14E4868300068EA
:1018F00040F004004B49683108600846006840F039
:10190000010008600CE047486830006820F00100E2
:101910004449683108600846006820F00400086007
:1019200000BFA068A8B1FFF71BFC054609E0FFF760
:1019300017FC401B41F28831884202D9032077E628
:1019400026E0384868300068C0F340000028EED038
:1019500013E0FFF705FC054608E0FFF701FC401B1C
:1019600041F28831884201D9032061E62D48683070
:101970000068C0F340000028EFD1012F07D12948AB
:101980003830006820F0805026493831086000BFA8
:10199000A069002845D02348006800F00C00082802
:1019A0005DD0A069022845D100201F490866FFF7D5
:1019B000D7FB054606E0FFF7D3FB401B022801D901
:1019C000032035E6174808380068C0F34060002857
:1019D000F1D1D4E907010843616A40EA811101228B
:1019E000A06AC2EB500041EA00412C20005D41EAB0
:1019F00000600C49091F086001200B490866FFF7C9
:101A0000AFFB054606E0FFF7ABFB401B022801D900
:101A100003200DE6034808380068C0F34060002842
:101A2000F1D03FE00838024000004742800E4742B4
:101A30000070004000201C490866FFF791FB054636
:101A400006E0FFF78DFB401B022801D90320EFE5DC
:101A500016480068C0F340600028F2D122E0A06977
:101A6000012800D1E4E51148001D066806F4800154
:101A7000E069814214D106F03F01206A81420FD112
:101A800047F6C0703040616A884209D106F440319F
:101A9000A06A814204D106F07061E06A814201D0FF
:101AA0000120C5E50020C3E50000474200380240A0
:101AB0007047000070B58AB004460D46032084F8D4
:101AC0003400606C032820D0B5F5805F04D1A06B92
:101AD00040F08050A0631CE0B5F5006F07D12046B0
:101AE00001F051FE0646A06B3043A06311E03DB902
:101AF000204601F014FE0646A06B3043A06308E0C8
:101B0000A06B40F00060A06303E0A06B40F0805049
:101B1000A063A06B38B1104821688863012084F865
:101B200034000AB070BD60680490A0680590E06859
:101B30000690079560690890A069099007A807C8F2
:101B40008DE80700206804A90EC901F055F80120AE
:101B500084F834000020E4E7FF05400070470000EF
:101B600010B50246506E800F0870506EC0F383604F
:101B70004870506EC0F301608870506E000CC870E1
:101B8000B2F86400000A087192F864004871906E1F
:101B9000000DC880906EC0F3034008726820805A20
:101BA000C0F3C03048726820805AC0F38030887219
:101BB0006820805AC0F34030C8726820805AC0F351
:101BC0000030087300204873506C002836D168201C
:101BD000805A8005030DD06E43EA90700861D06E84
:101BE000C0F3C2600875D06EC0F302604875D06E55
:101BF000C0F342508875D06EC0F38240C875D06E75
:101C0000C0F3C23008760869401C50650B7E506DE9
:101C100003F007039B1C01249C4060435065087A35
:101C200000F00F03012098409065D2E915035B0A8C
:101C30005843D0654FF40073136621E0506C0128BF
:101C400013D16820805C8006830AD06E43EA10407E
:101C500008610869401C83025365536DD3654FF4D6
:101C600000739365936D13660AE02E4813689863BA
:101C7000906B40F080509063012082F8340010BDDA
:101C80006C20805AC0F3803001F8190F6C20805A04
:101C9000C0F3C61048706C20805C00F07F00887034
:101CA000106FC00FC870106FC0F341700871106FD3
:101CB000C0F382604871106FC0F383508871106F59
:101CC000C0F34050C87100200872106FC0F300408C
:101CD00048727020805AC0F3C03088727020805AD9
:101CE000C0F38030C8727020805AC0F3403008734F
:101CF0007020805AC0F3003048737020805AC0F3BF
:101D0000812088737020805AC0F30120C87370202E
:101D1000805CC0F346000874012048741939002023
:101D2000ADE70000FF054000F8B504460020009034
:101D30006946204601F0DBFC054615B1A06B28433F
:101D4000A0630098C0F343263046F8BD70B5044642
:101D5000256B2068406BC0F3C03030B105F008003F
:101D600018B1204601F09EFCF8E02068406BC0F3FB
:101D70000020002862D04FF48070216888632068BA
:101D8000C06B4CF23A3188432168C8632068C06A4E
:101D900020F001002168C86205F0080038B305F0A2
:101DA000020010B905F0200050B1206801F0ACF835
:101DB00006462EB1A06B3043A0632046FFF7CEFE4F
:101DC00040F23A5021688863012084F834000020F2
:101DD000206305F0010010B905F0020018B120469B
:101DE00000F08EF9BAE0204600F08BF9B6E005F07D
:101DF00080000028B8D005F0200050B1206801F024
:101E000083F806462EB1A06B3043A0632046FFF74F
:101E1000A5FE05F001000028A6D105F0020000286B
:101E2000A2D12068C06A20F008002168C8620120A1
:101E300084F83400204600F064F98FE02068406B9D
:101E4000C0F3803030B105F0080018B1204601F031
:101E5000CEFC83E02068406B40F23A21084008B194
:101E6000012000E00020002878D02068406BC0F3FB
:101E7000400018B1A06B40F00200A0632068406BE6
:101E8000C0F3C00018B1A06B40F00800A063206848
:101E9000406BC0F3401018B1A06B40F02000A0636D
:101EA0002068406BC0F3001018B1A06B40F0100028
:101EB000A0632068406BC0F3402018B1A06B40F0D5
:101EC0000800A06340F23A70216888632068C06B04
:101ED00040F23A3188432168C863206801F014F861
:101EE000A16B0843A06305F0080040B1012084F80D
:101EF0003400002020632046FFF730FE2EE005F07E
:101F0000800000B305F0100010B905F0200050B1BA
:101F10001348E16B0865E06BFEF701FC98B1E06BDC
:101F200001F01AFA1AE005F0010010B905F00200FC
:101F300050B10C48216C0865206CFEF7F0FB10B125
:101F4000206C01F0E5F909E00020A063012084F88D
:101F50003400002020632046FFF7AAFD70BD00007A
:101F6000593300081133000810B504460CB901209C
:101F700010BD94F8340020B900202077204600F0EE
:101F800053F8032084F83400204600F00BF808B121
:101F90000120EDE70020A0632063012084F83400D5
:101FA0000020E5E770B58AB0044600200490059053
:101FB0000690079008907620099007A807C88DE83A
:101FC0000700206804A90EC900F016FE064616B1E7
:101FD00001200AB070BD002012490860206800F09E
:101FE00025FE01200F49A039C1F8A000204601F0CC
:101FF000F3FA05463DB1012084F83400A06B284374
:10200000A0630120E5E7204601F064FA05463DB1F2
:10201000012084F83400A06B2843A0630120D8E796
:102020000020D6E7A080254210B586B004461421D2
:1020300001A8FEF77DF92E492068884255D100BFDE
:10204000002000902B48006840F400602949086097
:102050000846006800F40060009000BF00BF00BFA9
:102060000020009023481438006840F00400214903
:10207000143908600846006800F00400009000BFB2
:1020800000BF00BF002000900846006840F0080034
:1020900008600846006800F00800009000BF00BF1C
:1020A0004FF4F8500190022002900020039003208A
:1020B00004900C20059001A90F48FEF741FF042071
:1020C00001900220029000200390032004900C2035
:1020D000059001A90948FEF733FF002205213120B0
:1020E000FFF7EEF83120FFF7DBF806B010BD000077
:1020F000002C01404438024000080240000C02401D
:10210000704770477047704730B502460B4600BFB6
:1021100092F83C00012801D1022030BD012082F854
:102120003C0000BF022082F83D001068446810683F
:10213000816824F070041868044310684460184DE6
:102140001068A8421BD01068B0F1804F17D0154D11
:102150001068A84213D0144D1068A8420FD0134D38
:102160001068A8420BD0124D1068A84207D0114D3C
:102170001068A84203D0104D1068A84205D121F084
:1021800080015868014310688160012082F83D0099
:1021900000BF002082F83C0000BF00BFBDE7000088
:1021A000000001400004004000080040000C004016
:1021B00000040140004001400018004010B50446F2
:1021C0000CB9012010BD94F83D0028B9002084F816
:1021D0003C00204600F00CF8022084F83D00211D50
:1021E000206801F0CFFB012084F83D000020E9E7E2
:1021F00038B504460E492068884217D100BF002038
:1022000000900C48006840F010000A490860084639
:10221000006800F01000009000BF00BF0022052100
:102220003620FFF74DF83620FFF73AF838BD0000AA
:10223000001000404038024001460868C06840F085
:1022400001000B68D8600868806800F00702062A61
:1022500005D00868006840F001000B681860002095
:102260007047704710B5044620680069C0F340000D
:10227000D8B12068C068C0F34000B0B16FF0020070
:1022800021680861012020772068806900F0030040
:1022900018B12046FFF7E5FF05E0204600F0ADF855
:1022A000204600F0ABF80020207720680069C0F3DA
:1022B0008000D8B12068C068C0F38000B0B16FF072
:1022C000040021680861022020772068806900F4FA
:1022D000407018B12046FFF7C4FF05E0204600F02B
:1022E0008CF8204600F08AF80020207720680069EA
:1022F000C0F3C000D8B12068C068C0F3C000B0B15E
:102300006FF0080021680861042020772068C06908
:1023100000F0030018B12046FFF7A3FF05E02046B8
:1023200000F06BF8204600F069F800202077206864
:102330000069C0F30010D8B12068C068C0F3001075
:10234000B0B16FF010002168086108202077206884
:10235000C06900F4407018B12046FFF782FF05E025
:10236000204600F04AF8204600F048F80020207788
:102370002068006900F0010058B12068C06800F0D2
:10238000010030B16FF0010021680861204600F0C3
:1023900037F820680069C0F3C01058B12068C068E1
:1023A000C0F3C01030B16FF0800021680861204692
:1023B000FFF7A8FE20680069C0F3801058B12068BC
:1023C000C068C0F3801030B16FF040002168086130
:1023D000204600F021F820680069C0F3401058B191
:1023E0002068C068C0F3401030B16FF02000216851
:1023F00008612046FFF787FE10BD70477047000058
:1024000010B5044603492068884201D1FEF7AEFEAC
:1024100010BD000000000140704770472DE9F047F3
:102420000446206805682068C668206847694FF040
:102430000008C14605F00F08B8F1000F0AD105F0F9
:10244000200038B106F0200020B1204601F030FB1A
:10245000BDE8F087B8F1000F72D007F0010018B99D
:1024600006F4907000286BD005F0010030B106F43E
:10247000807018B1E06B40F00100E06305F00400EB
:1024800030B107F0010018B1E06B40F00200E063EA
:1024900005F0020030B107F0010018B1E06B40F028
:1024A0000400E06305F0080048B106F0200010B910
:1024B00007F0010018B1E06B40F00800E063E06B4A
:1024C00070B305F0200028B106F0200010B12046BE
:1024D00001F0EEFA20684069C0F38019E06B00F06B
:1024E000080010B9B9F1000F23D0204601F0C0FA5E
:1024F0002068406900F04000402816D120684069FB
:1025000020F0400021684861606B50B11748616B52
:102510000865606BFEF703F910B1606B016D8847C9
:102520000CE02046FFF779FF08E02046FFF775FF33
:1025300004E02046FFF771FF0020E06388E7FFE733
:1025400005F0800030B106F0800018B1204601F09F
:10255000F7FC7DE705F0400030B106F0400018B10F
:10256000204601F095FA73E700BF71E75D3A000875
:1025700010B504460CB9012010BDA06900B100E0FF
:1025800000BF94F8390028B9002084F838002046AC
:1025900000F028F8242084F839002068C06820F46E
:1025A00000502168C860204601F0D6FA2068006912
:1025B00020F49040216808612068406920F02A00DA
:1025C000216848612068C06840F400502168C860F4
:1025D0000020E063202084F8390084F83A000020CD
:1025E000CAE7000010B586B00446142101A8FDF723
:1025F0009FFE7D492068884276D100BF0020009070
:102600007A48006840F01000784908600846006881
:1026100000F01000009000BF00BF00BF002000903D
:1026200072481438006840F001007049143908609D
:102630000846006800F00100009000BF00BF4FF4A2
:10264000C0600190022002900020039003200490BB
:102650000720059001A96648FEF772FC65486649A7
:1026600008604FF000604860002163488160C160ED
:102670004FF480610161002141618161C1610162AA
:102680004162FEF781F908B1FEF748F800BF5A48E9
:102690006063846300BF57487830584908604FF042
:1026A000006048604021554881600021C1604FF4BE
:1026B00080610161002141618161C161016241620A
:1026C000FEF762F908B1FEF729F800BF4B48206316
:1026D000846300BF002205212520FEF7F1FD25209F
:1026E000FEF7DEFD7EE0FFE74549206888423AD1EB
:1026F00000BF002000903D48001F006840F40030FB
:102700003A49091F08600846006800F4003000904C
:1027100000BF00BF00BF002000903448143800689C
:1027200040F008003149143908600846006800F09C
:102730000800009000BF00BF6020019002200290BE
:1027400000200390032004900720059001A92D4844
:10275000FEF7F6FB002205212620FEF7B1FD26201C
:10276000FEF79EFD3EE02849206888423AD100BF2E
:10277000002000901D48001F006840F480201B4985
:10278000091F08600846006800F48020009000BF20
:1027900000BF00BF0020009014481438006840F0CB
:1027A00008001249143908600846006800F0080063
:1027B000009000BF00BF4FF44070019002200290D3
:1027C00000200390032004900720059001A90D48E4
:1027D000FEF7B6FB002205212720FEF771FD27201A
:1027E000FEF75EFD06B010BD001001404438024007
:1027F000000002404064024094350020F43500207F
:1028000000440040000C0240004800407047704700
:1028100000BFFEE708B500BF002000900E4800682A
:1028200040F480000C4908600846006800F480000D
:10283000009000BF00BF002205213A20FEF740FDB6
:102840003A20FEF72DFD002205214620FEF738FD37
:102850004620FEF725FD08BD3038024010B514486B
:1028600014490860012048600121124801820021BA
:102870004069017080210F4840694170E1210D4895
:102880004069817000210B484069C1700948406966
:1028900001710848406941710121064881610021A8
:1028A000C1610162FEF724F908B1FDF737FF10BDE1
:1028B000008002407431002000B587B01C22064918
:1028C0006846FDF70EFD0021684601F0E7FB03496D
:1028D000086007B000BD0000F85300081800002091
:1028E00000B587B0142102A8FDF722FD00BF00202B
:1028F00001905648006840F00400544908600846BA
:10290000006800F00400019000BF00BF00BF00207D
:1029100001900846006840F08000086008460068A2
:1029200000F08000019000BF00BF00BF00200190B8
:102930000846006840F0010008600846006800F0A2
:102940000100019000BF00BF00BF002001900846B9
:10295000006840F0020008600846006800F00200CD
:10296000019000BF00BF00BF002001900846006832
:1029700040F0100008600846006800F01000019068
:1029800000BF00BF00BF002001900846006840F073
:10299000080008600846006800F00800019000BFC9
:1029A00000BF00224FF4E0412948FEF7D2FB00228D
:1029B0004FF480512748FEF7CCFB00221121264816
:1029C000FEF7C7FB4FF4E040029001200390002087
:1029D0000490059002A91E48FEF7B2FA4FF4004099
:1029E0000290002003900120049002A91848FEF7ED
:1029F000A7FA4FF480500290012003900020049029
:102A0000059002A91348FEF79BFA112002900120BD
:102A1000039000200490059002A90F48FEF790FA59
:102A20004FF4007002900D4803900020049002A91A
:102A30000B48FEF785FA002205211720FEF740FC1F
:102A40001720FEF72DFC07B000BD00003038024013
:102A50000010024000000240000C02400000111073
:102A60000004024010B50D480D4908600020486080
:102A700000210B488160C1600161416103218161D6
:102A8000FFF772FA08B1FDF749FE4FF40061044800
:102A9000FFF710F808B1FDF741FE10BD002C014012
:102AA000103400201CB50020009001900E480F4902
:102AB000086040F24730486000210C4881600921DD
:102AC000C16000218161FFF779FB08B1FDF726FEA7
:102AD000202000900020019069460448FFF714FB75
:102AE00008B1FDF71BFE1CBD00100040943400200F
:102AF00010B50B480B4908604FF4E13048600021E5
:102B000008488160C16001610C214161002181613F
:102B1000C161FFF72DFD08B1FDF700FE10BD0000FB
:102B200000100140D434002010B50B480B49086058
:102B30004FF4E1304860002108488160C1600161C4
:102B40000C21416100218161C161FFF711FD08B1D4
:102B5000FDF7E4FD10BD00000044004014350020E6
:102B600010B50B480B4908604FF4E1304860002174
:102B700008488160C16001610C21416100218161CF
:102B8000C161FFF7F5FC08B1FDF7C8FD10BD0000FD
:102B9000004800405435002000BFFEE7704710B5E4
:102BA000024600230868506248689062D1E9020436
:102BB00020430C6920434C6920430343D06A20F032
:102BC000F7001843D062002010BD01460869C0B26A
:102BD00070470146086800F003007047024602F1A2
:102BE000140043181868704710B50248FFF7AEF894
:102BF00010BD0000103400200FB410B504460021B1
:102C0000DDE903021043059A1043069A1043079A20
:102C10001043089A10430143606847F6FF629043EF
:102C200008436060002010BC5DF814FB10B504463A
:102C3000032020600220FDF71DFF002010BD01468B
:102C4000D1F88000704710B50246002308689060F4
:102C5000D1E901042043CC6820430C69204303439D
:102C6000D0686FF30B001843D060002010BD0246FF
:102C70000868C2F880000020704770B586B005462D
:102C80000C460194372002904020039000200490CD
:102C90004FF48060059001A92846FFF7D4FF41F268
:102CA00088323721284600F06DF90646304606B0D6
:102CB00070BD000070B586B005460C460B48204339
:102CC00001902920029040200390002004904FF4AE
:102CD0008060059001A92846FFF7B5FF284600F05F
:102CE00059FA0646304606B070BD0000000010805C
:102CF00070B586B005460C46019410200290402025
:102D00000390002004904FF48060059001A92846AC
:102D1000FFF799FF41F288321021284600F032F97E
:102D20000646304606B070BD70B586B005460C4606
:102D300001940620029040200390002004904FF45C
:102D40008060059001A92846FFF77DFF41F2883297
:102D50000621284600F016F90646304606B070BD3A
:102D600030B585B004460020009001900290039099
:102D70004FF48060049069462046FFF764FF2046C8
:102D800000F0E0F80546284605B030BD30B585B006
:102D900004464FF4D5700090082001904020029026
:102DA000002003904FF48060049069462046FFF7AE
:102DB0004AFF204600F076FA0546284605B030BDA9
:102DC000F0B585B0064614461D46009407200190D4
:102DD00040200290002003904FF4806004906946E8
:102DE0003046FFF730FF41F288320721304600F0CD
:102DF000C9F80746384605B0F0BD30B585B0044681
:102E00000020009002200190C0200290002003903A
:102E10004FF48060049069462046FFF714FF204677
:102E200000F086F90546284605B030BD70B586B07D
:102E300005460C46019409200290C0200390002012
:102E400004904FF48060059001A92846FFF7FBFE2F
:102E5000284600F06DF90646304606B070BD30B524
:102E600085B004460020009033200190402002905D
:102E7000002003904FF48060049069462046FFF7DD
:102E8000E2FE41F288323321204600F07BF805460D
:102E9000284605B030BD70B586B005460C46019495
:102EA0000D20029040200390002004904FF4806099
:102EB000059001A92846FFF7C6FE41F288320D2190
:102EC000284600F05FF80646304606B070BD70B583
:102ED00086B005460C460020019003200290402059
:102EE0000390002004904FF48060059001A92846CB
:102EF000FFF7A9FE22460321284600F077F906468F
:102F0000304606B070BD000030B585B004460020E4
:102F100000900C20019040200290002003904FF47C
:102F20008060049069462046FFF78DFE044A0C211C
:102F3000204600F027F80546284605B030BD0000C1
:102F400000E1F50501460E480068C0084FF47A73A9
:102F5000B0FBF3F041F2883300FB03F200BF100036
:102F6000A2F1010202D14FF000407047486B00F01F
:102F700080000028F3D0C52088630020F5E700001A
:102F8000280000202DE9F04305460F46904666488C
:102F90000068C0084FF47A71B0FBF1F000FB08F94B
:102FA00000BF5FEA0900A9F1010903D14FF0004019
:102FB000BDE8F0836E6B06F045000028F1D006F402
:102FC00000600028EDD1686B00F0040010B104200F
:102FD000A863EDE7686B00F0010010B10120A86361
:102FE000E6E7C520A8632846FFF7EFFDB84201D009
:102FF0000120DDE700212846FFF7F0FD04464B489D
:10300000204008B90020D3E704F00040B0F1004FA1
:1030100002D14FF00070CBE704F08040B0F1804F58
:1030200001D14020C4E704F00050B0F1005F01D1AD
:103030008020BDE704F08050B0F1805F02D14FF4F2
:103040008070B5E704F00060B0F1006F02D14FF47A
:103050000070ADE704F08060B0F1806F02D14FF4F2
:103060008060A5E704F08070B0F1807F02D14FF45A
:1030700000609DE704F40000B0F5000F02D14FF4AA
:10308000805095E704F48000B0F5800F02D14FF432
:1030900000508DE704F40010B0F5001F02D14FF48A
:1030A000804085E704F48010B0F5801F02D14FF412
:1030B00000407DE704F48020B0F5802F02D14FF46A
:1030C000003075E704F40030B0F5003F02D14FF452
:1030D00080206DE704F48030B0F5803F02D14FF4DA
:1030E000002065E704F40040B0F5004F02D14FF432
:1030F00080105DE704F48040B0F5804F02D14FF4BA
:10310000001055E704F40050B0F5005F02D14FF411
:1031100080004DE704F00800082801D1000547E7CA
:103120004FF4803044E700002800002008E0FFFD55
:1031300010B5014616480068C0084FF47A74B0FB19
:10314000F4F041F2883400FB04F300BF1800A3F14F
:10315000010302D14FF0004010BD4A6B02F0450060
:103160000028F3D002F400600028EFD1486B00F093
:10317000040010B104208863EEE7486B00F0010002
:1031800010B101208863E7E7C52088630020E3E7EA
:103190002800002010B5014613480068C0084FF40D
:1031A0007A74B0FBF4F041F2883400FB04F300BF02
:1031B0001800A3F1010302D14FF0004010BD4A6B8B
:1031C00002F045000028F3D002F400600028EFD19F
:1031D000486B00F0040010B104208863EEE7C520BE
:1031E00088630020EAE70000280000202DE9F04372
:1031F00004460F4690462A480068C0084FF47A718A
:10320000B0FBF1F041F2883100FB01F900BF5FEA49
:103210000900A9F1010903D14FF00040BDE8F08396
:10322000666B06F045000028F1D006F40060002827
:10323000EDD1606B00F0040010B10420A063EDE755
:10324000606B00F0010010B10120A063E6E72046AA
:10325000FFF7BBFCB84201D00120DFE7C520A06327
:1032600000212046FFF7BAFC054605F4604020B96E
:10327000280CA8F800000020D0E705F48040B0F545
:10328000804F02D14FF40050C8E705F40040B0F57C
:10329000004F02D14FF48050C0E74FF48030BDE7BB
:1032A0002800002010B5014618480068C0084FF4F7
:1032B0007A74B0FBF4F041F2883400FB04F300BFF1
:1032C0001800A3F1010302D14FF0004010BD4A6B7A
:1032D00002F045000028F3D002F400600028EFD18E
:1032E000486B00F0040010B104208863EEE7486BDF
:1032F00000F0010010B101208863E7E7486B00F09F
:10330000400008B1402088630020DFE7280000204B
:1033100070B50546AC6B40F23A5021688863204690
:10332000FEF702FD0646012084F8340000202063E9
:10333000062E01D0052E05D12068FFF7E5FDA16B13
:103340000843A063A06B18B92046FEF7B1FB02E06A
:103350002046FEF703FC70BD70B50546AC6B40F22D
:103360003A50216888632046FEF7DEFC06460120BD
:1033700084F8340000202063062E01D0052E05D1EC
:103380002068FFF7C1FDA16B0843A063A06B18B9CB
:103390002046FEF78DFB02E02046FEF7DFFB70BD06
:1033A0002DE9F04389B004460F46FDF7D9FE81466A
:1033B0004FF000080020019002903E46082120684E
:1033C000FFF796FC05461DB1284609B0BDE8F0831D
:1033D0005022125B11042068FFF74FFC05460DB127
:1033E0002846F2E74FF0FF30039008200490302089
:1033F000059002200690002007900120089003A964
:103400002068FFF7CCFB2068FFF729FD05460DB1CA
:103410002846DAE715E02068406B00F4001038B168
:103420002068FFF70CFC01A941F8280008F1010809
:10343000FDF796FEA0EB0900401C10B94FF00040CC
:10344000C3E72068406B40F22A4108400028E2D0E0
:103450002068406B00F0080018B1082021688863DC
:10346000B3E72068406B00F0020018B10220216829
:103470008863AAE72068406B00F0200018B1202084
:1034800021688863A1E740F23A5021688863029876
:103490000006029901F47F4140EA0120029901F4FB
:1034A0007F0140EA1120029940EA11603060361D28
:1034B00001980006019901F47F4140EA0120019939
:1034C00001F47F0140EA1120019940EA1160306067
:1034D00000207AE730B58FB00446012003902068C1
:1034E000FFF777FB18B94FF080600FB030BD606C0C
:1034F00003281BD02068FFF780FC05460DB1284645
:10350000F3E700212068FFF769FB6067042120686A
:10351000FFF764FBA06708212068FFF75FFBE06707
:103520000C212068FFF75AFB80210851606C0328AA
:1035300007D003A92068FFF7CAFC05460DB128464D
:10354000D3E7606C032820D0BDF80C102165502211
:10355000125B11042068FFF769FC05460DB128468F
:10356000C3E700212068FFF739FB6066042120686B
:10357000FFF734FBA06608212068FFF72FFBE06609
:103580000C212068FFF72AFB206704212068FFF741
:1035900025FB010DE16404A92046FEF7E1FA10B114
:1035A0004FF08050A1E75020005B01040A46002341
:1035B0002068FFF705FC05460DB1284695E7D4E9DC
:1035C0000412A069CDE90012029094E80F00FFF701
:1035D00013FB002089E70000F8B5044600200090A6
:1035E000002600272068FFF7BBFB05460DB12846E3
:1035F000F8BD2068FFF7CAFB054645B10021A1646C
:103600002068FFF7ADFB05461DB12846F0E7012114
:10361000A164A06C012808D100212068FFF72DFBD0
:10362000054615B14FF08050E2E71DE0002120680B
:10363000FFF723FB05460DB12846D9E71849206856
:10364000FFF738FB054615B14FF08050D0E7002159
:103650002068FFF7C3FA0646012080EAD67080F0A2
:1036600001070098401C00904FF6FF7100988842B7
:1036700001D2002FDAD04FF6FF710098884202D3B2
:103680004FF08070B4E706F08040B0F1804F02D177
:103690000120606401E0002060640020A8E70000D1
:1036A000000010C12DE9F0410546AC6AEF6AE7B1B0
:1036B0004FF0000814E02868FFF7C1FA06462670AC
:1036C000641C7F1E300A2070641C7F1E300C20702A
:1036D000641C7F1E300E2070641C7F1E08F10108E0
:1036E000B8F1080FE7D3AC62EF62BDE8F08170B5C6
:1036F00004460D4615B94FF0006070BD5022125BB4
:1037000011042068FFF7C7FB06460EB13046F4E708
:1037100000212068FFF762FA28600020EDE77CB501
:10372000044600200090019000212068FFF756FA1F
:1037300000F00070B0F1007F02D14FF400607CBD5A
:1037400069462046FFF72CFE05460DB12846F6E7F0
:10375000019800F4803098B15022125B1104206867
:10376000FFF78BFA05460DB12846E8E700212068EF
:10377000FFF7DAFA05460DB12846E0E70020DEE75C
:103780004FF08060DBE77CB504460020009001909C
:1037900000212068FFF722FA00F00070B0F1007FEE
:1037A00002D14FF400607CBD69462046FFF7F8FD6A
:1037B00005460DB12846F6E7019800F4802098B13F
:1037C0005022125B11042068FFF757FA05460DB12D
:1037D0002846E8E702212068FFF7A6FA05460DB162
:1037E0002846E0E70020DEE74FF08060DBE7F8B531
:1037F00005462C6A6E6A1EB300271DE020780090F3
:10380000641C761E2078009941EA00200090641C18
:10381000761E2078009941EA00400090641C761ED4
:103820002078009941EA00600090641C761E694689
:103830002868FFF71CFA7F1C082FDFD32C626E620A
:10384000F8BD000000BF4FF400510448FDF778FCBC
:103850004FF4967000F011FCF5E7000000100240F4
:1038600010B500BF502080F31188BFF34F8FBFF316
:103870006F8F00BF01F094FC18B14FF080500449E5
:10388000086000BF002080F3118800BF10BD000059
:1038900004ED00E000B593B0302107A8FCF748FD27
:1038A000142102A8FCF744FD00BF00200190244829
:1038B000006840F08050224908600846006800F027
:1038C0008050019000BF00BF00BF002001901D4844
:1038D000006840F480401B4908600846006800F416
:1038E0008040019000BF00BF0120079000040890B5
:1038F00002200D9041050E9119210F914FF4A871EE
:103900001091022111910721129107A8FDF78CFE59
:1039100008B1FCF703FF0F20029002200390002063
:1039200004904FF4A05005904FF48050069005216C
:1039300002A8FDF717FD08B1FCF7F0FE13B000BDBB
:1039400040380240007000400548006840F47000B4
:10395000034908604FF000600149803908607047F2
:1039600088ED00E010B50248FEF77CFC10BD0000B9
:103970005436002010B50248FEF774FC10BD00005C
:103980009434002010B50268294B98420ED0B0F153
:10399000804F0BD0274B984208D0274B984205D038
:1039A000264B984202D0264B984203D122F0700257
:1039B0004B681A431E4B984220D0B0F1804F1DD067
:1039C0001C4B98421AD01C4B984217D01B4B984264
:1039D00014D01B4B984211D01A4B98420ED01A4B60
:1039E00098420BD0194B984208D0194B984205D0F9
:1039F000184B984202D0184B984203D122F44072DF
:103A0000CB681A4322F080034C6943EA0402026047
:103A10008B68C3620B688362054B984202D0084BE7
:103A2000984201D10B6903630123436110BD00007B
:103A3000000001400004004000080040000C00406D
:103A400000040140004001400044014000480140A2
:103A500000180040001C00400020004070B50546E2
:103A6000AC6B0020E085E0842046FEF7D6FC70BDFC
:103A70000168C96821F490710268D16001684969E0
:103A800021F0010102685161202180F83A1070474D
:103A900010B504462068C06820F040002168C86066
:103AA000202084F839002046FEF7B1FE002010BD2A
:103AB00070B5044694F83A0022284AD1A068B0F5BF
:103AC000805F13D1A56A206940B920684068C0F3BF
:103AD00008002880A06A801CA06219E02068406865
:103AE000C0B22880A06A401CA06211E0206938B9E9
:103AF00020684068C1B2A26A501CA062117007E041
:103B00002068406800F07F01A26A501CA06211701A
:103B1000E08D401E80B2E085C8B92068C06820F002
:103B200020002168C8602068C06820F48070216887
:103B3000C8602068406920F00100216848612020A9
:103B400084F83A002046FEF761FE002070BD002098
:103B5000FCE70220FAE700002DE9F84F0446206850
:103B6000006920F44050E168084321680861216938
:103B7000A068084361690843E16908430090206830
:103B8000C06849F20C618843009908432168C86005
:103B90002068406920F44070A169084321684861A9
:103BA000E069B0F5004F75D1E3492068884203D041
:103BB000E249206888426FD1FDF7CEFC81460220A1
:103BC0006168A0FB01510B461920A9FB00712A4630
:103BD0003846FCF755FB6421B0FBF1F04FEA001AC0
:103BE00002206168A0FB01510B461920A9FB00715E
:103BF0002A463846FCF744FB074602206168A0FBD2
:103C000001510B461920A9FB00B12A465846FCF782
:103C100037FB6421B0FBF1F000EBC00101EB0010B9
:103C2000A7EB8000322101EBC0006421B0FBF1F072
:103C300000F0F8000AEB400A02206168A0FB015185
:103C40000B461920A9FB00712A463846FCF718FBE1
:103C5000074602206168A0FB01510B461920A9FB11
:103C600000B12A465846FCF70BFB6421B0FBF1F08B
:103C700000EBC00101EB0010A7EB8000322101EB4B
:103C8000C0006421B0FBF1F000F00700504421684F
:103C900088604FE16EE0FFE7FDF74EFC81460220B1
:103CA0006168A0FB01510B461920A9FB00712A464F
:103CB0003846FCF7E5FA6421B0FBF1F04FEA001A50
:103CC00002206168A0FB01510B461920A9FB00717D
:103CD0002A463846FCF7D4FA074602206168A0FB62
:103CE00001510B461920A9FB00B12A465846FCF7A2
:103CF000C7FA6421B0FBF1F000EBC00101EB00104A
:103D0000A7EB8000322101EBC0006421B0FBF1F091
:103D100000F0F8000AEB400A02206168A0FB0151A4
:103D20000B461920A9FB00712A463846FCF7A8FA71
:103D3000074602206168A0FB015003461920A9FB39
:103D400000B12A465846FCF79BFA6421B0FBF1F01B
:103D500000EBC00101EB0010A7EB8000322101EB6A
:103D6000C0006421B0FBF1F000F00700504421686E
:103D70008860DFE070492068884203D06F4920687E
:103D800088426BD1FDF7E8FB814604206168A0FB07
:103D900001510B461920A9FB00712A463846FCF751
:103DA0006FFA824604206168A0FB01510B4619207E
:103DB000A9FB00712A463846FCF762FA6421B0FB81
:103DC000F1F000EBC00101EB0010AAEB8000322102
:103DD00001EB00106421B0FBF1F000F0F00A0420C8
:103DE0006168A0FB015003461920A9FB00712A4617
:103DF0003846FCF745FA6421B0FBF1F00AEB001AF3
:103E000004206168A0FB01510B461920A9FB007139
:103E10002A463846FCF734FA074604206168A0FBBE
:103E2000015003461920A9FB00B12A465846FCF769
:103E300027FA6421B0FBF1F000EBC00101EB0010A8
:103E4000A7EB8000322101EB00106421B0FBF1F000
:103E500000F00F005044216888606BE0FDF76CFBB8
:103E6000814604206168A0FB015003461920A9FB8C
:103E700000712A463846FCF703FA8246042061683E
:103E8000A0FB015003461920A9FB00712A463846C1
:103E9000FCF7F6F96421B0FBF1F000EBC00101EB97
:103EA0000010AAEB8000322101EB00106421B0FB6E
:103EB000F1F000F0F00A04206168A0FB0150034615
:103EC0001920A9FB00712A463846FCF7D9F964216C
:103ED000B0FBF1F00AEB001A04206168A0FB01704E
:103EE00003461920A9FB005001463A462846FCF734
:103EF000C7F9074604206168A0FB0150034619205A
:103F0000A9FB00B12A465846FCF7BAF96421B0FB78
:103F1000F1F000EBC00101EB0010A7EB80003221B3
:103F200001EB00106421B0FBF1F000F00F005044F1
:103F300021688860BDE8F88F00100140001401403E
:103F4000014691F8390021282CD18868B0F5805FAE
:103F50000FD10A6A1088C0F308000B68586008691E
:103F600018B9086A801C086209E0086A401C0862E7
:103F700005E00B6A581C086218780B685860C88CFA
:103F8000401E80B2C88458B90868C06820F080001C
:103F90000B68D8600868C06840F040000B68D860C3
:103FA000002070470220FCE710B50248FEF736FA01
:103FB00010BD0000D434002010B50248FEF72EFAE0
:103FC00010BD00001435002010B50248FEF726FA97
:103FD00010BD00005435002000BFFEE70248006815
:103FE000C0F30220704700000CED00E010B500287F
:103FF00004DB0A07130E054A135406E00A07140EE1
:10400000034A00F00F031B1FD45410BD00E400E06E
:1040100018ED00E002E008C8121F08C1002AFAD11A
:1040200070477047002001E001C1121F002AFBD138
:10403000704710B5044610BDFDF7A4F8FFF72AFC41
:10404000FEF74EFCFEF7E6FBFEF70CFDFEF72AFD41
:10405000FEF76AFDFEF74CFDFEF782FDFEF7FEFB64
:10406000FEF72AFC00F015F800BFFEE7014600202D
:10407000842901D0CA1C1044704770B504462546F7
:104080000DB1294600E00121084600F089FD00201D
:1040900070BD10B500F054FE002010BD7FB5044681
:1040A0000D46606998B1A06988B1B4F90800FFF7BE
:1040B000DDFF0646D4E90510CDE9006102902B46EC
:1040C0002269D4E9001001F00DF8039013E0B4F96F
:1040D0000800FFF7CBFF064603A8CDE90060238A5E
:1040E0009AB22B46D4E9001000F0CAFF012802D092
:1040F000002004B070BD0398FBE700002DE9F041FB
:1041000005460E461C4807681C480068001D00F064
:1041100017FB50B91948006890F82C10012088400E
:1041200017490968814316480160681C38B936B1DF
:1041300012480168091D134800F04CFB1AE07C1975
:104140000E4800684460BC4207D20C480168091D53
:104150000D48006800F024FB0CE008480168091DC8
:104160000A48006800F01CFB09480068844201D23C
:1041700007480460BDE8F081400000202C000020CA
:104180004400002070370020340000203000002060
:104190005C00002010B5044600F020FC23480068B5
:1041A000401C224908602248006840B92048046049
:1041B0000846006801280DD100F03EF90AE01D48CC
:1041C000006838B91A480068C06AE16A884201D8B4
:1041D0001748046018480068401C1749086094F8A4
:1041E0002C100120884015490968084313490860CC
:1041F000E16A01EB8101124A02EB8100211D00F00E
:10420000E9FA00F015FC0B48006868B1084800683E
:10421000C06AE16A884207D24FF0805009490860BD
:10422000BFF34F8FBFF36F8F10BD00003C00002025
:104230002C000020480000205800002044000020EE
:104240009436002004ED00E010B516E000F0C6FB47
:104250000C48C068C468201D00F072FA0A48006863
:10426000401E0949086009480068401E0749086067
:1042700000F0DEFB204600F00BF804480068002840
:10428000E4D110BD5C3700203C0000203800002045
:1042900010B5044694F8510030B9206B00F0E6FBED
:1042A000204600F0E3FB1AE094F85100012803D106
:1042B000204600F0DBFB12E094F85100022801D107
:1042C000012000E0002050B900BF502080F3118889
:1042D000BFF34F8FBFF36F8F00BF00BFFEE710BD6E
:1042E00030B54FF47053174800F007042CB1C01DCF
:1042F00020F00700134C041B1B1B0246124C2260CB
:104300000024114D6C60D018083820F007000F4CC5
:10431000206000240D4D2D686C600C4D2D682C60C4
:104320001146441A4C60094C24680C60084D4C68D6
:104330002C60084D4C682C604FF00044064D2C60FA
:1043400030BD00008437002068000020700000208D
:1043500078000020740000207C00002000BFFFF7E0
:1043600073FF064800680128F9D94FF080500449CE
:104370000860BFF34F8FBFF36F8FF0E794360020D4
:1043800004ED00E02DE9FF5F81460E469246DDE92F
:104390000E7B109CAAF10100216B01EB800828F034
:1043A000070808F0070008B9012000E0002050B914
:1043B00000BF502080F31188BFF34F8FBFF36F8F82
:1043C00000BF00BFFEE786B1002507E0715D04F184
:1043D00034004155705D00B902E06D1C102DF5D31D
:1043E00000BF00214320015502E0002084F8340082
:1043F000072F00D30627E76267640020A064201D12
:1044000000F0CBF904F1180000F0C7F92461C7F1FE
:104410000700A06164620020E06484F8500049460F
:104420004046039A00F076F92060BBF1000F01D0FE
:10443000CBF80040BDE8FF9F10B5002407E004EB77
:1044400084010F4A02EB810000F09AF9641C072CEA
:10445000F5D30C4800F094F90B4800F091F90B48A3
:1044600000F08EF90A4800F08BF90A4800F088F94C
:1044700004480949086004480849086010BD000064
:1044800094360020203700203437002048370020A1
:104490005C370020703700203000002034000020FE
:1044A00010B50146164800E0006803688B42FBD354
:1044B0000246436813448B4204D143684C6823444A
:1044C000436001460A464B6813440468A34211D175
:1044D0000C4C03682468A34208D04B6804686468E5
:1044E00023444B6003681B680B6005E0054B1B68A9
:1044F0000B6001E003680B60884200D0016010BDD2
:1045000068000020700000200A490968096809B99C
:10451000012100E0002121B14FF0FF31064A116076
:1045200006E004490968C968C868034A416811601F
:1045300070470000300000205C0000200E4800683A
:10454000401C08B9012000E0002050B900BF5020F5
:1045500080F31188BFF34F8FBFF36F8F00BF00BF91
:10456000FEE700BF502080F31188BFF34F8FBFF3E9
:104570006F8F00BF00BFFEE78000002070B50446CB
:104580000D46206800F580508561206800F5805058
:1045900080690120FCF76EFA206800F58050856183
:1045A00070BD70B504460D4620680560206800683F
:1045B0000120FCF75FFA2068056070BD70B5044605
:1045C0000D4620688561206880690120FCF752FA59
:1045D0002068856170BD00002DE9F04104464FF070
:1045E000000800F005FC4648006808B9FFF778FEAF
:1045F00044480068204000286BD1D4B1083404F04E
:104600000700B0B104F00700C0F10800044404F052
:10461000070008B9012000E0002050B900BF502079
:1046200080F31188BFF34F8FBFF36F8F00BF00BFC0
:10463000FEE7002C4DD034480068844249D8334E00
:104640003046056801E02E462D686868A04202D217
:1046500028680028F7D12A480068854239D0306898
:1046600000F10808286830606868001B102819D914
:104670002F1907F0070008B9012000E0002050B909
:1046800000BF502080F31188BFF34F8FBFF36F8FAF
:1046900000BF00BFFEE76868001B78606C603846AA
:1046A000FFF7FEFE184968680968081A164908608D
:1046B0000846006816490968884203D21248006813
:1046C000134908600F49686809680843686000205A
:1046D000286000F009FE08F0070008B9012000E09A
:1046E000002050B900BF502080F31188BFF34F8FD6
:1046F000BFF36F8F00BF00BFFEE74046BDE8F0810B
:10470000700000207C000020740000206800002061
:1047100078000020001F4FF080730360001F21F01D
:1047200001030360001F054B036014380260001F83
:104730006FF0020303602038704700003D45000819
:1047400001460A69D1E901309860D1E90103586056
:104750005068884201D18868506000200861106864
:10476000401E106010687047034B0360034B0B60E2
:104770008023136070470000BC31002010320020FD
:1047800000F1080141604FF0FF31816000F1080144
:10479000C160016100210160704700210161704723
:1047A00010B502460B685C1C0CB9106907E002F1F9
:1047B000080000E04068446824689C42FAD94468D4
:1047C0004C604C68A160886041600A611468641C98
:1047D000146010BD42684A6093688B6093685960AA
:1047E0009160086103685B1C0360704730B589B055
:1047F0000020029007AA03217348FCF7A7FA06AA33
:1048000002217148FCF7A2FA7049069801EA0040BB
:104810004FF6F0720799114040EA010500BF00BF52
:104820006B480078032806D169488078032802D1B4
:1048300040F2E11433E0012465480078032809D1EF
:1048400063488078022802D144F4A07427E044F041
:10485000A00424E05E488078032809D15C480078F1
:10486000012802D144F0600419E044F4C07416E059
:1048700057480078022809D155488078022802D18B
:1048800044F480740BE044F0800408E050488078E1
:10489000022802D144F0400401E044F0200408AAB8
:1048A00000214948FCF752FA089840F400420021E0
:1048B0004548FCF7D3FA4FF47A70029003A800F051
:1048C00021FA00BF05AA00213F48FCF73FFA0598EE
:1048D00000F4004010B900BF00BF08E002A903A81F
:1048E00000F088FB0028EDD000BF00BF00BF00BF74
:1048F000089820F4004200213348FCF7AFFA322038
:1049000000F04EF9224604212F48FCF7A7FA08AA26
:1049100000212D48FCF71AFA089820F44C50089012
:10492000089840F49050089029480078022804D153
:10493000089840F40050089007E0254800780128C6
:1049400003D1089820F4005008902148807802286C
:1049500004D1089840F48070089007E01C488078E3
:10496000012803D1089820F48070089001AA192129
:104970001548FCF7EBF9019820F4404001901448E9
:104980004078032804D1019840F4004001900CE0E5
:104990000F484078022804D1019820F4804001900B
:1049A00003E0019840F48040019019210648019AE3
:1049B000FCF754FA00BF00BF064908980860064893
:1049C000046009B030BD00008C0000200000FFFF33
:1049D000EC530008080000200C00002000BF50200D
:1049E00080F31188BFF34F8FBFF36F8F00BF0E4866
:1049F0000068401C0C49086008460068012812D174
:104A00000A480068C0B208B9012000E0002050B98F
:104A100000BF502080F31188BFF34F8FBFF36F8F1B
:104A200000BF00BFFEE770478000002004ED00E0FB
:104A30000D48006850B900BF502080F31188BFF3C3
:104A40004F8FBFF36F8F00BF00BFFEE706480068BF
:104A5000401E054908600846006820B9002080F320
:104A6000118800BF00BF70478000002070B5064667
:104A70003546002E3FD0083D2C461F496068096826
:104A8000084008B1012000E0002050B900BF5020CC
:104A900080F31188BFF34F8FBFF36F8F00BF00BF4C
:104AA000FEE7206808B9012000E0002050B900BFEF
:104AB000502080F31188BFF34F8FBFF36F8F00BF7B
:104AC00000BFFEE70C4960680968084098B120689B
:104AD00088B90949606809688843606000F088F90E
:104AE0000649606809680844044908602046FFF7E1
:104AF000D7FC00F0F9FB70BD7C00002074000020A2
:104B000000204FF0E02108618861064800684FF4FA
:104B10007A71B0FBF1F0401E4FF0E02148610720B0
:104B2000086170472800002070B5FBF793FB04462E
:104B3000102C16D304F1E02090F8F05315480078BB
:104B4000854201DB012000E0002050B900BF502069
:104B500080F31188BFF34F8FBFF36F8F00BF00BF8B
:104B6000FEE70D48006800F4E0600C4909688842DF
:104B700001D8012000E0002050B900BF502080F390
:104B80001188BFF34F8FBFF36F8F00BF00BFFEE7E9
:104B900070BD0000840000200CED00E088000020C3
:104BA00070B504460025D4B11248006808B9012048
:104BB00000E0002050B900BF502080F31188BFF3FF
:104BC0004F8FBFF36F8F00BF00BFFEE700F010F9FB
:104BD00000212046FFF792FA00F086FB05463DB91A
:104BE0004FF0805004490860BFF34F8FBFF36F8FC1
:104BF00070BD00006400002004ED00E00349096876
:104C000001600349096841607047000054000020BA
:104C1000400000202DE9F04105460F4655B900BF80
:104C2000502080F31188BFF34F8FBFF36F8F00BF09
:104C300000BFFEE7FFF778FF2C4600BF5021EFF3DF
:104C4000118081F31188BFF34F8FBFF36F8F00BFC7
:104C5000064694F85080022084F85000E06C401C16
:104C6000E064B8F1010F3AD1A06A08B9012000E070
:104C7000002050B900BF502080F31188BFF34F8F40
:104C8000BFF36F8F00BF00BFFEE718480068A8B9E8
:104C9000201DFFF755FD94F82C1001208840144981
:104CA0000968084312490860E16A01EB8101114A71
:104CB00002EB8100211DFFF78DFD04E004F11801D6
:104CC0000D48FFF787FD0D49E06A0968C96A884207
:104CD00005D90FB10120386001200949086000BFE3
:104CE00086F3118800BFBDE8F08100006400002059
:104CF0004400002094360020483700202C0000207B
:104D00005000002010B5044654B900BF502080F375
:104D10001188BFF34F8FBFF36F8F00BF00BFFEE757
:104D2000FFF75CFE0448006820600448006860608B
:104D3000FFF77EFE10BD0000540000204000002060
:104D400010B586B000200590049003AA04A905A818
:104D5000FFF70AFD0022DDE904101346CDE900212A
:104D600002901CA11D48039A00F0BCF91C49086080
:104D70000846006808B1012400E00024012C15D188
:104D800000BF502080F31188BFF34F8FBFF36F8FA8
:104D900000BF4FF0FF30134908600120124908603E
:104DA00000201249086000F071F810E0601C08B1A2
:104DB000012000E0002050B900BF502080F311888E
:104DC000BFF34F8FBFF36F8F00BF00BFFEE706B08A
:104DD00010BD000049444C45000000005D43000840
:104DE000600000205C0000204800002040000020FF
:104DF00002480068401C01490860704764000020B8
:104E00001D48006818B101201C49086032E00020EC
:104E10001A4908601A480068B0FA80F0C0F11F0112
:104E200001EB8100174A52F8200008B1012000E090
:104E3000002050B900BF502080F31188BFF34F8F7E
:104E4000BFF36F8F00BF00BFFEE701EB81020D4B88
:104E500003EB820042685268426000F10802436836
:104E6000934202D14268526842604268D268064B5F
:104E70001A6000BF7047000064000020500000204E
:104E800044000020943600202C0000201CB552481D
:104E900000685249884201D0012000E0002050B94A
:104EA00000BF502080F31188BFF34F8FBFF36F8F87
:104EB00000BF00BFFEE7484800684849491E8842D5
:104EC00001D0012000E0002050B900BF502080F345
:104ED0001188BFF34F8FBFF36F8F00BF00BFFEE796
:104EE0003F49084600780190FF200A4610700846A6
:104EF000007800909DF8000000F0F0009DF8002080
:104F0000904201D1012000E0002050B900BF5020A4
:104F100080F31188BFF34F8FBFF36F8F00BF00BFC7
:104F2000FEE79DF8000000F050002E4A10700720A8
:104F30002D4A106009E02C480068401E2A4A106083
:104F40009DF800004006000E00909DF8000000F063
:104F500080008028EFD024480068C0F107000428B2
:104F600001D1012000E0002050B900BF502080F3A3
:104F70001188BFF34F8FBFF36F8F00BF00BFFEE7F5
:104F8000194800680002184A10601046008800F4B2
:104F9000E0601060124A019810700F4820300068DD
:104FA00040F470000C49203108600846006840F069
:104FB00070400860FFF7A4FD00200C490860FBF773
:104FC00011F90B48006840F0404009490860FBF7C0
:104FD000F5F800201CBD000000ED00E071C20F419B
:104FE00000E400E084000020880000208000002011
:104FF00034EF00E070B505460C4655B900BF5020AF
:1050000080F31188BFF34F8FBFF36F8F00BF00BFD6
:10501000FEE754B900BF502080F31188BFF34F8FD3
:10502000BFF36F8F00BF00BFFEE7FFF7D7FC12484A
:1050300002686868131A2068401C08B9002617E047
:105040000E4928680968884204D06868904201D8EF
:1050500001260DE02068984207D92068C01A206018
:105060002846FFF7CBFD002602E000202060012645
:10507000FFF7DEFC304670BD4000002054000020E9
:105080002DE9FF4F85B0804689461746DDE912AB12
:10509000B800FFF7A1FA064656B15420FFF79CFA74
:1050A00004460CB1266304E03046FFF7DFFC00E065
:1050B00000248CB1002084F85100CDE900ABCDE98B
:1050C00002403A4649464046089BFFF75BF92046B6
:1050D000FFF760F8012501E04FF0FF35284609B0E1
:1050E000BDE8F08F2DE9F04F85B007468846914620
:1050F0009A46DDE90EB6109C0EB1012000E00020BA
:1051000050B900BF502080F31188BFF34F8FBFF319
:105110006F8F00BF00BFFEE70CB1012000E0002050
:1051200050B900BF502080F31188BFF34F8FBFF3F9
:105130006F8F00BF00BFFEE75420039003985428F0
:1051400001D1012000E0002050B900BF502080F3C1
:105150001188BFF34F8FBFF36F8F00BF00BFFEE713
:1051600000BFB4B1AEB125462C462E63022085F8AF
:105170005100002004A953464A46CDE900B1CDE9CB
:10518000025041463846FFF7FDF82846FFF702F87F
:1051900001E000200490049805B0BDE8F08F000005
:1051A0002DE9F0414FF0000844480068002877D10D
:1051B00043480068451C4248056015BB41480068EB
:1051C000006808B9012000E0002050B900BF50205D
:1051D00080F31188BFF34F8FBFF36F8F00BF00BF05
:1051E000FEE738480768384800683649086036489E
:1051F000076036480068401C34490860FFF784F9AE
:1052000000BF3348006885423CD300BF2D4800688A
:10521000006808B9012000E0002020B14FF0FF3005
:105220002B4908602DE027480068C068C46866689C
:10523000B54202D22648066023E0201DFFF780FA1F
:10524000A06A18B104F11800FFF77AFA94F82C104C
:10525000012088401F49096808431E490860E16A27
:1052600001EB81011C4A02EB8100211DFFF7B2FA1C
:105270001A49E06A0968C96A8842C7D34FF0010831
:10528000C4E700BF15480068C06A00EB80001249FF
:1052900051F82000012801D94FF0010805E0FFE78F
:1052A0000F480068401C0E4908600E48006808B1AD
:1052B0004FF001084046BDE8F08100006400002086
:1052C0004000002030000020340000205400002066
:1052D0005C00002044000020943600202C000020B8
:1052E0004C0000205000002070B5002400263648F5
:1052F000006850B900BF502080F31188BFF34F8F72
:10530000BFF36F8F00BF00BFFEE7FFF767FB2E48BC
:105310000068401E2C4908600846006800284FD1EC
:105320002A48006800284BD024E02948C068C46897
:1053300004F11800FFF704FA201DFFF701FA94F8B2
:105340002C1001208840234909680843214908603E
:10535000E16A01EB8101204A02EB8100211DFFF788
:1053600039FA1E49E06A0968C96A884202D30120F5
:105370001B4908601648006808B9012000E00020B9
:105380000028D2D00CB1FFF7BFF81648056865B108
:1053900000BFFFF705FF10B10120114908606D1E25
:1053A000002DF6D100200F4908600D48006838B183
:1053B000012630070C490860BFF34F8FBFF36F8F92
:1053C000FFF736FB304670BD640000203C00002033
:1053D0004837002044000020943600202C00002094
:1053E000500000204C00002004ED00E00303030007
:1053F0000100000000000000345400084538000897
:10540000000000000000000080000000000000001C
:105410000000000000061016000610160000000034
:105420000000000001020304060708090000000054
:105430000102030464656661756C745461736B00EA
:1054400060540008000000208C0000001440000898
:10545000EC5400088C000020FC760000244000087A
:10546000000000000000000000000000000000003C
:10547000000000000000000000000000000000002C
:1054800010000000010000000024F40000000000F3
:10549000000000000000000000000000000000000C
:1054A00000000000000000000000000000000000FC
:1054B00000000000000000000000000000000000EC
:1054C00000000000000000000000000000000000DC
:1054D00000000000000000000000000000000000CC
:0C54E000AAAAAAAA000000000000000018
:040000050800018965
:00000001FF
