:020000040800F2
:10000000682500105D02000809400008B93C00089E
:1000100005400008D50400080D5800080000000045
:100020000000000000000000000000009D0100082A
:100030002306000800000000F901000895500008A0
:1000400077020008770200087702000877020008AC
:10005000770200087702000877020008770200089C
:10006000770200087702000877020008770200088C
:10007000770200087702000877020008770200087C
:10008000770200087702000877020008770200086C
:10009000770200087702000877020008710900085B
:1000A00077020008995100087702000877020008DB
:1000B000770200087702000877020008770200083C
:1000C000770200087702000877020008770200082C
:1000D00077020008DD570008ED570008FD570008BB
:1000E000770200087702000877020008770200080C
:1000F00077020008770200087702000877020008FC
:1001000077020008554000087702000877020008CF
:100110007702000877020008A9510008770200085A
:100120007702000877020008D9040008E9040008F3
:1001300077020008B106000877020008770200087D
:1001400077020008770200087702000877020008AB
:1001500077020008F9040008090500087702000882
:10016000770200087702000877020008770200088B
:1001700077020008770200087702000800000000FC
:100180007702000877020008DFF80CD000F01EF9B3
:100190000048004751600008682500102C4B196882
:1001A0000868B0E8F04F80F30988BFF36F8F4FF015
:1001B000000080F3118870470000000008480068C4
:1001C000006880F308884FF0000080F3148862B65E
:1001D00061B6BFF34F8FBFF36F8F00DF00BF00BF6B
:1001E00008ED00E0DFF80C00016841F470010160E7
:1001F000704700BF88ED00E0EFF30980BFF36F8F19
:10020000134B1A681EF0100F08BF20ED108A20E96A
:10021000F04F106009B44FF0500080F31188BFF325
:100220004F8FBFF36F8F0AF09BFD4FF0000080F3FC
:10023000118809BC19680868B0E8F04F1EF0100F6B
:1002400008BFB0EC108A80F30988BFF36F8F704746
:10025000AC000010EFF305807047000006488047AF
:1002600006480047FEE7FEE7FEE7FEE7FEE7FEE79B
:10027000FEE7FEE7FEE7FEE77D5100088901000882
:100280002DE9F05F0546002092469B4688460646CB
:10029000814640241BE0284641464746224600F05E
:1002A00084F853465A46C01A914110D31146184655
:1002B000224600F06BF82D1A67EB01084F462246E4
:1002C0000120002100F062F817EB00094E41201ECA
:1002D000A4F10104DFDC484631462A464346BDE826
:1002E000F09F10B5431A934209D28318881803E08F
:1002F00010F8011D03F8011D521EF9D210BD40EA8D
:1003000001039B0703D009E008C9121F08C0042A93
:10031000FAD203E011F8013B00F8013B521EF9D27A
:1003200010BDD2B201E000F8012B491EFBD270478C
:100330000022F6E710B513460A4604461946FFF7B1
:10034000F0FF204610BD30B504460020034600E013
:100350005B1C934203D2E05CCD5C401BF8D030BD07
:1003600030B50B46014600202022012409E021FA85
:1003700002F59D4205D303FA02F5491B04FA02F582
:100380002844151EA2F10102F1DC30BD202A04DB55
:10039000203A00FA02F1002070479140C2F1200398
:1003A00020FA03F3194390407047202A04DB203AD7
:1003B00021FA02F00021704721FA02F3D040C2F185
:1003C000200291400843194670470000064C074D33
:1003D00006E0E06840F0010394E807009847103415
:1003E000AC42F6D3FFF7D4FE44CC000874CC00082E
:1003F0007047000010B504462146024802F00EFD89
:1004000010BD0000E81C001010B5044802F019FDF2
:10041000042801D0012010BD0020FCE7E81C0010DA
:1004200010B5002400F014F8012801D0012010BDFF
:10043000064802F027FE044634B94FF40061034831
:1004400002F0B2FB00B101242046F0E7E81C0010E6
:1004500008B5012000909DF8000008BD2DE9F0418D
:1004600004460D461646002733462A4621460448D0
:1004700002F03CFF00B101273846BDE8F0810000E2
:10048000E81C001010B5002201210248006805F0A8
:1004900091FE10BD700000102DE9F04104460D469C
:1004A0001646002733462A462146044802F0D2FF6A
:1004B00000B101273846BDE8F0810000E81C0010BB
:1004C00010B5002202210248006805F073FE10BD3D
:1004D0007000001000BFFEE710B5024801F088F878
:1004E00010BD00002C1F001010B5024801F080F86C
:1004F00010BD00006C1D001010B5024801F078F826
:1005000010BD0000CC1D001010B5024801F070F8BD
:1005100010BD00008C1F0010014608781038182309
:10052000B0FBF3F20848805CC865032A05D9086867
:100530006FF30900001D886503E008686FF3090088
:100540008865886D704700000CCC000801460020CB
:100550008A6A8B69CBB932B1012A0DD0022A03D045
:10056000032A10D10EE000BFCB6A03F08073B3F111
:10057000807F00D1012007E0CB6AB3F1C07F00D1BA
:10058000012001E000E000BF34E08B69B3F5005FBB
:100590001AD132B1012A07D0022A03D0032A11D17D
:1005A0000AE000BF01200EE0CB6A03F08073B3F1D4
:1005B000807F00D1012006E0CB6AB3F1C07F00D17B
:1005C000012000E000BF15E032B1012A05D0022A67
:1005D00004D0032A0CD103E000BF00BF012008E0D3
:1005E000CB6A03F08073B3F1807F00D1012000E07B
:1005F00000BF00BF704730B50468246824F480242D
:1006000005682C60046863608468402C04D1046829
:10061000A2600468E16003E00468A1600468E2602D
:1006200030BD704738B50446206800F580508069B9
:1006300020F0020000902046009908F0EAFC38BD46
:1006400038B50446206800F58050806940F002000B
:1006500000902046009908F0DCFC38BD38B504460F
:10066000206800F58050806920F4005000902046FA
:10067000009908F0CEFC38BD38B50446206800F576
:100680008050806940F4005000902046009908F0A6
:10069000C0FC38BD38B50446206800F5805080693C
:1006A00040F4801000902046009908F0B2FC38BD5C
:1006B00010B5024801F022FA10BD00000000002031
:1006C00030B5034654794FF0004545EA04241579C6
:1006D00044EA0500084C0C442064D478240695783C
:1006E00044EA0544557844EA0524157844EA0500AF
:1006F000014C0C44606430BD0080024070B5AEB067
:1007000004460E46002526B14FF40061E160C900A1
:10071000A1600020119012901390149015901690E3
:10072000E06918B94FF48060179001E0002017903D
:100730004FF400701890002019901A901B901C9094
:100740001D9040201E9000201F902090219022900C
:100750002390249025902690802027900020289098
:1007600029902A902B902C902D902068056866483F
:100770000540DDE911010843139908431499084322
:10078000A16808431599084316990843E16808438E
:100790001799084318990843199908431A99084367
:1007A0001B99084305432946204608F045FCDDE92E
:1007B0001C0108431E9908431F99084320990843C8
:1007C00021990843229908432399084321684860E6
:1007D00020684568012001F0EBF820684560249806
:1007E0002168886025982168C860206885694FF66F
:1007F00041700540DDE9261040EA01402899084390
:10080000299908432A9908432B9908430543294607
:10081000204608F01EFCDDE92C0108432168C86170
:100820002068C569012001F0C3F82068C561002077
:1008300001904FF000700290002003904FF40010E0
:1008400004900020059006900790089004200990DD
:10085000C0050A9040120B9080010C9040120D9040
:1008600080200E9000200F901090206800F580509E
:10087000856926480540DDE90101084303990843DD
:1008800004990843059908430699084307990843C2
:10089000089908430999084305432946204608F06A
:1008A000B8FBDDE90A0108430C9908430D99084398
:1008B0000E9908430F9940EA81001099084340F4CB
:1008C0000001206800F580500160206800F580502C
:1008D0000568012001F06CF8206800F58050056083
:1008E000A069012809D1206800F58050C069084935
:1008F0000843216801F58051C861002120466269E2
:10090000FFF7DEFE2EB070BD0F8120FF233FDEF823
:100910004000010038B504462068006820F004005B
:1009200000902046009908F087FB38BD38B5044692
:100930002068006840F0040000902046009908F00C
:100940007BFB38BD70B504462068006820F00805C0
:100950002946204608F070FB70BD70B5044620683B
:10096000006840F008052946204608F065FB70BD88
:1009700010B54FF4007001F055FB10BD704730B555
:1009800004460D4600222946204600F001F830BDFD
:10099000F0B50346012500241148407A01281CDAED
:1009A00000200F4E767A0E4FB8553846467A001D15
:1009B00040F82630001F467A083082553E46707A4D
:1009C000461C7E72044604F1300008703A204870DC
:1009D0002F2088700020C87000252846F0BD000038
:1009E0005C21001010B548210148FFF7A1FC10BDA3
:1009F0000C01001010B510B1074C6469046011B10E
:100A0000064C64680C6012B1044CA468146013B105
:100A1000024CE4681C6010BD34000010540100104A
:100A20002DE9FC4704460D4616461F46DDF8289082
:100A30004FF000080AF02AFB08B9012000E000206E
:100A400050B900BF502080F31188BFF34F8FBFF320
:100A50006F8F00BF00BFFEE76848006808B901203B
:100A600000E0002050B900BF502080F31188BFF390
:100A70004F8FBFF36F8F00BF00BFFEE76048006875
:100A800008B9012000E0002050B900BF502080F3D9
:100A90001188BFF34F8FBFF36F8F00BF00BFFEE71A
:100AA0000022082141200AF09FFE544908600846B0
:100AB000006850B900BF502080F31188BFF34F8FFA
:100AC000BFF36F8F00BF00BFFEE74C4800680028EF
:100AD0007ED04CA14948006809F082FB0AF0FAFA7E
:100AE00001287BD1E0780006A17840EA01406178D6
:100AF00040EA01202178084344490860E87800066C
:100B0000A97840EA0140697840EA01202978084341
:100B10003E494860F0780006B17840EA01407178BB
:100B200040EA01203178084338498860F8780006A7
:100B3000B97840EA0140797840EA012039780843E1
:100B40003249C86008460068496808402F4949682A
:100B500060EA01002D49086114222D48FFF7C1FB0E
:100B60002A4800682B49486128488068D0B1084667
:100B7000406926494968084024498968234A5268DF
:100B80001140884201D1012000E0002050B900BF8F
:100B9000502080F31188BFF34F8FBFF36F8F00BFDA
:100BA00000BFFEE71B48D9F800100160B9F8041037
:100BB000818009F0C1F98046B8F1010F1AD11048BF
:100BC00005210023CA01CDE9001013A1144801E05A
:100BD0000EE003E00BF0BCFC80460BE000BF00BF62
:100BE0000648006809F012FB00200449086001E093
:100BF00000BF00BF4046BDE8FC87000004000010B5
:100C0000100000104E657445766E7400540100109B
:100C1000680100103400001049502D7461736B009E
:100C20005571000810B50024002106480BF00EFA9B
:100C3000012803D001200449086002E00020024995
:100C4000086010BD60CB00080C0000107CB50546A4
:100C500000212A2008F0B8FA0446C4B16561204694
:100C600008F08CFE0AF018FA20B1012120460AF0A3
:100C7000FDFA0CE002208DF800000194C11E6846C8
:100C80000BF0E4F910B9204609F0FAFA00BF7CBD78
:100C90002DE9F04786B080460E46174645460024AB
:100CA000A146A24601220621284608F087F908B984
:100CB000641E75E04020405DC0F3C00030B9532091
:100CC000405D012802D04FF0FF3469E000BF0AF018
:100CD0003FF84020405DC0F3C00008B96C6D00E0F3
:100CE0002C4664B1002169654020005DC0F34000DE
:100CF00020B1206C20F00201216400E000240BF000
:100D000095FE14B3BEB194F838000006218F01F4AB
:100D10007F4140EA0120A16B01F47F0140EA1120EC
:100D2000A16B40EA116070603C20005D0102A08F61
:100D300041EA202070800FB1082038604020405DDB
:100D4000C0F3C00008B94FF0010ABAF1000F08D093
:100D500007208DF8040002954FF0FF3101A80BF039
:100D600075F904B11BE0B9F1000F09D1E8690590EC
:100D7000059800B913E04FF0010903A809F072FFCC
:100D800005A903A80BF09EFB00B108E005980090B0
:100D900000230122042168680AF0CCF897E700BF1D
:100DA000204606B0BDE8F0872DE9FE4305460E4615
:100DB00090462C4600270CB1601C10B96FF0150747
:100DC00034E0A06908B1012000E0002020B100BF9C
:100DD00000BF6FF0150729E009208DF80400029587
:100DE00036B1B0780002718840EA2120A08401E089
:100DF0000020A0844FF0FF3101A80BF027F920B9A3
:100E000000BF00BF6FF08B0710E04FF0FF30009085
:100E100000230122102160680AF08CF8A06908B153
:100E2000012000E0002008B96FF015073846BDE842
:100E3000FE837CB505460A208DF8000001950DB1B2
:100E4000681C08B900240AE0002168460BF0FEF88F
:100E500020B900BF00BF4FF0FF3400E0012420465E
:100E60007CBD2DE9F04106460D460027344601229F
:100E70000621204608F0A2F810B96FF05E0737E0AF
:100E80005320005D30B15320005D082802D06FF080
:100E90005E072DE04FF6FF702946884201DC0246CE
:100EA00000E00A46502002534020005DC0F3C0001D
:100EB000D0B1606F10B1606F09F0BDFBA06F10B1D1
:100EC000A06F09F0B8FB462104F18200FFF730FA69
:100ED000C02104F1D800FFF72BFA00212164206C17
:100EE00020F00800083020640121204609F0A9FB09
:100EF0003846BDE8F08102468A4201D31046704769
:100F00000846FCE702468A4201DC10467047084664
:100F1000FCE702468A4201D8104670470846FCE7C3
:100F200002468A4201D8104670470846FCE72DE980
:100F3000F04F87B08146884692461F464C460020B7
:100F40000590029001220621204608F037F810B9DA
:100F50006FF015058DE0606F20B1606F08F065FCE3
:100F6000054600E000253DE05320005D20B1082843
:100F700003D009280CD101E000BF00BF206CC0F3F2
:100F8000C04010B16FF00B0501E06FF07F0529E064
:100F900000BF00BF059868B9E0690690069800B9DF
:100FA00022E007F0100000B11EE00120059003A828
:100FB00009F058FE06A903A80BF084FA00B113E06B
:100FC00006980090002301226121606809F0B2FFB9
:100FD0000290606F20B1606F08F027FC054600E0CA
:100FE000002500BF002DBFD000BF002D41DD07F060
:100FF000010030BBC7F380000090534642460021F9
:10100000606F08F0BBFB05464020005DC0F3C010D8
:1010100078B3606F08F0A8FB0646A06EB0420FD808
:10102000206C20F080012164206C20F4807000F599
:101030008070206401214820015306200BF03CF809
:1010400017E0666F30680190304608F0EEFB83468B
:1010500006F1140001990844C8F8000058463369A5
:10106000019A991A884201D8024600E00A4600BF58
:101070001546284607B0BDE8F08F02465018401EBE
:10108000B0FBF1F04843704770B505462E4696F820
:101090002700062802D06FF0150407E0706F20B11A
:1010A000706F08F0C2FB044600E00024204670BDCB
:1010B0002DE9F04F85B08146884617469A464C4642
:1010C000002003903946204607F077FC0546002DA6
:1010D00073DD3E46A06F08F0B8FB054656E0002DD4
:1010E00031DDB54200DD35464020005DC0F3001023
:1010F00020B1B54202D14FF0010B01E04FF0000BDF
:10110000BBF1000F06D009F023FE206C20F0400058
:10111000403020642B4642460021A06F08F09DFA23
:101120000546BBF1000F01D00BF080FC01214820E7
:10113000015309F0B1FF10B906200AF0BDFF761B7C
:1011400006B925E0A844039870B9206A0490049871
:1011500000B91DE00AF0100000B119E00120039071
:1011600001A809F07FFD05E004A901A80BF0AAF988
:1011700000B10DE004980090002301222221606854
:1011800009F0D8FEA06F08F060FB0546002EA6DC33
:1011900000BFBD1B2DB95320005D052802DD6FF097
:1011A0007F050AE0A08C172801D0012000E0002074
:1011B00008B100BF00BF6FF01B05284605B0BDE8B1
:1011C000F08F2DE9F84F804616461D46DDF828B011
:1011D0006FF0150A4446B8F1000F0AD100BF502045
:1011E00080F31188BFF34F8FBFF36F8F00BF00BF35
:1011F000FEE7132E70D2DFE806F00A0F1F6F515280
:101200006F6F6F6F6FB4C874DCFE6F333700286880
:10121000E0614FF0000A1DE12868206294F8270081
:10122000112806D141F28831206A884201D9084646
:1012300020624FF0000A0DE1A9465FEA090506D1D8
:1012400094F8260000F0FD0084F8260005E094F8EC
:10125000260040F0020084F826004FF0000AF9E072
:10126000A5624FF0000AF5E0284694F827100629F9
:1012700002D000BF00BFEDE0D0E90012914203D2DE
:101280004268E16E8A4202D900BF00BFE2E0026814
:1012900062664268A2664FF0000ADBE000BF94F885
:1012A0002700062802D000BF00BFD3E0042E01D1E2
:1012B000A06F18B9052E04D1606F10B100BF00BF38
:1012C000C8E02F68042E08D14C20015B3846FFF798
:1012D000D4FE0746276701E0B9E0E7664FF0000A51
:1012E000B8E094F82700062802D000BF00BFB1E0A4
:1012F000A06F08B9606F10B100BF00BFAAE02F4611
:1013000004203B460246002100904046FFF759FF6B
:1013100000B19FE0042007F108030522002100909E
:101320004046FFF74EFF00B194E0F968C4F8D010D2
:101330007968C4F8D41094F8D80000F0010068B1BE
:101340004C20005BD4F8D0104143C4F8DC104C2092
:10135000005BD4F8D4104143C4F8E0104FF0000A09
:1013600078E094F82700062800D073E0286828B1B8
:10137000206C20F008000830206403E0206C20F08E
:10138000080121644FF0000A64E094F82700062861
:1013900000D05FE0286828B1206C20F010001030E9
:1013A000206403E0206C20F0100121644FF0000A5B
:1013B00050E094F82700062800D04BE0286838B1A8
:1013C000D4F8D80020F00200801CC4F8D80005E052
:1013D000D4F8D80020F00201C4F8D81094F8D8004E
:1013E000C0F3400078B95320005D05280BDB204690
:1013F00000F0BFF800E009E028B1012148200153C6
:1014000006200AF059FE4FF0000A23E094F8270066
:10141000062800D01EE0286830B1206C20F480201F
:1014200000F58020206403E0206C20F480212164FA
:10143000206C20F4807000F5807020640121482029
:10144000015306200AF038FE4FF0000A02E06FF068
:101450006C0A00BF00BF5046BDE8F88F2DE9F0418F
:1014600006460F46344601220621204607F0A6FD17
:1014700010B96FF05E0512E05320005D052802D020
:101480006FF05E050BE0206C20F02000203020641F
:1014900001214820015306200AF00EFE00252846AF
:1014A000BDE8F0812DE9F84F8046894615466B4628
:1014B0002A464946404605F027FA10B94FF0FF3753
:1014C00054E0009807F0D2FD044614B94FF0FF3401
:1014D0004BE009F0B9FC060004D1204608F082FD7B
:1014E000741E42E020460099FEF722FF6660112D2F
:1014F00003D104F1380008F0DBFB04F1080008F028
:10150000E4FB646141F28830E0612062022084F8EB
:10151000260084F82750062D27D140F2B4514A20E6
:1015200001534C20015342F21071E16640F2B45174
:1015300042F21070FFF7A1FD2067E06E400840F214
:10154000B451B0FBF1FA51460120FFF7D4FCC4F8C6
:10155000D000206F400840F2B451B0FBF1FA514680
:101560000120FFF7C8FCC4F8D40027463846BDE880
:10157000F88F70B505462E4696F82700062802D04B
:101580006FF0150407E0B06F20B1B06F08F04DF9AF
:10159000044600E00024204670BD70B5064634467F
:1015A00094F82700062802D06FF0150507E0A06F19
:1015B00020B1A06F08F049F9054600E0256F2846E4
:1015C00070BD014691F83500022803D0802048659F
:1015D00001207047052081F835000868006820F078
:1015E00001000A6810600020F3E70146486D70476B
:1015F000F8B50446002000908C4800684FF416515E
:10160000B0FBF1F7A56D2E6894F85C1008208840B7
:10161000304098B12068006800F0040070B1206884
:10162000006820F004002168086094F85C1008202D
:101630008840A860606D40F00100606594F85C101F
:1016400001208840304068B12068406900F0800087
:1016500040B194F85C1001208840A860606D40F0B3
:101660000200606594F85C1004208840304068B146
:101670002068006800F0020040B194F85C1004207B
:101680008840A860606D40F00400606594F85C10CC
:1016900010208840304078B32068006800F00800CF
:1016A00050B394F85C1010208840A860206800684F
:1016B00000F4802080B12068006800F4002028B980
:1016C000206CC8B12046216C884715E0A06C98B109
:1016D0002046A16C88470FE02068006800F4807005
:1016E00028B92068006820F0080021680860206C94
:1016F00010B12046216C884794F85C102020884067
:101700003040002865D02068006800F010000028F4
:101710005FD094F85C1020208840A86094F83500D1
:10172000052828D12068006820F01600216808608C
:101730002068406920F0800021684861206C08B969
:10174000A06C28B12068006820F0080021680860BB
:1017500094F85C103F208840A86000BF002084F807
:10176000340000BF012084F83500206D10B1204600
:10177000216D8847F8BD2068006800F4802080B1A2
:101780002068006800F4002028B9606C10B1204681
:10179000616C88471DE0E06BD8B12046E16B88475B
:1017A00017E02068006800F4807068B9206800685D
:1017B00020F010002168086000BF002084F8340089
:1017C00000BF012084F83500E06B10B12046E16BCA
:1017D0008847606D38B3606D00F00100F0B10520FE
:1017E00084F835002068006820F001002168086056
:1017F00000BF0098401C0090B84200D905E0206866
:10180000006800F001000028F3D100BF00BF0020F5
:1018100084F8340000BF012084F83500E06C10B17A
:101820002046E16C884700BFA4E70000A800001034
:101830002DE9F0410446002500F008FD074614B9E3
:101840000120BDE8F081606A00B100BF00BF002048
:1018500084F8340000BF022084F835002068006856
:1018600020F00100216808600AE000F0EFFCC01BD6
:10187000052805D920206065032084F83500E0E7BD
:101880002068006800F001000028EED1206805689B
:1018900021480540D4E901010843E1680843216972
:1018A000084361690843A1690843E1690843216A63
:1018B00008430543606A042803D1D4E90B010843B7
:1018C0000543206805602068456925F00705606AC2
:1018D0000543606A04280DD1A06A0543E06A48B157
:1018E0002046FEF733FE28B140206065012084F8D1
:1018F0003500A6E7206845612046FEF70DFE064646
:1019000094F85C103F208840B060002060650120A2
:1019100084F83500002094E73F8010F02DE9F0476F
:1019200004460D4616461F464FF00008D4F858905E
:1019300000BF94F83400012802D10220BDE8F087EE
:10194000012084F8340000BF94F83500012825D127
:10195000022084F83500002060653B463246294667
:101960002046FEF748FE94F85C103F208840C9F8F6
:1019700008002068006840F0160021680860206CAC
:1019800028B12068006840F00800216808602068DD
:10199000006840F001002168086006E000BF0020F8
:1019A00084F8340000BF4FF002084046C6E700004C
:1019B00070B5044600F04AFC06462546681C10B186
:1019C00004480078054400BF00F040FC801BA8429A
:1019D000FAD370BDA400001070B505460C46002671
:1019E00000BF95F84500012801D1022070BD0120FB
:1019F00085F8450000BF022085F84400002C63D024
:101A0000286806683B480640D4E900010843A168FD
:101A10000843E1680843A9680843216908436169EC
:101A20000843E9680843A1690843E1690843216A5A
:101A30000843616A0843A16A0843064331462846C1
:101A400007F0FAFAD4E90B010843616B0843A16B74
:101A50000843E16B0843216C0843616C0843A16CA7
:101A6000084329684860286846680120FFF7A0FFFE
:101A700028684660E06C29688860206D2968C86025
:101A8000286886694FF641700640B4F85410A06D7E
:101A900040EA0140E16D0843216E0843616E08434E
:101AA000A16E084306433146284607F0D2FAD4E92E
:101AB0001B0108432968C8612868C6690120FFF72F
:101AC00077FF2868C6610BE02868066826F4904610
:101AD000D5E90201084306433146284607F0ACFA2F
:101AE000012085F8440000BF002085F8450000BFB4
:101AF00000BF7BE70F8120FF7047000070B50546EF
:101B000000BF00BF286800F5805040690E4900EA18
:101B10000104286800F58050446104F0C00020B141
:101B2000284600F0A3F900BF00BF04F0010020B177
:101B3000284600F011FA00BF00BF04F4004010B1C5
:101B40002846FFF7D9FF70BDFBE70138F8B504461A
:101B50000025394E00270CB90120F8BD94F8440047
:101B600010B9204600F076F800BF002000903348FE
:101B7000006840F48040314908600846006800F47D
:101B80008040009000BF00BF2D48006820F4000096
:101B90002B49086008460068216A08432849086004
:101BA000206800F58050006840F08101206800F551
:101BB0008050016000BF206800F58050006800F090
:101BC00001000028F7D12068056925F01C0500F008
:101BD00023FD06461B48864205D31B48864202D297
:101BE00045F008051AE01848864205D31248864297
:101BF00002D245F00C0511E00F48864203D313488A
:101C0000864200D20AE01148864205D31048864237
:101C100002D245F0040501E045F010052068056199
:101C200008F092F839462046FEF768FD012084F856
:101C30004400002091E700000087930344380240ED
:101C400004380140002D3101C00E160200E1F505F7
:101C500080D1F00810B586B00446142101A8FEF723
:101C600067FB4C49206888427ED100BF00BF00203E
:101C700000904948006840F00070474908600846F5
:101C8000006800F00070009000BF00BF00BF00209F
:101C900000900846006840F08060086008460068D0
:101CA00000F08060009000BF00BF00BF00200090E7
:101CB0000846006840F0006008600846006800F0D0
:101CC0000060009000BF00BF00BF00BF0020009078
:101CD0000846006840F0040008600846006800F00C
:101CE0000400009000BF00BF00BF00200090084625
:101CF000006840F0010008600846006800F001003C
:101D0000009000BF00BF00BF0020009008460068A0
:101D100040F0020008600846006800F002000090F1
:101D200000BF00BF3E2001900220029000200390DF
:101D3000032004900B20059001A9184800F080F9B9
:101D40008F20019002200290002003900320049035
:101D50000B20059001A9124800F072F943F60350D8
:101D600001900220029000E011E000200390032087
:101D700004900B20059001A90A4800F061F90022A7
:101D800005213D2000F012FB3D2000F0FFFA06B0D7
:101D900010BD0000008002403038024000080240C0
:101DA00000000240000402402DE9F04704460F46BF
:101DB00090460025A94694F84400822801D10226C5
:101DC00044E000BF94F84500012802D10220BDE89C
:101DD000F087012084F8450000BF822084F8440089
:101DE0002068056905F01C05208A4FF4784101EA56
:101DF000C0200543481100EA8710054325F002057D
:101E000045F001052068056100F020FA814613E0E5
:101E10002068056905F0010028B920684069C8F804
:101E20000000002609E000F011FAA0EB0900B0F56F
:101E3000803F01D3032600E0EAE700BF012084F8D9
:101E4000440000BF002084F8450000BF1EB13146A9
:101E500002A004F0F9F83046B9E700005265616469
:101E60005048593A2025640A0000000038B504465D
:101E7000002000900C48006840F001000A4908600A
:101E80000A48006870B169460848006808F054FDC7
:101E9000009838B14FF0805005490860BFF34F8F6C
:101EA000BFF36F8F38BD00005400001064000010B5
:101EB00004ED00E010B5044600BF94F84500012889
:101EC00001D1022010BD012084F8450000BF02208E
:101ED00084F844002046FEF740FD2046FEF726FD2C
:101EE0002046FEF7D7FB2046FEF7C6FB2046FEF74E
:101EF000A7FB012084F8440000BF002084F84500BF
:101F000000BF00BFDEE710B5044600BF94F84500EF
:101F1000012801D1022010BD012084F8450000BF36
:101F2000022084F844002046FEF798FB2046FEF786
:101F300079FB2046FEF7EEFC2046FEF7ABFB204681
:101F4000FEF700FD012084F8440000BF002084F863
:101F5000450000BF00BFDEE7704700002DE9F047F5
:101F600004460F4690460025A94694F844004228AE
:101F700001D1022644E000BF94F84500012802D1B7
:101F80000220BDE8F087012084F8450000BF422010
:101F900084F844002068056905F01C05208A4FF488
:101FA000784101EAC0200543481100EA8710054343
:101FB00045F0020545F001051FFA88F021684861E7
:101FC0002068056100F042F981460FE0206805694C
:101FD00005F0010008B9002609E000F037F9A0EB90
:101FE0000900B0F5803F01D3032600E0EEE700BF13
:101FF000012084F8440000BF002084F8450000BFA1
:102000001EB1314602A004F01FF83046B9E70000C7
:1020100057726974655048593A2025640A000000D7
:102020007047000010B5044604480068204020B105
:10203000024804602046FFF7F3FF10BD143C014046
:10204000F8B502460B460025002400200021DCE004
:10205000012606FA01F51E6806EA0504AC4273D1B2
:102060005E68012E08D05E68022E05D05E68112ED3
:1020700002D05E68122E13D190684F000326BE4036
:10208000B0434F00DE68BE40304390605068012688
:102090008E40B0431E79C6F300168E403043506028
:1020A000D0684F000326BE40B0434F009E68BE403C
:1020B0003043D0605E68022E02D05E68122E13D1CB
:1020C000CF0802F1200656F827004E07F70E0F261C
:1020D000BE40B0434F07FF0E1E69BE403043CF08DD
:1020E00002F1200646F8270010684F000326BE4084
:1020F000B0431E7906F003064F00BE403043106027
:102100005E6806F08056B6F1805F7DD100BF002684
:102110000096404E366846F480463E4F3E603E464E
:10212000366806F48046009600BF00BF3A4E8F081E
:1021300056F827008E07370F0F26BE40B043374EA4
:10214000B24202D1002624E05EE0354EB24201D117
:1021500001261EE0334EB24201D1022619E0324E72
:10216000B24201D1032614E0304EB24201D104261E
:102170000FE02F4EB24201D105260AE02D4EB242A9
:1021800001D1062605E02C4EB24201D1072600E01F
:1021900008268F073F0FBE4030431F4E8F0846F87A
:1021A0002700264E3068A0435E6806F48036B6F5F8
:1021B000803F00D12043214E3060361D3068A0435F
:1021C0005E6806F40036B6F5003F00D120431B4E92
:1021D000361D3060361D3068A0435E6806F48016F8
:1021E000B6F5801F00D12043144E08363060361DEE
:1021F0003068A0435E6806F40016B6F5001F00D1F3
:1022000020430E4E0C363060491C1029FFF420AFDD
:10221000F8BD000044380240083801400000024088
:102220000004024000080240000C0240001002407E
:102230000014024000180240001C0240003C014013
:102240000AB1816101E00B048361704701480068B5
:10225000704700009C00001003480068034909789B
:1022600008440149086070479C000010A400001059
:1022700010B50D48006840F400700B49086008462E
:10228000006840F4806008600846006840F4807090
:102290000860032000F0C8F8002000F007F800F004
:1022A0004BF8002010BD0000003C024070B588B023
:1022B00004460025002600222146192000F076F869
:1022C000192000F063F800BF002001901648006854
:1022D00040F00100144908600846006800F0010061
:1022E000019000BF00BF02A903A800F073F900F03D
:1022F000A9F945000D48B5FBF0F0461E0C480D4904
:10230000086040F2E7310B48C1604660002101617E
:10231000816001F0A7F920B9064801F0E1F908B0A1
:1023200070BD0120FBE700004438024040420F002E
:1023300000000140EC1F001008B500BF0020009015
:102340001148006840F480400F4908600846006862
:1023500000F48040009000BF00BF00BF002000904C
:10236000081F006840F08050091F08600846006898
:1023700000F08050009000BF00BF00220F21901E8F
:1023800000F014F808BD0000443802400146084639
:10239000002809DB00F01F0301229A4043099B003B
:1023A00003F1E023C3F8002100BF70472DE9F05F7F
:1023B00080460D461646002703F03EFA074639468A
:1023C0002A46334601F00700C0F1070ABAF1040FAC
:1023D00002D94FF0040A01E0C0F1070AD14600F12A
:1023E000040ABAF1070F02D24FF0000A01E0A0F18F
:1023F000030AD4464FF0010A0AFA09FAAAF1010ABF
:102400000AEA020A0AFA0CFA4FF0010B0BFA0CFB6B
:10241000ABF1010B0BEA030B4AEA0B0421464046E1
:1024200003F012FABDE8F09F00BF00F00702064B70
:1024300019684FF6FF031940044B0B4343EA02218E
:10244000014B196000BF70470CED00E00000FA0579
:1024500070B504460D460CB9012070BD584800689F
:1024600000F00F00A84209D255490D7008460068D7
:1024700000F00F00A84201D00120EEE7207800F024
:10248000020002281DD1207800F00400042805D1A4
:102490004C48006840F4E0504A490860207800F059
:1024A0000800082805D14748006840F460404549C5
:1024B00008604448006820F0F000A16808434149E2
:1024C0000860207800F00100A8B36068012807D1F7
:1024D0003C4808380068C0F34040B8B90120BCE768
:1024E0006068022802D06068032807D135480838A0
:1024F0000068C0F3406048B90120AEE731480838B1
:102500000068C0F3400008B90120A6E72D48006824
:1025100020F00300616808432A490860FFF796FE2F
:10252000064609E0FFF792FE801B41F2883188429F
:1025300002D9032091E707E02248006800F00C0070
:102540006168B0EB810FEDD11D48006800F00F000D
:10255000A84209D91A490D700846006800F00F001A
:10256000A84201D0012078E7207800F00400042878
:1025700007D11448006820F4E050E168084311498D
:102580000860207800F00800082808D10D4800688D
:1025900020F46040216940EAC1000A49086000F067
:1025A00061F808490968C1F30311074A515CC84042
:1025B0000649086006480068FFF778FE00204CE7EF
:1025C000003C02400838024014CC0008A80000106B
:1025D000A00000100F2202600D4A126802F00302F0
:1025E00042600B4A126802F0F0028260084A1268E8
:1025F00002F4E052C260064A126802F46042D20855
:102600000261044A126802F00F020A60704700007B
:1026100008380240003C0240014800687047000052
:10262000A800001000B5FFF7F7FF04490968C1F3DF
:102630008221034A515CC84000BD000008380240B6
:1026400024CC000800B5FFF7E7FF04490968C1F38F
:102650004231034A515CC84000BD000008380240C6
:1026600024CC00082DE9F047002400250026A146CF
:102670002548006800F00C0020B1042805D0082887
:102680003AD105E0DFF8849039E0DFF8849036E055
:102690001D48001F006800F03F041B48001F006831
:1026A00000F4800078B11A481749091F0968C1F37E
:1026B0008811A0FB01700146224600233846FDF731
:1026C000DFFD05460EE011480F49091F0968C1F3F7
:1026D0008811A0FB01700146224600233846FDF711
:1026E000CFFD05460848001F0068C0F30140401CAC
:1026F0004600B5FBF6F902E0DFF8109000BF00BF1E
:102700004846BDE8F0870000083802400024F40085
:1027100040787D01F8B504460CB90120F8BD207859
:1027200000F00100002874D0F948006800F00C00A7
:1027300004280DD0F648006800F00C00082813D1DA
:10274000F348001F006800F48000B0F5800F0BD143
:10275000EF4808380068C0F34040002859D060684E
:10276000002856D10120D9E700BF6068B0F5803F4E
:1027700008D1E7480838006840F48030E449083957
:1027800008601EE06068B0F5A02F0DD1E048083861
:10279000006840F48020DE49083908600846006877
:1027A00040F4803008600CE0D9480838006820F414
:1027B0008030D749083908600846006820F4802036
:1027C000086000BF606890B1FFF740FD054606E075
:1027D000FFF73CFD401B642801D903209EE7CC484D
:1027E00008380068C0F340400028F1D011E0FFF73E
:1027F0002DFD054606E0FFF729FD401B642801D9A1
:1028000003208BE7C24808380068C0F34040002826
:10281000F1D1207800F0020002285FD1BC480068A6
:1028200000F00C0058B1BA48006800F00C0008280D
:102830001CD1B748001F006800F48000B0B9B4484C
:1028400008380068C0F3400020B1E068012801D0DA
:10285000012063E7AE480838006820F0F8002169DD
:1028600040EAC100AA490839086037E0E06800B3CF
:102870000120A8490860FFF7E9FC054606E0FFF7DC
:10288000E5FC401B022801D9032047E7A04808388F
:102890000068C0F340000028F1D09D480838006867
:1028A00020F0F800216940EAC10099490839086020
:1028B00014E0002097490860FFF7C8FC054606E0D1
:1028C000FFF7C4FC401B022801D9032026E79048EB
:1028D00008380068C0F340000028F1D1207800F0EB
:1028E000080008282CD16069A8B101208A49086035
:1028F000FFF7ACFC054606E0FFF7A8FC401B0228EA
:1029000001D903200AE782486C300068C0F3400018
:102910000028F1D014E000207F490860FFF796FC02
:10292000054606E0FFF792FC401B022801D9032070
:10293000F4E677486C300068C0F340000028F1D11D
:10294000207800F00400042870D100277048383047
:10295000006800F0805090B900BF002000906C48E3
:102960003830006840F080506949383108600846C6
:10297000006800F08050009000BF00BF012767484A
:10298000006800F48070B0B96448006840F480705A
:1029900062490860FFF75AFC054606E0FFF756FC5F
:1029A000401B022801D90320B8E65C48006800F407
:1029B00080700028F2D000BFA068012808D15448D8
:1029C0006830006840F001005149683108601DE03E
:1029D000A06805280DD14E486830006840F004001A
:1029E0004B49683108600846006840F00100086003
:1029F0000CE047486830006820F001004449683125
:102A000008600846006820F00400086000BFA06865
:102A1000A8B1FFF71BFC054609E0FFF717FC401BB8
:102A200041F28831884202D9032077E626E038480F
:102A300068300068C0F340000028EED013E0FFF7D4
:102A400005FC054608E0FFF701FC401B41F2883118
:102A5000884201D9032061E62D4868300068C0F340
:102A600040000028EFD1012F07D1294838300068F5
:102A700020F0805026493831086000BFA069002846
:102A800045D02348006800F00C0008285DD0A069FC
:102A9000022845D100201F490866FFF7D7FB0546ED
:102AA00006E0FFF7D3FB401B022801D9032035E6DF
:102AB000174808380068C0F340600028F1D1D4E915
:102AC00007010843616A40EA81110122A06AC2EB52
:102AD000500041EA00412C20005D41EA00600C49B1
:102AE000091F086001200B490866FFF7AFFB054688
:102AF00006E0FFF7ABFB401B022801D903200DE6DF
:102B0000034808380068C0F340600028F1D03FE077
:102B10000838024000004742800E474200700040E3
:102B200000201C490866FFF791FB054606E0FFF709
:102B30008DFB401B022801D90320EFE516480068F1
:102B4000C0F340600028F2D122E0A069012800D142
:102B5000E4E51148001D066806F48001E069814241
:102B600014D106F03F01206A81420FD147F6C070B0
:102B70003040616A884209D106F44031A06A81423E
:102B800004D106F07061E06A814201D00120C5E500
:102B90000020C3E5000047420038024010B504465B
:102BA000FDF726FC10BD000070B58AB004460D4646
:102BB000032084F83400606C032820D0B5F5805FD2
:102BC00004D1A06B40F08050A0631CE0B5F5006F0D
:102BD00007D1204602F00BF90646A06B3043A063F4
:102BE00011E03DB9204602F0CEF80646A06B304316
:102BF000A06308E0A06B40F00060A06303E0A06B5E
:102C000040F08050A063A06B38B110482168886301
:102C1000012084F834000AB070BD60680490A06898
:102C20000590E0680690079560690890A069099092
:102C300007A807C88DE80700206804A90EC901F09D
:102C400011FA012084F834000020E4E7FF05400079
:102C50007047000010B50246506E800F0870506E2D
:102C6000C0F383604870506EC0F301608870506E8E
:102C7000000CC870B2F86400000A087192F8640091
:102C80004871906E000DC880906EC0F303400872CA
:102C90006820805AC0F3C03048726820805AC0F360
:102CA000803088726820805AC0F34030C872682033
:102CB000805AC0F30030087300204873506C00281D
:102CC00036D16820805A8005030DD06E43EA90709B
:102CD0000861D06EC0F3C2600875D06EC0F30260A8
:102CE0004875D06EC0F342508875D06EC0F38240F4
:102CF000C875D06EC0F3C23008760869401C5065B4
:102D00000B7E506D03F007039B1C01249C40604325
:102D10005065087A00F00F03012098409065D2E9D1
:102D200015035B0A5843D0654FF40073136621E026
:102D3000506C012813D16820805C8006830AD06E15
:102D400043EA104008610869401C83025365536DD3
:102D5000D3654FF400739365936D13660AE02E48B4
:102D600013689863906B40F080509063012082F864
:102D7000340010BD6C20805AC0F3803001F8190F68
:102D80006C20805AC0F3C61048706C20805C00F044
:102D90007F008870106FC00FC870106FC0F3417053
:102DA0000871106FC0F382604871106FC0F38350D8
:102DB0008871106FC0F34050C87100200872106F06
:102DC000C0F3004048727020805AC0F3C03088724F
:102DD0007020805AC0F38030C8727020805AC0F3CF
:102DE000403008737020805AC0F300304873702060
:102DF000805AC0F3812088737020805AC0F301206C
:102E0000C8737020805CC0F34600087401204874C9
:102E100019390020ADE70000FF0540000246506C64
:102E20000860906C4860D06C8860106DC860506D10
:102E30000861906D4861D06D8861106EC861002096
:102E40007047F8B50446002000906946204601F01E
:102E500082FF054615B1A06B2843A0630098C0F31C
:102E600043263046F8BD000070B50446256B206847
:102E7000406BC0F3C03030B105F0080018B12046F7
:102E800001F044FFF8E02068406BC0F30020002808
:102E900062D04FF48070216888632068C06B4CF268
:102EA0003A3188432168C8632068C06A20F0010075
:102EB0002168C86205F0080038B305F0020010B9B7
:102EC00005F0200050B1206801F08CFA06462EB1C2
:102ED000A06B3043A0632046FFF7BAFE40F23A50A1
:102EE00021688863012084F834000020206305F005
:102EF000010010B905F0020018B1204600F0A0FA58
:102F0000BAE0204600F0A1FAB6E005F08000002803
:102F1000B8D005F0200050B1206801F063FA0646F1
:102F20002EB1A06B3043A0632046FFF791FE05F061
:102F300001000028A6D105F002000028A2D12068D7
:102F4000C06A20F008002168C862012084F83400BB
:102F5000204600F07AFA8FE02068406BC0F38030A2
:102F600030B105F0080018B1204601F074FF83E08D
:102F70002068406B40F23A21084008B1012000E08F
:102F80000020002878D02068406BC0F3400018B1C2
:102F9000A06B40F00200A0632068406BC0F3C0004B
:102FA00018B1A06B40F00800A0632068406BC0F32C
:102FB000401018B1A06B40F02000A0632068406B67
:102FC000C0F3001018B1A06B40F01000A06320689F
:102FD000406BC0F3402018B1A06B40F00800A06324
:102FE00040F23A70216888632068C06B40F23A3141
:102FF00088432168C863206801F0F4F9A16B084395
:10300000A06305F0080040B1012084F834000020DE
:1030100020632046FFF71CFE2EE005F0800000B381
:1030200005F0100010B905F0200050B11348E16B15
:103030000865E06BFEF7C5FA98B1E06B01F0C1FCE2
:103040001AE005F0010010B905F0020050B10C487B
:10305000216C0865206CFEF7B4FA10B1206C01F009
:1030600083FC09E00020A063012084F834000020E4
:1030700020632046FFF792FD70BD0000C3490008A1
:103080006949000810B504460CB9012010BD94F838
:10309000340020B900202077204600F053F80320A8
:1030A00084F83400204600F00BF808B10120EDE769
:1030B0000020A0632063012084F834000020E5E7AD
:1030C00070B58AB0044600200490059006900790E1
:1030D00008907620099007A807C88DE807002068A7
:1030E00004A90EC900F0BEFF064616B101200AB0C1
:1030F00070BD002012490860206800F0CDFF01205B
:103100000F49A039C1F8A000204601F099FD0546FD
:103110003DB1012084F83400A06B2843A063012056
:10312000E5E7204601F00BFD05463DB1012084F89E
:103130003400A06B2843A0630120D8E70020D6E725
:10314000A080254210B586B00446142101A8FDF7E1
:10315000EFF85F49206888427ED100BF00200090D0
:103160005C48006840F400605A49086008460068FE
:1031700000F40060009000BF00BF00BF002000907E
:1031800054481438006840F004005249143908606B
:103190000846006800F00400009000BF00BF00BFB8
:1031A000002000900846006840F0080008600846CB
:1031B000006800F00800009000BF00BF4FF470608E
:1031C00001900220029001200390032004900C2023
:1031D000059001A94048FEF733FF4FF4805001905D
:1031E0000220029000200390032004900C20059000
:1031F00001A93948FEF724FF042001900220029023
:1032000001200390032004900C20059001A933486D
:10321000FEF716FF3248334908604FF000604860FF
:10322000002130488160C1604FF4806101618900F4
:103230004161890081612021C16100210162042175
:103240004162032181624FF40001C1628910016370
:10325000FEF7EEFA18B100E038E0FDF78FFB00BF93
:1032600020482064846300BF1D4848301E49086020
:103270004FF00060486040211B4881600021C16020
:103280004FF48061016189004161890081612021E1
:10329000C1610021016204214162032181624FF476
:1032A0000001C16289100163FEF7C2FA08B1FDF79F
:1032B00065FB00BF0C48E063846300BF002205216A
:1032C0003120FFF773F83120FFF760F806B010BD2A
:1032D000002C01404438024000080240000C02402B
:1032E000586402406C1D0010CC1D00102DE9F04305
:1032F00087B004460F4691461E46C8463FB9A06BAC
:1033000040F00060A063012007B0BDE8F08394F8AE
:103310003400012871D10020A06308EB0601E06DA4
:10332000814205D9A06B40F00070A0630120EBE75B
:10333000032084F8340000202168C8622068C06B34
:1033400040F22A3108432168C8633948216CC863B8
:103350003848216CC8640020216C0865720293080B
:10336000226802F180013A46206CFEF7D7FA80B15C
:103370002068C06B20F495702168C8632E482168CE
:103380008863A06B40F08040A063012084F8340083
:10339000BAE7012029490860606C012801D04FEA92
:1033A00048284FF40071206800F0D8FE05464DB162
:1033B000214821688863A06B2843A063012084F81A
:1033C0003400A1E74FF0FF3001907002029090208E
:1033D000039002200490002005900120069001A98E
:1033E000206800F012FE012E08D982202063414699
:1033F000206800F01BFF054607E016E081202063EF
:103400004146206800F02EFF054665B10A48216854
:103410008863A06B2843A063012084F83400002057
:103420002063012070E700206EE702206CE70000B7
:1034300021490008AD480008FF0540008C85254261
:1034400010B50446FDF71EF810BD10B50446FDF793
:1034500037F810BD2DE9F04387B004468846914601
:103460001E464F46B8F1000F07D1A06B40F0006038
:10347000A063012007B0BDE8F08394F83400012870
:1034800077D10020A063B919E06D814205D9A06B06
:1034900040F00070A0630120ECE7032084F83400C2
:1034A00000202168C8622068C06B40F21A210843DE
:1034B0002168C8633948E16BC8633948E16BC86467
:1034C0000020E16B0865606C012800D07F024FF49A
:1034D0000071206800F042FE05464DB13148216878
:1034E0008863A06B2843A063012084F83400C1E7FF
:1034F000012E07D9A02020633946206800F090FFF4
:10350000054606E0902020633946206800F0A4FFBD
:10351000054665B1234821688863A06B2843A063F2
:10352000012084F83400002020630120A2E701205C
:103530001D49086071028B08216801F18002414633
:10354000E06BFEF7EBF9A8B12068C06B40F21A21DE
:1035500088432168C863134821688863A06B40F0E2
:103560008040A063012084F8340000202063012003
:1035700080E711E04FF0FF30019070020290902040
:1035800003900020049005900120069001A9206876
:1035900000F03BFD00206DE702206BE7B149000819
:1035A000AD480008FF0540008C85254270477047F4
:1035B00030B502460B4600BF92F83C00012801D10D
:1035C000022030BD012082F83C0000BF022082F8BA
:1035D0003D00106844681068816824F07004186821
:1035E000044310684460184D1068A8421BD010684E
:1035F000B0F1804F17D0154D1068A84213D0144D6C
:103600001068A8420FD0134D1068A8420BD0124D7D
:103610001068A84207D0114D1068A84203D0104D81
:103620001068A84205D121F0800158680143106854
:103630008160012082F83D0000BF002082F83C003C
:1036400000BF00BFBDE700000000014000040040D3
:1036500000080040000C0040000401400040014010
:103660000018004010B504460CB9012010BD94F8B4
:103670003D0028B9002084F83C00204600F00CF8FA
:10368000022084F83D00211D206801F095FD0120F5
:1036900084F83D000020E9E738B504460E4920686B
:1036A000884217D100BF002000900C48006840F00D
:1036B00010000A4908600846006800F010000090F9
:1036C00000BF00BF002205213620FEF76FFE362026
:1036D000FEF75CFE38BD000000100040403802409C
:1036E00001460868C06840F001000B68D8600868AF
:1036F000806800F00702062A05D00868006840F0DC
:1037000001000B68186000207047704710B5044630
:1037100020680069C0F34000D8B12068C068C0F3D9
:103720004000B0B16FF002002168086101202077ED
:103730002068806900F0030018B12046FFF7E5FF1C
:1037400005E0204600F0ADF8204600F0ABF8002080
:10375000207720680069C0F38000D8B12068C06875
:10376000C0F38000B0B16FF004002168086102204E
:1037700020772068806900F4407018B12046FFF778
:10378000C4FF05E0204600F08CF8204600F08AF8DF
:103790000020207720680069C0F3C000D8B12068FD
:1037A000C068C0F3C000B0B16FF0080021680861C4
:1037B000042020772068C06900F0030018B120467B
:1037C000FFF7A3FF05E0204600F06BF8204600F06D
:1037D00069F80020207720680069C0F30010D8B194
:1037E0002068C068C0F30010B0B16FF0100021680D
:1037F0000861082020772068C06900F4407018B183
:103800002046FFF782FF05E0204600F04AF82046F8
:1038100000F048F8002020772068006900F00100DF
:1038200058B12068C06800F0010030B16FF00100AD
:1038300021680861204600F037F820680069C0F36D
:10384000C01058B12068C068C0F3C01030B16FF02C
:103850008000216808612046FFF7A8FE2068006903
:10386000C0F3801058B12068C068C0F3801030B138
:103870006FF0400021680861204600F021F82068C0
:103880000069C0F3401058B12068C068C0F3401010
:1038900030B16FF02000216808612046FFF787FEF5
:1038A00010BD70477047000010B5044603492068FA
:1038B000884201D1FEF7D0FC10BD0000000001409D
:1038C000704770472DE9F047044620680568206876
:1038D000C668206847694FF00008C14605F00F0828
:1038E000B8F1000F0AD105F0200038B106F0200031
:1038F00020B1204601F0F6FCBDE8F087B8F1000FDA
:1039000072D007F0010018B906F4907000286BD04F
:1039100005F0010030B106F4807018B1E06B40F0A2
:103920000100E06305F0040030B107F0010018B1B8
:10393000E06B40F00200E06305F0020030B107F0F8
:10394000010018B1E06B40F00400E06305F00800EE
:1039500048B106F0200010B907F0010018B1E06B83
:1039600040F00800E063E06B70B305F0200028B180
:1039700006F0200010B1204601F0B4FC2068406938
:10398000C0F38019E06B00F0080010B9B9F1000F26
:1039900023D0204601F086FC2068406900F04000FA
:1039A000402816D12068406920F040002168486115
:1039B000606B50B11748616B0865606BFDF701FEE5
:1039C00010B1606B016D88470CE02046FFF779FF6E
:1039D00008E02046FFF775FF04E02046FFF771FF7F
:1039E0000020E06388E7FFE705F0800030B106F0D3
:1039F000800018B1204601F0BDFE7DE705F04000D3
:103A000030B106F0400018B1204601F05BFC73E7CE
:103A100000BF71E79152000810B504460CB90120AF
:103A200010BDA06900B100E000BF94F8390028B9CA
:103A3000002084F83800204600F028F8242084F87C
:103A400039002068C06820F400502168C860204612
:103A500001F09CFC2068006920F490402168086116
:103A60002068406920F02A00216848612068C06809
:103A700040F400502168C8600020E063202084F8F2
:103A8000390084F83A000020CAE7000010B586B07B
:103A90000446142101A8FCF74BFC7D4920688842AC
:103AA00076D100BF002000907A48006840F01000F6
:103AB000784908600846006800F01000009000BFD8
:103AC00000BF00BF0020009072481438006840F02A
:103AD00001007049143908600846006800F00100D0
:103AE000009000BF00BF4FF4C06001900220029020
:103AF00000200390032004900720059001A9664848
:103B0000FEF79EFA6548664908604FF0006048601D
:103B1000002163488160C1604FF480610161002130
:103B200041618161C16101624162FDF781FE08B1BD
:103B3000FCF724FF00BF5A486063846300BF574806
:103B40007830584908604FF000604860402155487F
:103B500081600021C1604FF48061016100214161F9
:103B60008161C16101624162FDF762FE08B1FCF74B
:103B700005FF00BF4B482063846300BF002205217E
:103B80002520FEF713FC2520FEF700FC7EE0FFE772
:103B90004549206888423AD100BF002000903D4846
:103BA000001F006840F400303A49091F08600846C9
:103BB000006800F40030009000BF00BF00BF00208C
:103BC000009034481438006840F008003149143936
:103BD00008600846006800F00800009000BF00BFC1
:103BE00060200190022002900020039003200490A6
:103BF0000720059001A92D48FEF722FA0022052191
:103C00002620FEF7D3FB2620FEF7C0FB3EE0284926
:103C1000206888423AD100BF002000901D48001F54
:103C2000006840F480201B49091F086008460068AE
:103C300000F48020009000BF00BF00BF0020009073
:103C400014481438006840F008001249143908601C
:103C50000846006800F00800009000BF00BF4FF465
:103C600040700190022002900020039003200490F5
:103C70000720059001A90D48FEF7E2F90022052171
:103C80002720FEF793FB2720FEF780FB06B010BD30
:103C900000100140443802400000024040640240ED
:103CA0002C1F00108C1F001000440040000C02402C
:103CB000004800407047704700BFFEE708B500BFEE
:103CC000002000901648006840F480001449086005
:103CD0000846006800F48000009000BF00BF00228A
:103CE00005213A20FEF762FB3A20FEF74FFB002247
:103CF00005213B20FEF75AFB3B20FEF747FB002245
:103D000005214520FEF752FB4520FEF73FFB002230
:103D100005214620FEF74AFB4620FEF737FB08BD8B
:103D20003038024010B503490348FCF728FE034928
:103D3000087010BD75000010A0CB000874000010C2
:103D400000B587B01C2206496846FCF7CAFA002174
:103D5000684602F05FFA0349086007B000BD000042
:103D6000C4CB00089400001000B587B0142102A84D
:103D7000FCF7DEFA00BF002001905648006840F0D2
:103D80000400544908600846006800F004000190EF
:103D900000BF00BF00BF002001900846006840F04F
:103DA000800008600846006800F08000019000BFB5
:103DB00000BF00BF002001900846006840F00100ED
:103DC00008600846006800F00100019000BF00BFD5
:103DD00000BF002001900846006840F00200086023
:103DE0000846006800F00200019000BF00BF00BF5D
:103DF000002001900846006840F010000860084666
:103E0000006800F01000019000BF00BF00BF00205C
:103E100001900846006840F0080008600846006805
:103E200000F00800019000BF00BF00224FF4E04105
:103E30002948FEF705FA00224FF480512748FEF783
:103E4000FFF9002211212648FEF7FAF94FF4E0406D
:103E500002900120039000200490059002A91E48C2
:103E6000FEF7EEF84FF4004002900020039001208E
:103E7000049002A91848FEF7E3F84FF4805002902E
:103E80000120039000200490059002A91348FEF73A
:103E9000D7F8112002900120039000200490059093
:103EA00002A90F48FEF7CCF84FF4007002900D48BD
:103EB00003900020049002A90B48FEF7C1F80022ED
:103EC00005211720FEF772FA1720FEF75FFA07B0F8
:103ED00000BD0000303802400010024000000240E7
:103EE000000C02400000111000040240064807497F
:103EF000086000204860002104488160C1600161C1
:103F00004161032181617047002C0140E81C0010D1
:103F10001CB50020009001900E480F49086040F247
:103F20004730486000210C4881600921C1600021B0
:103F30008161FFF797FB08B1FCF720FD202000907E
:103F40000020019069460448FFF732FB08B1FCF7F6
:103F500015FD1CBD001000402C1E001010B50B48B4
:103F60000B4908604FF4E130486000210848816047
:103F7000C16001610C21416100218161C161FFF7D4
:103F80004BFD08B1FCF7FAFC10BD00000010014029
:103F90006C1E001010B50B480B4908604FF4E1305F
:103FA0004860002108488160C16001610C214161C5
:103FB00000218161C161FFF72FFD08B1FCF7DEFC34
:103FC00010BD000000440040AC1E001010B50B48AE
:103FD0000B4908604FF4E1304860002108488160D7
:103FE000C16001610C21416100218161C161FFF764
:103FF00013FD08B1FCF7C2FC10BD000000480040F2
:10400000EC1E001000BFFEE7704710B5024600230B
:104010000868506248689062D1E9020420430C6944
:1040200020434C6920430343D06A20F0F700184333
:10403000D062002010BD01460869C0B27047014639
:10404000086800F003007047024602F114004318AC
:104050001868704710B50248FEF706FF10BD000053
:10406000E81C00100FB410B504460021DDE903027E
:104070001043059A1043069A1043079A1043089A72
:1040800010430143606847F6FF6290430843606055
:10409000002010BC5DF814FB10B50446032020601E
:1040A0000220FDF785FC002010BD0146D1F88000FC
:1040B000704710B50246002308689060D1E90104FA
:1040C0002043CC6820430C6920430343D0686FF33E
:1040D0000B001843D060002010BD02460868C2F8EB
:1040E00080000020704770B586B005460C460194EC
:1040F0003720029040200390002004904FF480600D
:10410000059001A92846FFF7D4FF41F288323721F4
:10411000284600F0DDF90646304606B070BD0000C6
:1041200070B586B005460C460B4820430190292007
:10413000029040200390002004904FF4806005908E
:1041400001A92846FFF7B5FF284600F0C9FA064640
:10415000304606B070BD00000000108070B586B01B
:1041600005460C4601941020029040200390002048
:1041700004904FF48060059001A92846FFF799FF4D
:1041800041F288321021284600F0A2F90646304656
:1041900006B070BD70B586B005460C460194062089
:1041A000029040200390002004904FF4806005901E
:1041B00001A92846FFF77DFF41F2883206212846F3
:1041C00000F086F90646304606B070BD30B585B0C1
:1041D0000446002000900190029003904FF480600C
:1041E000049069462046FFF764FF204600F050F92E
:1041F0000546284605B030BD30B585B004464FF4BD
:10420000D57000900820019040200290002003907B
:104210004FF48060049069462046FFF74AFF20462D
:1042200000F0E6FA0546284605B030BD70B586B008
:1042300005460C4601941220029040200390002075
:1042400004904FF48060059001A92846FFF731FFE4
:1042500041F288321221284600F03AF906463046EB
:1042600006B070BD70B586B005460C4601941120AD
:10427000029040200390002004904FF4806005904D
:1042800001A92846FFF715FF41F28832112128467F
:1042900000F01EF90646304606B070BDF0B585B098
:1042A000064614461D4600940720019040200290C7
:1042B000002003904FF48060049069463046FFF779
:1042C000F8FE41F288320721304600F001F9074636
:1042D000384605B0F0BD30B585B0044600200090EA
:1042E00002200190C0200290002003904FF48060D3
:1042F000049069462046FFF7DCFE204600F0BEF938
:104300000546284605B030BD70B586B005460C465A
:10431000019409200290C0200390002004904FF4E3
:104320008060059001A92846FFF7C3FE284600F0EB
:10433000A5F90646304606B070BD30B585B00446D6
:104340000020009033200190402002900020039034
:104350004FF48060049069462046FFF7AAFE41F2C0
:1043600088323321204600F0B3F80546284605B0D0
:1043700030BD70B586B005460C4601940D20029004
:1043800040200390002004904FF48060059001A924
:104390002846FFF78EFE41F288320D21284600F0B4
:1043A00097F80646304606B070BD70B586B0054633
:1043B0000C46002001900320029040200390002032
:1043C00004904FF48060059001A92846FFF771FE24
:1043D00022460321284600F0AFF90646304606B0D3
:1043E00070BD000030B585B00446002000900C2060
:1043F000019040200290002003904FF480600490D0
:1044000069462046FFF755FE044A0C21204600F07D
:104410005FF80546284605B030BD000000E1F5050F
:1044200070B586B005460C460194192002904020D4
:104430000390002004904FF48060059001A9284665
:10444000FFF737FE41F288321921284600F040F884
:104450000646304606B070BD70B586B005460C46BF
:1044600001941820029040200390002004904FF403
:104470008060059001A92846FFF71BFE41F28832B3
:104480001821284600F024F80646304606B070BDD4
:1044900001460E480068C0084FF47A73B0FBF3F091
:1044A00041F2883300FB03F200BF1000A2F10102C9
:1044B00002D14FF000407047486B00F080000028A8
:1044C000F3D0C52088630020F5E70000A8000010A5
:1044D0002DE9F04305460F46904666480068C0083F
:1044E0004FF47A71B0FBF1F000FB08F900BF5FEA0E
:1044F0000900A9F1010903D14FF00040BDE8F083A4
:104500006E6B06F045000028F1D006F4006000282C
:10451000EDD1686B00F0040010B10420A863EDE752
:10452000686B00F0010010B10120A863E6E7C52028
:10453000A8632846FFF77FFDB84201D00120DDE7E0
:1045400000212846FFF780FD04464B48204008B96B
:104550000020D3E704F00040B0F1004F02D14FF04B
:104560000070CBE704F08040B0F1804F01D14020D3
:10457000C4E704F00050B0F1005F01D18020BDE736
:1045800004F08050B0F1805F02D14FF48070B5E745
:1045900004F00060B0F1006F02D14FF40070ADE79D
:1045A00004F08060B0F1806F02D14FF48060A5E725
:1045B00004F08070B0F1807F02D14FF400609DE77D
:1045C00004F40000B0F5000F02D14FF4805095E7DD
:1045D00004F48000B0F5800F02D14FF400508DE755
:1045E00004F40010B0F5001F02D14FF4804085E7BD
:1045F00004F48010B0F5801F02D14FF400407DE735
:1046000004F48020B0F5802F02D14FF4003075E71C
:1046100004F40030B0F5003F02D14FF480206DE784
:1046200004F48030B0F5803F02D14FF4002065E7FC
:1046300004F40040B0F5004F02D14FF480105DE764
:1046400004F48040B0F5804F02D14FF4001055E7DC
:1046500004F40050B0F5005F02D14FF480004DE744
:1046600004F00800082801D1000547E74FF4803026
:1046700044E70000A800001008E0FFFD10B5014667
:1046800016480068C0084FF47A74B0FBF4F041F2A9
:10469000883400FB04F300BF1800A3F1010302D12A
:1046A0004FF0004010BD4A6B02F045000028F3D0E7
:1046B00002F400600028EFD1486B00F0040010B154
:1046C00004208863EEE7486B00F0010010B1012080
:1046D0008863E7E7C52088630020E3E7A8000010AF
:1046E00010B5014613480068C0084FF47A74B0FB57
:1046F000F4F041F2883400FB04F300BF1800A3F18A
:10470000010302D14FF0004010BD4A6B02F045009A
:104710000028F3D002F400600028EFD1486B00F0CD
:10472000040010B104208863EEE7C52088630020F0
:10473000EAE70000A80000102DE9F04304460F4608
:1047400090462A480068C0084FF47A71B0FBF1F037
:1047500041F2883100FB01F900BF5FEA0900A9F1CD
:10476000010903D14FF00040BDE8F083666B06F00D
:1047700045000028F1D006F400600028EDD1606B00
:1047800000F0040010B10420A063EDE7606B00F0BE
:10479000010010B10120A063E6E72046FFF74BFCC3
:1047A000B84201D00120DFE7C520A06300212046E8
:1047B000FFF74AFC054605F4604020B9280CA8F82C
:1047C00000000020D0E705F48040B0F5804F02D112
:1047D0004FF40050C8E705F40040B0F5004F02D197
:1047E0004FF48050C0E74FF48030BDE7A8000010C0
:1047F00010B5014618480068C0084FF47A74B0FB41
:10480000F4F041F2883400FB04F300BF1800A3F178
:10481000010302D14FF0004010BD4A6B02F0450089
:104820000028F3D002F400600028EFD1486B00F0BC
:10483000040010B104208863EEE7486B00F001002B
:1048400010B101208863E7E7486B00F0400008B131
:10485000402088630020DFE7A800001010B5044660
:10486000012007490870FBF7CFFD28B904480078FC
:1048700020F00100024908700148007810BD0000D6
:104880006C00001070B5044601F027FC054604E0FA
:10489000FBF7BAFD08B9002070BD01F01EFC401BFB
:1048A000A042F5D34FF0FF30F6E700002DE9F041CC
:1048B0000646B46B3046FCF798FE02282CD0206CDC
:1048C000476DE06BD0F85480012F02D0B8F1010F92
:1048D0001FD11248216888632068C06B20F49D7046
:1048E0002168C863A06B40F08040A0632046FEF7BB
:1048F000A8FA0546062D01D0052D05D12068FFF741
:1049000071FDA16B0843A063012084F834000020EE
:1049100020632046FEF79CF9BDE8F081FF054000CA
:1049200070B50646B46B206B82280AD12068FFF769
:1049300059FD05462DB1A06B2843A0632046FEF724
:1049400087F92068C06A20F008002168C86240F238
:104950003A5021688863012084F8340000202063E5
:104960002046FEF76DFD70BD70B50546AC6B40F29C
:104970003A50216888632046FEF763FA0646012014
:1049800084F8340000202063062E01D0052E05D1C6
:104990002068FFF727FDA16B0843A063A06B18B93F
:1049A0002046FEF7FBF802E02046FEF751F970BD05
:1049B0000146886B0268D26B42F480720368DA6346
:1049C000704770B50546AC6B40F23A502168886379
:1049D0002046FEF736FA0646012084F8340000200F
:1049E0002063062E01D0052E05D12068FFF7FAFCC2
:1049F000A16B0843A063A06B18B92046FEF7CEF860
:104A000002E02046FEF724F970BD2DE9F04389B09D
:104A100004460F46FDF71AFC81464FF000080020BF
:104A2000019002903E4608212068FFF797FB05465B
:104A30001DB1284609B0BDE8F0835022125B110475
:104A40002068FFF750FB05460DB12846F2E74FF00E
:104A5000FF3003900820049030200590022006903B
:104A6000002007900120089003A92068FFF7CDFAE5
:104A70002068FFF762FC05460DB12846DAE715E02D
:104A80002068406B00F4001038B12068FFF70DFB80
:104A900001A941F8280008F10108FDF7D7FBA0EBB8
:104AA0000900401C10B94FF00040C3E72068406B7C
:104AB00040F22A4108400028E2D02068406B00F014
:104AC000080018B1082021688863B3E72068406BAC
:104AD00000F0020018B1022021688863AAE720686C
:104AE000406B00F0200018B1202021688863A1E706
:104AF00040F23A502168886302980006029901F456
:104B00007F4140EA0120029901F47F0140EA11202F
:104B1000029940EA11603060361D01980006019943
:104B200001F47F4140EA0120019901F47F0140EA4C
:104B30001120019940EA1160306000207AE730B519
:104B40008FB00446012003902068FFF778FA18B967
:104B50004FF080600FB030BD606C03281BD0206820
:104B6000FFF7B9FB05460DB12846F3E700212068A1
:104B7000FFF76AFA606704212068FFF765FAA0670B
:104B800008212068FFF760FAE0670C212068FFF732
:104B90005BFA80210851606C032807D003A92068C4
:104BA000FFF703FC05460DB12846D3E7606C0328E8
:104BB00020D0BDF80C1021655022125B1104206832
:104BC000FFF7A2FB05460DB12846C3E70021206888
:104BD000FFF73AFA606604212068FFF735FAA0660D
:104BE00008212068FFF730FAE0660C212068FFF703
:104BF0002BFA206704212068FFF726FA010DE164F3
:104C000004A92046FEF726F810B14FF08050A1E726
:104C10005020005B01040A4600232068FFF73EFB9A
:104C200005460DB1284695E7D4E90412A069CDE9FF
:104C30000012029094E80F00FFF714FA002089E7B1
:104C4000F8B5044600200090002600272068FFF7F2
:104C5000BDFA05460DB12846F8BD2068FFF7CCFA2D
:104C6000054645B10021A1642068FFF7AFFA05466B
:104C70001DB12846F0E70121A164A06C012808D1EC
:104C800000212068FFF72FFA054615B14FF080503C
:104C9000E2E71DE000212068FFF725FA05460DB187
:104CA0002846D9E718492068FFF73AFA054615B1B2
:104CB0004FF08050D0E700212068FFF7C5F9064685
:104CC000012080EAD67080F001070098401C009017
:104CD0004FF6FF710098884201D2002FDAD04FF6CC
:104CE000FF710098884202D34FF08070B4E706F05D
:104CF0008040B0F1804F02D10120606401E00020CB
:104D000060640020A8E70000000010C12DE9F04118
:104D10000546AC6AEF6AE7B14FF0000814E0286876
:104D2000FFF7C3F906462670641C7F1E300A207008
:104D3000641C7F1E300C2070641C7F1E300E20709F
:104D4000641C7F1E08F10108B8F1080FE7D3AC62BC
:104D5000EF62BDE8F08170B504460D4615B94FF01D
:104D6000006070BD5022125B11042068FFF701FB48
:104D700006460EB13046F4E700212068FFF764F9DB
:104D800028600020EDE77CB50446002000900190EB
:104D900000212068FFF758F900F00070B0F1007FA3
:104DA00002D14FF400607CBD69462046FFF72DFE1E
:104DB00005460DB12846F6E7019800F4803098B119
:104DC0005022125B11042068FFF78DF905460DB1E2
:104DD0002846E8E700212068FFF7DCF905460DB119
:104DE0002846E0E70020DEE74FF08060DBE77CB597
:104DF000044600200090019000212068FFF724F96C
:104E000000F00070B0F1007F02D14FF400607CBD73
:104E100069462046FFF7F9FD05460DB12846F6E73D
:104E2000019800F4802098B15022125B1104206890
:104E3000FFF759F905460DB12846E8E70221206839
:104E4000FFF7A8F905460DB12846E0E70020DEE7A8
:104E50004FF08060DBE7F8B505462C6A6E6A1EB33A
:104E600000271DE020780090641C761E20780099B1
:104E700041EA00200090641C761E2078009941EAE7
:104E800000400090641C761E2078009941EA006082
:104E90000090641C761E69462868FFF71EF97F1C87
:104EA000082FDFD32C626E62F8BD00001FB50446E8
:104EB00001201649087001F002F910B3FBF7B0FAAF
:104EC00020B92046FFF7CAFC104908700F48007847
:104ED000012816D00E48006850B90E4B0FCB8DE854
:104EE0000F000021684601F002F90949086000BF7F
:104EF0000748006828B90548007840F001000349D8
:104F000008700248007804B010BD00006C0000106A
:104F100070000010B4CB0008F0B589B007460D460C
:104F2000144601261648007800F0010010B1032055
:104F300009B0F0BD35B1012D06D0022D0BD0032DE7
:104F400018D10FE0002617E001A8FBF753FA0798E5
:104F50002060002610E001A8FBF74CFA089820809A
:104F6000002609E001A8FBF745FA0898400A2060EE
:104F7000002601E0042600BF00BF3046D8E700004D
:104F80006C0000102DE9F04786B082460E461746A9
:104F900098464FF0010947F23050FFF773FC0028A4
:104FA00003DA484606B0BDE8F08742463946304647
:104FB000FBF754FA054615BB47F230521148016819
:104FC000684601F0A9F89DE8070003AB07C3039802
:104FD000102814D10498012811D101F07EF804465C
:104FE00005E0FBF711FA10B94FF0000906E001F0F7
:104FF00074F8001B47F230518842F2D300BF484694
:10500000D0E700007000001010B504462046FFF7FE
:1050100025FC10BD2DE9F04387B081460D461646AC
:105020001F464FF0010847F23050FFF72BFC0028D5
:1050300003DA404607B0BDE8F0833A4631462846D9
:10504000FBF72AFA10BB47F230521148016801A859
:1050500001F062F801A807C804AB07C30498102840
:1050600014D10598022811D101F037F8044605E063
:10507000FBF7CAF910B94FF0000806E001F02DF86F
:10508000001B47F230518842F2D300BF4046D1E7BF
:105090007000001010B500BF502080F31188BFF3DE
:1050A0004F8FBFF36F8F00BF07F008FB18B14FF0B1
:1050B00080500449086000BF002080F3118800BFC1
:1050C00010BD000004ED00E000B593B0302107A84A
:1050D000FBF72EF9142102A8FBF72AF900BF0020E4
:1050E00001902448006840F080502249086008463A
:1050F000006800F08050019000BF00BF00BF00209A
:1051000001901D48006840F480401B490860084633
:10511000006800F48040019000BF00BF01200790AC
:105120000004089002200D9041050E9119210F9165
:105130004FF4A8711091022111910721129107A833
:10514000FDF7E8FA08B1FBF719FC0F2002900220E6
:105150000390002004904FF4A05005904FF480502D
:105160000690052102A8FDF773F908B1FBF706FCCC
:1051700013B000BD40380240007000400548006890
:1051800040F47000034908604FF000600149803925
:105190000860704788ED00E010B50248FEF7B6FAE7
:1051A00010BD0000EC1F001010B50248FEF7AEFA6B
:1051B00010BD00002C1E001010B50268294B98424B
:1051C0000ED0B0F1804F0BD0274B984208D0274B20
:1051D000984205D0264B984202D0264B984203D1E4
:1051E00022F070024B681A431E4B984220D0B0F157
:1051F000804F1DD01C4B98421AD01C4B984217D0A0
:105200001B4B984214D01B4B984211D01A4B98421A
:105210000ED01A4B98420BD0194B984208D0194B1C
:10522000984205D0184B984202D0184B984203D1AF
:1052300022F44072CB681A4322F080034C6943EA9F
:10524000040202608B68C3620B688362054B98425C
:1052500002D0084B984201D10B69036301234361DB
:1052600010BD0000000001400004004000080040A4
:10527000000C004000040140004001400044014097
:105280000048014000180040001C00400020004081
:1052900070B50546AC6B0020E085E0842046FEF743
:1052A00010FB70BD0168C96821F490710268D1607B
:1052B0000168496921F0010102685161202180F8EB
:1052C0003A10704710B504462068C06820F04000CE
:1052D0002168C860202084F839002046FEF7EBFCE6
:1052E000002010BD70B5044694F83A0022284AD137
:1052F000A068B0F5805F13D1A56A206940B9206825
:105300004068C0F308002880A06A801CA06219E0F1
:1053100020684068C0B22880A06A401CA06211E0EA
:10532000206938B920684068C1B2A26A501CA062E6
:10533000117007E02068406800F07F01A26A501CED
:10534000A0621170E08D401E80B2E085C8B920686F
:10535000C06820F020002168C8602068C06820F480
:1053600080702168C8602068406920F001002168D1
:105370004861202084F83A002046FEF79BFC00207C
:1053800070BD0020FCE70220FAE700002DE9F84F8D
:1053900004462068006920F44050E1680843216811
:1053A00008612169A068084361690843E16908430D
:1053B00000902068C06849F20C6188430099084356
:1053C0002168C8602068406920F44070A1690843E2
:1053D00021684861E069B0F5004F75D1E349206864
:1053E000884203D0E249206888426FD1FDF72AF94C
:1053F000814602206168A0FB01510B461920A9FBE0
:1054000000712A463846FAF73BFF6421B0FBF1F001
:105410004FEA001A02206168A0FB01510B461920D7
:10542000A9FB00712A463846FAF72AFF07460220F0
:105430006168A0FB01510B461920A9FB00B12A4667
:105440005846FAF71DFF6421B0FBF1F000EBC001F4
:1054500001EB0010A7EB8000322101EBC0006421BA
:10546000B0FBF1F000F0F8000AEB400A022061689E
:10547000A0FB01510B461920A9FB00712A463846B2
:10548000FAF7FEFE074602206168A0FB01510B46B9
:105490001920A9FB00B12A465846FAF7F1FE64210B
:1054A000B0FBF1F000EBC00101EB0010A7EB8000B6
:1054B000322101EBC0006421B0FBF1F000F00700E5
:1054C0005044216888604FE16EE0FFE7FDF7AAF8DD
:1054D000814602206168A0FB01510B461920A9FBFF
:1054E00000712A463846FAF7CBFE6421B0FBF1F092
:1054F0004FEA001A02206168A0FB01510B461920F7
:10550000A9FB00712A463846FAF7BAFE0746022080
:105510006168A0FB01510B461920A9FB00B12A4686
:105520005846FAF7ADFE6421B0FBF1F000EBC00184
:1055300001EB0010A7EB8000322101EBC0006421D9
:10554000B0FBF1F000F0F8000AEB400A02206168BD
:10555000A0FB01510B461920A9FB00712A463846D1
:10556000FAF78EFE074602206168A0FB0150034651
:105570001920A9FB00B12A465846FAF781FE64219A
:10558000B0FBF1F000EBC00101EB0010A7EB8000D5
:10559000322101EBC0006421B0FBF1F000F0070004
:1055A000504421688860DFE070492068884203D059
:1055B0006F49206888426BD1FDF744F8814604208A
:1055C0006168A0FB01510B461920A9FB00712A4616
:1055D0003846FAF755FE824604206168A0FB015167
:1055E0000B461920A9FB00712A463846FAF748FEF7
:1055F0006421B0FBF1F000EBC00101EB0010AAEB5D
:105600008000322101EB00106421B0FBF1F000F0CA
:10561000F00A04206168A0FB015003461920A9FB91
:1056200000712A463846FAF72BFE6421B0FBF1F0F0
:105630000AEB001A04206168A0FB01510B461920F7
:10564000A9FB00712A463846FAF71AFE07460420DD
:105650006168A0FB015003461920A9FB00B12A464E
:105660005846FAF70DFE6421B0FBF1F000EBC001E3
:1056700001EB0010A7EB8000322101EB0010642148
:10568000B0FBF1F000F00F005044216888606BE03F
:10569000FCF7C8FF814604206168A0FB0150034667
:1056A0001920A9FB00712A463846FAF7E9FD82461F
:1056B00004206168A0FB015003461920A9FB00717A
:1056C0002A463846FAF7DCFD6421B0FBF1F000EB26
:1056D000C00101EB0010AAEB8000322101EB0010A9
:1056E0006421B0FBF1F000F0F00A04206168A0FB37
:1056F000015003461920A9FB00712A463846FAF7E3
:10570000BFFD6421B0FBF1F00AEB001A04206168D0
:10571000A0FB017003461920A9FB005001463A4640
:105720002846FAF7ADFD074604206168A0FB01504A
:1057300003461920A9FB00B12A465846FAF7A0FDF6
:105740006421B0FBF1F000EBC00101EB0010A7EB0E
:105750008000322101EB00106421B0FBF1F000F079
:105760000F00504421688860BDE8F88F00100140A8
:1057700000140140014691F8390021282CD1886895
:10578000B0F5805F0FD10A6A1088C0F308000B687B
:105790005860086918B9086A801C086209E0086A3C
:1057A000401C086205E00B6A581C086218780B68F8
:1057B0005860C88C401E80B2C88458B90868C06858
:1057C00020F080000B68D8600868C06840F0400096
:1057D0000B68D860002070470220FCE710B5024833
:1057E000FEF770F810BD00006C1E001010B50248E6
:1057F000FEF768F810BD0000AC1E001010B502489E
:10580000FEF760F810BD0000EC1E001000BFFEE7C0
:105810000FB4084B10B504A902AA039800F038F899
:10582000044602A9002000F0D4F9204610BC5DF81F
:1058300014FB0000D35B000802480068C0F302209C
:10584000704700000CED00E010B5002804DB0A07EB
:10585000130E054A135406E00A07140E034A00F01B
:105860000F031B1FD45410BD00E400E018ED00E04E
:1058700002E008C8121F08C1002AFAD17047704719
:10588000002001E001C1121F002AFBD17047000077
:105890002DE9FF4F8BB088460546002606E02528F7
:1058A0000BD0DDE90D1290476D1C761C287800287E
:1058B000F5D10FB03046BDE8F08F0024A146A246D6
:1058C0000122AE4900E0044315F8013F203B02FAF3
:1058D00003F00842F7D128782A2810D06FF02F0261
:1058E0002878A0F13001092915D809EB890102EBCC
:1058F000410144F0020400EB01096D1CF0E758F887
:10590000041B5FEA010903D544F40054C9F10009FE
:1059100044F002046D1C28782E2817D115F8010FC9
:1059200044F004042A280ED06FF02F022878A0F14A
:10593000300109290AD80AEB8A0102EB410100EB88
:10594000010A6D1CF2E758F804AB6D1C28786C282E
:105950000FD006DC4C2817D068280DD06A2814D147
:1059600004E0742810D07A280FD10DE044F400141C
:105970000AE044F4801401E044F440146978814260
:1059800002D104F580146D1C6D1C2878692865D03F
:1059900006DC00288DD0632827D0642806D15DE07E
:1059A0006E2808D073282AD0752877D0DDE90D122B
:1059B0009047761CE0E0C4F30250022809D0032887
:1059C0000DD0D8F8001004280DD00E6008F104089E
:1059D000D2E0D8F80010F217C1E90062F6E7D8F873
:1059E00000100E80F2E70E70F0E718F8041B8DF837
:1059F000001000208DF80100EB46012003E058F86C
:105A000004BB4FF0FF3061074FF0000701D40AE0FC
:105A10007F1C57450DDA8742FADB1BF80710002977
:105A2000F6D106E07F1C8742FCDB1BF8071000293B
:105A3000F8D1DDE90D23A9EB07008146214600F0EE
:105A4000B1F83044C61904E0DDE90D121BF8010B72
:105A500090477F1EF8D22146484688E058F8040B4C
:105A6000C4F302514FF00A0B032900D100B20429FC
:105A700000D140B2002802DA40422D2102E0210587
:105A800005D52B218DF82410012104E006E0E10763
:105A900010D02021F6E708AF089113E058F8040B66
:105AA000C4F302514FF00A0B032900D180B204293C
:105AB00000D1C0B20021EEE75946FAF751FC30316F
:105AC00007F8011D0028F7D1ADEB070000F1200B0E
:105AD000600702D524F4803401E04FF0010ADA4572
